:020000040800F2
:1000000000000320BD2200083D1F0008451F000816
:10001000471F0008491F00084B1F00080000000090
:100020000000000000000000000000004175000812
:100030004D1F000800000000E17500088D720008E7
:100040000D2300080D2300080D2300080D230008D0
:100050000D2300080D2300080D2300080D230008C0
:100060000D2300080D2300080D2300080D230008B0
:100070000D2300080D2300080D2300080D230008A0
:100080000D2300080D230008511F00080D23000850
:10009000611F00080D2300080D2300080D23000830
:1000A0000D230008711F00080D2300080D23000810
:1000B0000D2300080D2300080D2300080D23000860
:1000C0000D2300080D2300080D2300080D23000850
:1000D0000D230008811F00080D2300080D230008D0
:1000E0000D2300080D2300080D2300080D23000830
:1000F0000D2300080D2300080D2300080D23000820
:100100000D2300080D2300080D2300080D2300080F
:100110000D2300080D2300080D2300080D230008FF
:100120000D2300080D230008891F00080D23000877
:100130000D2300080D2300080D2300080D230008DF
:100140000D2300080D2300080D230008991F000847
:100150000D2300080D2300080D2300080D230008BF
:100160000D2300080D2300080D2300080D230008AF
:100170000D2300080D2300080D23000800000000D7
:100180000D2300080D2300080D2300080D2300088F
:100190000D2300080D2300080D2300080D2300087F
:0C01A00000000000000000000D2300081B
:1001C00010B5054C237833B9044B13B10448AFF391
:1001D00000800123237010BDD00A00200000000021
:1001E000F8F4000808B5034B1BB103490348AFF30B
:1001F000008008BD00000000D40A0020F8F40008C8
:1002000081F0004102E000BF83F0004330B54FEAC7
:1002100041044FEA430594EA050F08BF90EA020F34
:100220001FBF54EA000C55EA020C7FEA645C7FEAC7
:10023000655C00F0E2804FEA5454D4EB5555B8BFEA
:100240006D420CDD2C4480EA020281EA030382EA5B
:10025000000083EA010180EA020281EA0303362DED
:1002600088BF30BD11F0004F4FEA01314FF4801CC0
:100270004CEA113102D0404261EB410113F0004FD2
:100280004FEA03334CEA133302D0524263EB430389
:1002900094EA050F00F0A780A4F10104D5F1200E27
:1002A0000DDB02FA0EFC22FA05F2801841F1000182
:1002B00003FA0EF2801843FA05F359410EE0A5F156
:1002C00020050EF1200E012A03FA0EFC28BF4CF087
:1002D000020C43FA05F3C01851EBE37101F000453D
:1002E00007D54FF0000EDCF1000C7EEB00006EEB4A
:1002F0000101B1F5801F1BD3B1F5001F0CD34908D4
:100300005FEA30004FEA3C0C04F101044FEA44522A
:1003100012F5800F80F09A80BCF1004F08BF5FEAB1
:10032000500C50F1000041EB045141EA050130BD91
:100330005FEA4C0C404141EB0101013C28BFB1F5A3
:10034000801FE9D291F0000F04BF01460020B1FAEE
:1003500081F308BF2033A3F10B03B3F120020CDAC1
:100360000C3208DD02F1140CC2F10C0201FA0CF09F
:1003700021FA02F10CE002F11402D8BFC2F1200C04
:1003800001FA02F120FA0CFCDCBF41EA0C019040BA
:10039000E41AA2BF01EB0451294330BD6FEA040403
:1003A0001F3C1CDA0C340EDC04F11404C4F12002EE
:1003B00020FA04F001FA02F340EA030021FA04F300
:1003C00045EA030130BDC4F10C04C4F1200220FA57
:1003D00002F001FA04F340EA0300294630BD21FA95
:1003E00004F0294630BD94F0000F83F4801306BF5B
:1003F00081F480110134013D4EE77FEA645C18BF4F
:100400007FEA655C29D094EA050F08BF90EA020FE5
:1004100005D054EA000C04BF1946104630BD91EADD
:10042000030F1EBF0021002030BD5FEA545C05D1E0
:100430004000494128BF41F0004130BD14F580041F
:100440003CBF01F5801130BD01F0004545F0FE4193
:1004500041F470014FF0000030BD7FEA645C1ABFC8
:10046000194610467FEA655C1CBF0B46024650EAFF
:10047000013406BF52EA033591EA030F41F400212B
:1004800030BD00BF90F0000F04BF0021704730B5B1
:100490004FF4806404F132044FF000054FF0000186
:1004A00050E700BF90F0000F04BF0021704730B547
:1004B0004FF4806404F1320410F0004548BF40421C
:1004C0004FF000013EE700BF42004FEAE2014FEA71
:1004D00031014FEA02701FBF12F07F4393F07F4F4C
:1004E00081F06051704732F07F4208BF704793F04F
:1004F0007F4F04BF41F40021704730B54FF4607462
:1005000001F0004521F000411CE700BF50EA010264
:1005100008BF704730B54FF000050AE050EA01020D
:1005200008BF704730B511F0004502D5404261EB7D
:1005300041014FF4806404F132045FEA915C3FF4BE
:10054000D8AE4FF003025FEADC0C18BF03325FEA5B
:10055000DC0C18BF033202EBDC02C2F1200300FA0C
:1005600003FC20FA02F001FA03FE40EA0E0021FA31
:1005700002F11444BDE600BF53B94AB9002908BFCF
:1005800000281CBF4FF0FF314FF0FF3000F074B96E
:10059000ADF1080C6DE904CE00F006F8DDF804E0DA
:1005A000DDE9022304B070472DE9F047089D0446B9
:1005B0008E46002B4DD18A42944669D9B2FA82F216
:1005C00052B101FA02F3C2F1200120FA01F10CFA52
:1005D00002FC41EA030E94404FEA1C48210CBEFB8A
:1005E000F8F61FFA8CF708FB16E341EA034306FB13
:1005F00007F199420AD91CEB030306F1FF3080F0A2
:100600001F81994240F21C81023E63445B1AA4B2EE
:10061000B3FBF8F008FB103344EA034400FB07F790
:10062000A7420AD91CEB040400F1FF3380F00A81D1
:10063000A74240F207816444023840EA0640E41BC6
:1006400000261DB1D4400023C5E900433146BDE872
:10065000F0878B4209D9002D00F0EF800026C5E914
:10066000000130463146BDE8F087B3FA83F6002E2C
:100670004AD18B4202D3824200F2F980841A61EBA4
:10068000030301209E46002DE0D0C5E9004EDDE7C2
:1006900002B9FFDEB2FA82F2002A40F09280A1EBAA
:1006A0000C014FEA1C471FFA8CFE0126200CB1FBFF
:1006B000F7F307FB131140EA01410EFB03F08842F8
:1006C00008D91CEB010103F1FF3802D2884200F285
:1006D000CB804346091AA4B2B1FBF7F007FB101117
:1006E00044EA01440EFB00FEA64508D91CEB0404B5
:1006F00000F1FF3102D2A64500F2BB800846A4EB10
:100700000E0440EA03409CE7C6F12007B34022FAFA
:1007100007FC4CEA030C20FA07F401FA06F31C4329
:10072000F9404FEA1C4900FA06F3B1FBF9F8200C36
:100730001FFA8CFE09FB181140EA014108FB0EF07C
:10074000884202FA06F20BD91CEB010108F1FF3ACC
:1007500080F08880884240F28580A8F102086144D8
:10076000091AA4B2B1FBF9F009FB101144EA0141E6
:1007700000FB0EFE8E4508D91CEB010100F1FF3491
:100780006CD28E456AD90238614440EA0840A0FB29
:100790000294A1EB0E01A142C846A64656D353D0FF
:1007A0005DB1B3EB080261EB0E0101FA07F722FA23
:1007B00006F3F1401F43C5E9007100263146BDE84C
:1007C000F087C2F12003D8400CFA02FC21FA03F3AF
:1007D000914001434FEA1C471FFA8CFEB3FBF7F030
:1007E00007FB10360B0C43EA064300FB0EF69E4255
:1007F00004FA02F408D91CEB030300F1FF382FD2EE
:100800009E422DD9023863449B1B89B2B3FBF7F695
:1008100007FB163341EA034106FB0EF38B4208D96E
:100820001CEB010106F1FF3816D28B4214D9023EAF
:100830006144C91A46EA004638E72E46284605E7CD
:100840000646E3E61846F8E64B45A9D2B9EB02089E
:1008500064EB0C0E0138A3E74646EAE7204694E72E
:100860004046D1E7D0467BE7023B614432E7304661
:1008700009E76444023842E7704700BF844641EA12
:10088000000313F003036DD1403A41D351F8043B08
:1008900040F8043B51F8043B40F8043B51F8043B5A
:1008A00040F8043B51F8043B40F8043B51F8043B4A
:1008B00040F8043B51F8043B40F8043B51F8043B3A
:1008C00040F8043B51F8043B40F8043B51F8043B2A
:1008D00040F8043B51F8043B40F8043B51F8043B1A
:1008E00040F8043B51F8043B40F8043B51F8043B0A
:1008F00040F8043B51F8043B40F8043B51F8043BFA
:1009000040F8043B51F8043B40F8043B403ABDD268
:10091000303211D351F8043B40F8043B51F8043B0A
:1009200040F8043B51F8043B40F8043B51F8043BC9
:1009300040F8043B103AEDD20C3205D351F8043B99
:1009400040F8043B043AF9D2043208D0D2071CBF65
:1009500011F8013B00F8013B01D30B88038060468E
:10096000704700BF082A13D38B078DD010F0030304
:100970008AD0C3F10403D21ADB071CBF11F8013B74
:1009800000F8013B80D331F8023B20F8023B7BE7C3
:10099000043AD9D3013A11F8013B00F8013BF9D2EE
:1009A0000B7803704B7843708B7883706046704788
:1009B0000000000000000000000000000000000037
:1009C00090F800F06DE9024520F007016FF0000C8F
:1009D00010F0070491F820F040F049804FF0000437
:1009E0006FF00700D1E9002391F840F000F1080012
:1009F00082FA4CF2A4FA8CF283FA4CF3A2FA8CF34A
:100A00004BBBD1E9022382FA4CF200F10800A4FAB0
:100A10008CF283FA4CF3A2FA8CF3E3B9D1E9042304
:100A200082FA4CF200F10800A4FA8CF283FA4CF33B
:100A3000A2FA8CF37BB9D1E9062301F1200182FAF5
:100A40004CF200F10800A4FA8CF283FA4CF3A2FAFB
:100A50008CF3002BC6D0002A04BF04301A4612BA09
:100A6000B2FA82F2FDE8024500EBD2007047D1E90C
:100A7000002304F00305C4F100004FEAC50514F09B
:100A8000040F91F840F00CFA05F562EA05021CBF6C
:100A900063EA050362464FF00004A9E70000000086
:100AA00001F0FF01102A2BDB10F0070F08D010F81F
:100AB000013B013A8B422DD010F0070F42B3F6D123
:100AC000F0B441EA012141EA014122F007047FF03C
:100AD00000070023F0E80256083C85EA010586EA93
:100AE000010685FA47F5A3FA87F586FA47F6A5FACF
:100AF00087F68EB9EED1F0BC01F0FF0102F00702DB
:100B000032B110F8013B013A83EA010313B1F8D185
:100B10000020704701387047002D06BF3546033866
:100B2000073815F0010F07D1013015F4807F02BF9F
:100B3000013015F4C03F0130F0BC0138704700BFF0
:100B400070B54FF0FF0C4CF4E06C1CEA11541DBF63
:100B50001CEA135594EA0C0F95EA0C0F00F0DEF82E
:100B60002C4481EA030621EA4C5123EA4C5350EA13
:100B7000013518BF52EA033541F4801143F4801364
:100B800038D0A0FB02CE4FF00005E1FB02E506F0F5
:100B90000042E0FB03E54FF00006E1FB03569CF04A
:100BA000000F18BF4EF0010EA4F1FF04B6F5007F50
:100BB00064F5407404D25FEA4E0E6D4146EB0606C2
:100BC00042EAC62141EA55514FEAC52040EA5E504B
:100BD0004FEACE2EB4F1FD0C88BFBCF5E06F1ED8F5
:100BE000BEF1004F08BF5FEA500E50F1000041EB2C
:100BF000045170BD06F0004646EA010140EA0200D9
:100C000081EA0301B4EB5C04C2BFD4EB0C0541EAFA
:100C1000045170BD41F480114FF0000E013C00F30F
:100C2000AB8014F1360FDEBF002001F0004170BD33
:100C3000C4F10004203C35DA0C341BDC04F114044C
:100C4000C4F1200500FA05F320FA04F001FA05F2D8
:100C500040EA020001F0004221F0004110EBD370A5
:100C600021FA04F642EB06015EEA430E08BF20EAD1
:100C7000D37070BDC4F10C04C4F1200500FA04F374
:100C800020FA05F001FA04F240EA020001F0004106
:100C900010EBD37041F100015EEA430E08BF20EA79
:100CA000D37070BDC4F1200500FA05F24EEA020EC1
:100CB00020FA04F301FA05F243EA020321FA04F0F0
:100CC00001F0004121FA04F220EA020000EBD370A7
:100CD0005EEA430E08BF20EAD37070BD94F0000FA7
:100CE0000FD101F00046400041EB010111F4801FDB
:100CF00008BF013CF7D041EA060195F0000F18BF8C
:100D0000704703F00046520043EB030313F4801FC7
:100D100008BF013DF7D043EA0603704794EA0C0F81
:100D20000CEA135518BF95EA0C0F0CD050EA410697
:100D300018BF52EA4306D1D181EA030101F0004114
:100D40004FF0000070BD50EA410606BF104619463C
:100D500052EA430619D094EA0C0F02D150EA013648
:100D600013D195EA0C0F05D152EA03361CBF104689
:100D700019460AD181EA030101F0004141F0FE4128
:100D800041F470014FF0000070BD41F0FE4141F4AC
:100D9000780170BD70B54FF0FF0C4CF4E06C1CEAAC
:100DA00011541DBF1CEA135594EA0C0F95EA0C0F61
:100DB00000F0A7F8A4EB050481EA030E52EA03351C
:100DC0004FEA013100F088804FEA03334FF080553D
:100DD00045EA131343EA12634FEA022245EA11156A
:100DE00045EA10654FEA00260EF000419D4208BF1B
:100DF000964244F1FD0404F5407402D25B084FEAC8
:100E00003202B61A65EB03055B084FEA32024FF473
:100E100080104FF4002CB6EB020E75EB030E22BFD0
:100E2000B61A754640EA0C005B084FEA3202B6EB90
:100E3000020E75EB030E22BFB61A754640EA5C003F
:100E40005B084FEA3202B6EB020E75EB030E22BFCF
:100E5000B61A754640EA9C005B084FEA3202B6EBD0
:100E6000020E75EB030E22BFB61A754640EADC008F
:100E700055EA060E18D04FEA051545EA16754FEAF1
:100E800006164FEAC30343EA52734FEAC2025FEA0F
:100E90001C1CC0D111F4801F0BD141EA00014FF09E
:100EA00000004FF0004CB6E711F4801F04BF01436F
:100EB0000020B4F1FD0C88BFBCF5E06F3FF6AFAE8B
:100EC000B5EB030C04BFB6EB020C5FEA500C50F11B
:100ED000000041EB045170BD0EF0004E4EEA11319E
:100EE00014EB5C04C2BFD4EB0C0541EA045170BDA5
:100EF00041F480114FF0000E013C90E645EA060EE9
:100F00008DE60CEA135594EA0C0F08BF95EA0C0F16
:100F10003FF43BAF94EA0C0F0AD150EA01347FF45E
:100F200034AF95EA0C0F7FF425AF104619462CE735
:100F300095EA0C0F06D152EA03353FF4FDAE104698
:100F4000194622E750EA410618BF52EA43067FF4E9
:100F5000C5AE50EA41047FF40DAF52EA43057FF479
:100F6000EBAE12E74FF0FF3C06E000BF4FF0010C84
:100F700002E000BF4FF0010C4DF804CD4FEA410CE8
:100F80007FEA6C5C4FEA430C18BF7FEA6C5C1BD0B5
:100F900001B050EA410C0CBF52EA430C91EA030F36
:100FA00002BF90EA020F0020704710F1000F91EA93
:100FB000030F58BF994208BF90422CBFD8176FEA61
:100FC000E37040F0010070474FEA410C7FEA6C5C2F
:100FD00002D150EA013C07D14FEA430C7FEA6C5C36
:100FE000D6D152EA033CD3D05DF8040B704700BF62
:100FF0008446104662468C461946634600E000BFB0
:1010000001B5FFF7B7FF002848BF10F1000F01BD81
:101010004DF808EDFFF7F4FF0CBF012000205DF84C
:1010200008FB00BF4DF808EDFFF7EAFF34BF0120D1
:1010300000205DF808FB00BF4DF808EDFFF7E0FF6A
:1010400094BF012000205DF808FB00BF4DF808EDBB
:10105000FFF7CEFF94BF012000205DF808FB00BF22
:101060004DF808EDFFF7C4FF34BF012000205DF804
:1010700008FB00BF4FEA410C7FEA6C5C02D150EAEA
:10108000013C0AD14FEA430C7FEA6C5C02D152EA80
:10109000033C02D14FF0000070474FF00100704751
:1010A0004FEA410212F5001215D211D56FF4787390
:1010B000B3EB625212D94FEAC12343F0004343EA33
:1010C000505311F0004F23FA02F018BF404270470E
:1010D0004FF00000704750EA013005D111F0004098
:1010E00008BF6FF0004070474FF00000704700BF2E
:1010F00000B58BB001AB03AA002101F0FBFC039B00
:10110000A3F20122022A2DD8013BDBB2174A137049
:10111000174903EB83004200881831F902C0A0F898
:1011200008C09DF804E09DF805C04CEA0E2C21F89B
:1011300002C09DF80620120212B29DF807C042EAD2
:101140000C0242809DF80820120212B29DF809C0DC
:1011500042EA0C0282809DF80A0003EB83035A00E6
:101160008B1898710BB05DF804FB00BFEC0A0020EF
:10117000F00A00207047000008B5012908D00229B4
:1011800001D041B108BD0146054802F0B5F9F9E7C3
:10119000034B9861F6E70004014B9861F2E700BF4A
:1011A00000180240032826D8DFE800F002060B22D0
:1011B000114B00225A6170470F4B4FF0FF325A61BA
:1011C00070470D4A5369DB43536170470221204643
:1011D000FFF7D2FF4FF4FA7006F0F0F86400A4B203
:1011E000064B1A784FF4807313419C42EEDD10BD1C
:1011F00010B50124F4E770470018024000000020F9
:1012000000285FD0034600295CD030B590F800C0BC
:1012100042784CEA022CCCF30A0CA1F800C04278C8
:101220008078D20842EA4012C2F30A0EA1F802E026
:101230009A78D878920942EA8002187942EA8022A4
:10124000C2F30A028A8018795C79400840EAC41027
:10125000C0F30A00C8805C79C4F301148C725C7915
:10126000A409CC729C79DD7944EA05248C811C7A2E
:101270005D7A44EA0524CC819C7ADD7A44EA05242F
:101280000C821C7B8C745C7BCC749C7BDD7B44EA85
:1012900005248C821C7C5B7C44EA03231CB20B81FA
:1012A000ACF5806CA1F800C0AEF5806EA1F802E04C
:1012B000A2F580628A80A0F58060C880A4F5806372
:1012C0000B8130BD7047000008B503482422811807
:1012D00000F0CAFA08BD00BF280B002000B583B09B
:1012E0002F4B1B681A6812F0200F09D000220092C1
:1012F0001A6800925B680093009B03B05DF804FBE2
:10130000284A126812F0100FF7D0002201921A68D2
:1013100001925B680193019B234B1B681A6812F4CE
:10132000002F1DD11A6822F001021A601E480268BF
:101330005368C3F124039BB21C490B8024215160E4
:10134000116841F40021116001680A6842F001024D
:101350000A60122BD1D116491648FFF751FFCCE78E
:101360001A6822F001021A600F4908684368C3F145
:1013700024030E4A1380242343600F48036C23F494
:101380000023036409680B6843F001030B601388B2
:10139000122BB2D106490948FFF732FFADE700BF73
:1013A0002C0E002000100140CC0D0020700B0020FE
:1013B000100B0020280B0020006402404C0B002082
:1013C00008B52DED028B9FED118ADFED118AF0EE4D
:1013D000480AB0EE680A0F4A00210F4800F078FA78
:1013E000F0EE480AB0EE680A0C4A00210C4800F002
:1013F0006FFAF2EE040AB0EE480A0A4A00210A48DF
:1014000000F066FABDEC028B08BD00BF0000FA4494
:1014100000007A4610000020C40B00201C000020B1
:10142000140C002004000020740B002000B583B0D1
:101430008DF8070001231A460DF10701024803F059
:1014400026FB03B05DF804FBE00C002010B5044659
:1014500000224FF40071034802F048F82046FFF7DD
:10146000E5FF10BD0004024010B5044601224FF410
:101470000071034802F03AF82046FFF7D7FF10BD8D
:101480000004024008B50120FFF7E0FF782000F0DB
:101490006BFF1120FFF7DAFF782000F065FFB12025
:1014A000FFF7D4FF0120FFF7DFFF2C20FFF7DCFF61
:1014B0002D20FFF7D9FFB220FFF7C8FF0120FFF76B
:1014C000D3FF2C20FFF7D0FF2D20FFF7CDFFB32057
:1014D000FFF7BCFF0120FFF7C7FF2C20FFF7C4FF79
:1014E0002D20FFF7C1FF0120FFF7BEFF2C20FFF7E3
:1014F000BBFF2D20FFF7B8FFB420FFF7A7FF0720A1
:10150000FFF7B2FFC020FFF7A1FFA220FFF7ACFF5B
:101510000220FFF7A9FF8420FFF7A6FFC120FFF7F5
:1015200095FFC520FFF7A0FFC220FFF78FFF0A201D
:10153000FFF79AFF0020FFF797FFC320FFF786FF12
:101540008A20FFF791FF2A20FFF78EFFC420FFF7C4
:101550007DFF8A20FFF788FFEE20FFF785FFC5207B
:10156000FFF774FF0E20FFF77FFF2020FFF76EFFCD
:101570003620FFF76BFF6020FFF776FF3A20FFF77A
:1015800065FF0520FFF770FF08BD08B52A20FFF7AB
:101590005DFF0020FFF768FF0020FFF765FF0020D8
:1015A000FFF762FFA020FFF75FFF2B20FFF74EFF42
:1015B0000020FFF759FF0020FFF756FF0020FFF73C
:1015C00053FF8020FFF750FF08BD08B5E020FFF76C
:1015D0003DFF0220FFF748FF1C20FFF745FF0720D3
:1015E000FFF742FF1220FFF73FFF3720FFF73CFFD6
:1015F0003220FFF739FF2920FFF736FF2D20FFF7B4
:1016000033FF2920FFF730FF2520FFF72DFF2B2088
:10161000FFF72AFF3920FFF727FF0020FFF724FFFD
:101620000120FFF721FF0320FFF71EFF1020FFF727
:101630001BFFE120FFF70AFF0320FFF715FF1D2026
:10164000FFF712FF0720FFF70FFF0620FFF70CFF41
:101650002E20FFF709FF2C20FFF706FF2920FFF7B8
:1016600003FF2D20FFF700FF2E20FFF7FDFE2E20A9
:10167000FFF7FAFE3720FFF7F7FE3F20FFF7F4FEF3
:101680000020FFF7F1FE0020FFF7EEFE0220FFF73B
:10169000EBFE1020FFF7E8FE1320FFF7D7FE0A202D
:1016A00000F062FE2920FFF7D1FE782000F05CFEFA
:1016B00008BDF8B507460D4616461C462A20FFF71A
:1016C000C5FE0020FFF7D0FE3846FFF7CDFE002014
:1016D000FFF7CAFE3046FFF7C7FE2B20FFF7B6FE26
:1016E0000020FFF7C1FE2846FFF7BEFE0020FFF7EF
:1016F000BBFE2046FFF7B8FE2C20FFF7A7FEF8BD83
:10170000F8B5BDF818509F2831D817461E467F29D6
:101710002DD88318A02B02DDC0F1A007BFB28B1912
:10172000802B02DDC1F18006B6B2C0B2C9B2C219C7
:10173000D2B28B19DBB2013B013ADBB2D2B2FFF776
:10174000B8FF01224FF40071094801F0CFFE0BE011
:10175000280AFFF789FEE8B2FFF786FE013CA4B233
:10176000002CF5D1013EB6B20EB13C46F8E7F8BD0B
:101770000004024000B583B000908023A022002125
:101780000846FFF7BDFF03B05DF804FB08B54FF452
:101790007840FFF7EFFF782000F0E6FD0020FFF72C
:1017A000E9FF782000F0E0FD4FF4FC60FFF7E2FF76
:1017B000782000F0D9FD4FF6E070FFF7DBFF7820CE
:1017C00000F0D2FD1F20FFF7D5FF782000F0CCFD00
:1017D0004FF66050FFF7CEFF782000F0C5FD40F2D5
:1017E000FF70FFF7C7FF41F2707000F0BDFD08BD4C
:1017F00010B50D4C00224FF48061204601F076FEBA
:101800004FF47A7000F0B0FD01224FF48061204661
:1018100001F06CFEFFF736FEFFF7B7FEFFF7D5FECF
:10182000FFF7B4FF10BD00BF0004024010B58AB03E
:1018300001220892002306930792009301930293DA
:10184000039305930493074C6946204601F088F8FA
:10185000204601F021F90221204601F0F0F90AB0FA
:1018600010BD00BFAC0C002010B4164B1B685C69A7
:1018700044F040045C61DC6844F01004DC60124B0E
:101880001C68236823F00103236003E01C6824F034
:1018900001041C600C4B1B681C6814F0010FF5D18F
:1018A0000A4C9C60D86019615A601A6842F4802220
:1018B0001A60054B1A68136843F0010313605DF862
:1018C000044B70472C0E0020CC0D0020041001406A
:1018D000C0B1BAB10170116841605168816092680D
:1018E000C26080ED040AC0ED050A00228261C26177
:1018F0000264C2638263826242630263C262C26440
:10190000826442647047000000B585B000230093F4
:101910000193029303931548154A02604FF48032F5
:10192000426083600361037680F82030C362114A0D
:101930008262C3600122C26180F83030426100F0EF
:10194000C1FD68B90623009301230193002302938C
:101950006946064800F086FE28B905B05DF804FB2C
:1019600000F094F9EEE700F091F9F6E7640C00203E
:10197000002001400100000F10B588B00023039340
:101980000493059306930793026803F1804303F5DC
:1019900090339A4201D008B010BD0024019403F5A1
:1019A0008C335A6C42F480725A645A6C02F480721E
:1019B0000192019A02941A6B42F001021A631B6BA6
:1019C00003F001030293029B402303930323049338
:1019D00003A9064801F08CFC22460521122001F0E3
:1019E00083FA122001F0B8FAD5E700BF00000240E8
:1019F00008B50D480D4B036003234360002383604B
:101A0000C3604FF4102202614FF40012426103766A
:101A100043768376C3760377437700F0FAFE00B906
:101A200008BD00F033F9FBE7AC0C00200064004077
:101A300010B588B00023039304930593069307938E
:101A40000268184B9A4201D008B010BD00240194DE
:101A500003F5EA331A6C42F000721A641A6C02F051
:101A600000720192019A02941A6B42F008021A6302
:101A70001B6B03F008030293029B032303930222D0
:101A8000049206930923079303A9074801F030FC49
:101A900022460521142001F027FA142001F05CFAF7
:101AA000D2E700BF00640040000C024000B583B0E4
:101AB00000220192094B196B41F4800119631B6BE1
:101AC00003F480030193019B05213A2001F00CFAF5
:101AD0003A2001F041FA03B05DF804FB00380240FF
:101AE00008B54FF4FA6005F069FCFAE708B54FF461
:101AF000FA6005F063FCFAE708B507F033FA012055
:101B000005F05CFC0320FFF74DFB0120FFF74AFBCB
:101B1000F5E770470020704708B50B4A00210B48D5
:101B200005F0EEFB0A4B18600A4A00210A4805F04E
:101B3000E7FB0A4B18600A4A00210A4805F0E0FB5F
:101B4000094B186008BD00BF60F50008F91A0008CD
:101B5000D80C002084F50008E11A0008DC0C0020F5
:101B60003CF50008ED1A0008D40C00202DE9F041E6
:101B70008AB000240594069407940894099400946C
:101B8000384B1A6B42F002021A631A6B02F002021F
:101B90000092009A01941A6B42F001021A631A6BC8
:101BA00002F001020192019A02941A6B42F00802BB
:101BB0001A631A6B02F008020292029A03941A6BDB
:101BC00042F080021A631A6B02F080020392039AB9
:101BD00004941A6B42F040021A631B6B03F040033B
:101BE0000493049BDFF8888022464FF4C06140468E
:101BF00001F07CFC1C4F01223C21384601F076FCB0
:101C00001A4E01224FF4FF71304601F06FFC4FF481
:101C1000C0630593012506950794089405A94046DD
:101C200001F066FB3C23059306950794089405A9EB
:101C3000384601F05DFB4FF4FB73059311230693C7
:101C40000795089405A9304601F052FB0823059337
:101C500006950794089405A9304601F049FB0AB09F
:101C6000BDE8F08100380240001C0240001802402C
:101C70000004024008B50268034B9A4200D008BD38
:101C800000F060FBFBE700BF0000014072B6FEE71A
:101C900000B595B03022002108A807F00DFC002304
:101CA000039304930593069307930193214A116CC0
:101CB00041F080511164126C02F080520192019A3D
:101CC00002931D4B1A6842F440421A601B6803F4E9
:101CD00040430293029B012308934FF480330993FE
:101CE00002230E934FF480020F9206221092A82234
:101CF000119212930723139308A802F071FAA8B95E
:101D00000F23039302230493002305934FF4A0535E
:101D100006934FF480530793052103A802F0B4FC07
:101D200030B902F059FC15B05DF804FBFFF7AEFFC7
:101D3000FFF7ACFF003802400070004008B500F02B
:101D4000E7FAFFF7A5FFFFF711FFFFF7AFFE00F07F
:101D50001FFAFFF74DFEFFF7D7FD00F013F800F074
:101D6000CFF9FFF7B1FAFFF761FDFFF729FBFFF7A6
:101D70003FFDFFF7FFF905F095FAFFF7CDFE05F0FF
:101D8000A3FAFEE708B50E480E4B03604FF48273CA
:101D900043604FF4004383600023C36003614361E9
:101DA0004FF400728261C3610362436283620A235B
:101DB000C36202F00DFE00B908BDFFF767FFFBE745
:101DC000E00C002000300140F0B589B000230393FF
:101DD000049305930693079302681E4B9A4201D021
:101DE00009B0F0BD0024009403F584335A6C42F42A
:101DF00080525A645A6C02F480520092009A019404
:101E00001A6B42F002021A631A6B02F0020201928C
:101E1000019A02941A6B42F001021A631B6B03F0E1
:101E200001030293029B08230393022704970326CE
:101E300006960525079503A9074801F059FA80235E
:101E40000393049705940696079503A9034801F0A8
:101E50004FFAC5E700300140000402400000024094
:101E600000B583B0002200920D4B596C41F48041C3
:101E70005964596C01F48041009100990192196CE8
:101E800041F0805119641B6C03F080530193019B56
:101E90000F216FF0010001F027F803B05DF804FB9B
:101EA0000038024030B589B00546002401941E4B2D
:101EB0005A6C42F001025A645B6C03F00103019317
:101EC000019B02A903A802F0B5FC02F0A3FC4300A9
:101ED0001648A0FB03239B0C013B1548154A0260E2
:101EE00040F2E732C260436004618460846103F0C1
:101EF000D9F8044610B1204609B030BD0C4802F0B4
:101F000067FF04460028F6D1192001F025F80F2DAF
:101F100001D90124EFE700222946192000F0E4FF4F
:101F2000054B1D60E7E700BF0038024083DE1B431E
:101F3000380D0020000001403000002008B502F0FC
:101F400099FCFEE7FEE7FEE7FEE7FEE770470000CC
:101F500008B5024800F0E4FA08BD00BF640C002098
:101F600008B5024800F089FE08BD00BFAC0C002097
:101F700008B5024802F075FF08BD00BF380D00200B
:101F800008B5FFF7ABF908BD08B5024801F0C2F883
:101F900008BD00BFCC0D002008B5024801F012FEBC
:101FA00008BD00BFB46C00200120704708B507F0E1
:101FB00059FA162303604FF0FF3008BD08B54FF003
:101FC000FF31FFF7F3FFFEE770B50C46164600251C
:101FD00006E0AFF30080214601F8010B01350C4605
:101FE000B542F6DB304670BD70B50C46164600258E
:101FF00004E014F8010BAFF300800135B542F8DBC3
:10200000304670BD4FF0FF3070474FF400534B60C7
:1020100000207047012070470020704710B503462C
:102020000C4A0D490D48006840B10C480068034453
:10203000521A934206D8094A136010BD0748084C4B
:102040000460F2E707F00EFA0C2303604FF0FF3054
:10205000F3E700BF0000032000040000800D002013
:1020600028740020034AD2F8883043F47003C2F881
:102070008830704700ED00E00268094B9A4200D0BA
:10208000704782B000230193064B1A6C42F0400265
:102090001A641B6C03F040030193019B02B070476C
:1020A000001800400038024000B587B000230193BB
:1020B000029303930493059302680E4B9A4202D055
:1020C00007B05DF804FB002300930B4B1A6B42F042
:1020D00080021A631B6B03F080030093009B402374
:1020E0000193022302930923059301A9034801F0F8
:1020F000FFF8E5E70018004000380240001C0240ED
:1021000000B58DB00023089309930A930B930193B4
:102110000293039304930593069307931A481B4A6B
:1021200002604360836045F20722C26003618361FD
:1021300002F0B8FFE0B94FF48053089308A91248A1
:1021400003F0BBF8B8B9104802F0D8FFB0B960236B
:102150000193002202920392059201A90A4803F01A
:1021600031F870B90848FFF79FFF0DB05DF804FB28
:10217000FFF78CFDDFE7FFF789FDE4E7FFF786FD5A
:10218000E5E7FFF783FDEDE7840D00200018004030
:1021900008B50B480B4B03600B4B43600023836077
:1021A000C3604FF4806202610C2242618361C361AB
:1021B00003F08CF900B908BDFFF768FDFBE700BF2D
:1021C0002C0E002000100140A08601002DE9F043F4
:1021D00089B0002303930493059306930793026841
:1021E00003F1804303F588339A4202D009B0BDE879
:1021F000F08304460025019503F594335A6C42F0B0
:1022000010025A645A6C02F010020192019A02956F
:102210001A6B42F002021A631B6B03F00203029373
:10222000029B80230393122304934FF00109CDF8FE
:1022300014904FF00308CDF81880072707971C4E1D
:1022400003A9304601F054F840230393022304937A
:10225000CDF81490CDF81880079703A9304601F007
:1022600047F81448144B03604FF0006343608560E7
:10227000C5604FF480630361456185614FF48073ED
:10228000C3614FF440330362456200F0DDFE58B98C
:10229000084BA3639C6300220521252000F024FE47
:1022A000252000F059FEA1E7FFF7F0FCF0E700BFA2
:1022B00000040240CC0D002040640240DFF834D01E
:1022C0000D480E490E4A002302E0D458C45004338E
:1022D000C4188C42F9D30B4A0B4C002301E0136065
:1022E0000432A242FBD3FFF7BDFE07F0C1F8FFF7AF
:1022F00025FD70470000032000000020D00A0020C8
:1023000014FA0008D00A002028740020FEE700001C
:1023100008B50B4B1A6842F400721A601A6842F44E
:1023200080621A601A6842F480721A60032000F01A
:10233000C9FD0F20FFF7B6FDFFF792FD002008BD95
:10234000003C0240034A1168034B1B780B441360A6
:10235000704700BF700E00202C000020014B186851
:10236000704700BF700E002038B50446FFF7F6FF37
:102370000546B4F1FF3F02D0044B1B781C44FFF725
:10238000EDFF401BA042FAD338BD00BF2C00002057
:102390004A4B5A6822F440325A605A6841680A43EC
:1023A0005A600268536823F480735360026853686C
:1023B000016943EA012353600268536823F04073C4
:1023C00053600268536881680B43536002689368E6
:1023D00023F40063936002689368C1680B439360C1
:1023E000826A374B9A4257D00268936823F0706331
:1023F000936002689368816A0B43936002689368F4
:1024000023F04053936002689368C16A0B43936062
:102410000268936823F00203936002689368017E68
:1024200043EA4103936090F82030002B3FD00268CC
:10243000536843F4006353600268536823F46043B5
:10244000536001684B68426A013A43EA42334B6089
:102450000268D36A23F47003D3620168CB6AC2694D
:10246000013A43EA0253CB620268936823F4007393
:1024700093600268936890F8301043EA41239360B8
:102480000268936823F480639360026893684169EB
:1024900043EA8123936070470268936823F0706376
:1024A00093600268936823F040539360B0E702683A
:1024B000536823F400635360CAE700BF0023014060
:1024C0000100000F38B310B50446036C43B1236C10
:1024D00013F0100F0BD00120002384F83C3010BD06
:1024E000FFF74AFA0023636484F83C30EFE7236C7B
:1024F00023F4885323F0020343F0020323642046AD
:10250000FFF746FF00206064236C23F0030343F0D1
:1025100001032364E0E7012070477047704770476C
:1025200070B5044603681E685D6816F0020F2FD070
:1025300005F0200262B3026C12F0100F03D1026C9E
:1025400042F4007202649A6812F0405F19D1227E50
:10255000BAB9DA6A12F4700F03D09A6812F4806F75
:102560000FD15A6822F020025A60236C23F4807342
:102570002364236C13F4805F03D1236C43F00103C5
:1025800023642046FFF7C9FF23686FF012021A6028
:1025900005F0800316F0040F37D0002B35D0236CE4
:1025A00013F0100F03D1236C43F40053236423680A
:1025B0009A6812F4401F21D19A6B12F4401F03D085
:1025C0009A6812F4806F19D15A6812F4806F15D18D
:1025D0009A6812F0405F11D1227E7AB95A6822F0CF
:1025E00080025A60236C23F480532364236C13F419
:1025F000807F03D1236C43F001032364204600F065
:1026000007F923686FF00C021A6005F0400316F01A
:10261000010F05D023B123681B6813F0010F06D109
:1026200005F0806516F0200F00D065B970BD236CF1
:1026300043F4803323642046FFF770FF23686FF074
:1026400001021A60ECE7636C43F0020363642368E1
:102650006FF020051D602046FFF761FF23681D60B5
:10266000E4E7000030B482B00023019390F83C30DE
:10267000012B00F0C080012380F83C300B68092B4F
:1026800041D90468E2689BB203EB43031E3B4FF061
:10269000070C0CFA03F322EA0303E3600468E26820
:1026A0000B8803EB43031E3B8D6805FA03F31343CA
:1026B000E3604B68062B3DD80468626B03EB830331
:1026C000053B4FF01F0C0CFA03F322EA030363638C
:1026D0000468626B4B6803EB8303053BB1F800C0F1
:1026E0000CFA03F3134363630268444B9A4251D0DC
:1026F0000268424B9A425AD0002380F83C30184678
:1027000002B030BC7047046822699BB203EB4303FC
:102710004FF0070C0CFA03F322EA03032361046869
:1027200022690B8803EB43038D6805FA03F3134317
:102730002361BEE70C2B16D805682A6B03EB8303D5
:10274000233B1F2404FA03F322EA03032B630568E7
:102750002A6B4B6803EB8303233B0C8804FA03F3D7
:1027600013432B63C0E70568EA6A03EB8303413B2D
:102770001F2404FA03F322EA0303EB620568EA6A02
:102780004B6803EB8303413B0C8804FA03F31343C8
:10279000EB62A9E70B68122BAAD1194B5A6822F4F5
:1027A00000025A605A6842F480025A60A0E70B683F
:1027B000144A934201D0112B9ED1114B5A6822F436
:1027C00080025A605A6842F400025A600A680D4B4F
:1027D0009A4291D10C4B1B680C4AA2FB03239B0C21
:1027E00003EB83035B000193019B002B84D0019BCF
:1027F000013B0193F8E7022082E700BF002001407F
:1028000000230140120000102800002083DE1B433B
:102810007047002800F0A18038B5044690F82030B9
:10282000D3B12268136843F001031360FFF796FDEC
:10283000054623685A6812F0010F10D1FFF78EFD8C
:10284000401B0A28F5D9636A43F400336362052309
:1028500084F82030012038BDFFF7EAF8E1E71A6874
:1028600022F002021A60FFF779FD054623685A68D4
:1028700012F0020F0DD0FFF771FD401B0A28F5D9A9
:10288000636A43F400336362052384F82030012037
:10289000E1E7227E012A3DD01A6822F080021A6008
:1028A000637E012B3BD02268136823F04003136042
:1028B000A37E012B39D02268136823F02003136014
:1028C000E37E012B37D02268136843F010031360B6
:1028D000237F012B35D02268136823F0080313608F
:1028E000637F012B33D02268136823F00403136045
:1028F000A368E26813432269134362691343626861
:10290000013A21681343CB6100206062012384F8FF
:102910002030A0E71A6842F080021A60C0E72268FF
:10292000136843F040031360C2E72268136843F062
:1029300020031360C4E72268136823F010031360B8
:10294000C6E72268136843F008031360C8E72268EB
:10295000136843F004031360CAE7012070470000C6
:1029600090F82030013BDBB2012B05D9436A43F4D8
:10297000802343620120704730B5464BD3F80022D4
:1029800042F00102C3F80022D3F8002222F47C5264
:10299000C3F80022D3F80022486A42EA0022C3F8B2
:1029A00000224A6902F01F02012000FA02F2D3F865
:1029B0001C026FEA020C20EA0200C3F81C02CB6979
:1029C000C3B9344BD3F80C020CEA0000C3F80C0274
:1029D0008C884869CD6844EA0544483043F8304063
:1029E0008C68088840EA04404C6904F1480E03EB07
:1029F000CE035860CB69012B1ED08B69002B33D1DD
:102A00002448D0F804320CEA0303C0F804320B69FE
:102A10008BBB2048D0F814320CEA0303C0F8143200
:102A20000B6A012B2ED01B4AD2F8003223F001038F
:102A3000C2F80032002030BD164BD3F80C02104310
:102A4000C3F80C028C8848690D6844EA0544483094
:102A500043F8304088894C698D6840EA0540483425
:102A600003EBC4035860C8E70A48D0F804321343A4
:102A7000C0F80432CBE70748D0F814321343C0F84B
:102A80001432CDE70349D1F81C321A43C1F81C2295
:102A9000C9E700BF0064004070B5044690F82050BC
:102AA000EDB2012D06D0436A43F4002343620125B1
:102AB000284670BD022380F820300268136823F096
:102AC00001031360FFF74AFC064623685B6813F0B6
:102AD000010F0CD0FFF742FC831B0A2BF5D9636A68
:102AE00043F400336362052384F82030E0E70025D7
:102AF0006562DDE790F820C00CF1FF3C5FFA8CFCCA
:102B0000BCF1010F00F2958030B451B90468E4685B
:102B100014F0030F10D1436A43F400134362012001
:102B200077E00468246914F0030F05D1436A43F485
:102B30000013436201206CE001F11B0424010568CD
:102B40002C5904F004049460002C64D101F11B049E
:102B5000240105682C59640D1460046801F11B0CF4
:102B60004FEA0C1C54F80C4004F00204D4600468D2
:102B70006444646804F00F04146104686444646885
:102B8000C4F307249461046864446468240C5461A9
:102B9000026802EB0112D2F8B8211A70026802EB47
:102BA0000112D2F8B821C2F307225A70026802EB70
:102BB0000112D2F8B821C2F307429A70026802EB00
:102BC0000112D2F8B821120EDA70026802EB01127B
:102BD000D2F8BC211A71026802EB0112D2F8BC21B2
:102BE000C2F307225A71026802EB0112D2F8BC212B
:102BF000C2F307429A71026802EB0112D2F8BC21BB
:102C0000120EDA7179B90268D36843F02003D360F9
:102C1000002030BC704701F11B04240105682C59C9
:102C2000E408546099E70268136943F020031361D4
:102C3000EEE7436A43F4802343620120704790F833
:102C40002030013BDBB2012B05D9436A43F48023DA
:102C500043620120704702685369194351610020A3
:102C600070477047704770477047704770477047AC
:102C7000704770477047704770472DE9F84F054619
:102C800003685C69D3F804809F68D3F80CB0D3F86C
:102C900010A0D3F8189014F001063BD017F00106ED
:102CA00016D001229A6017F0020F08D117F0040F16
:102CB0000CD117F0080606D04FF4805608E0FFF755
:102CC000D0FF002604E0FFF7CFFF01E04FF40066DD
:102CD00017F4807F0DD02B684FF480729A6017F440
:102CE000007F40F0868017F4806F00F0868046F405
:102CF000005617F4803F0DD02B684FF480329A6055
:102D000017F4003F40F0838017F4802F00F0838099
:102D100046F4004614F0080F07D01BF0100F04D043
:102D200046F400762B681022DA6014F0040F02D00B
:102D30001BF0080F79D114F0020F04D02B68DB6868
:102D400013F0030F78D114F0400F07D01AF0100FD2
:102D500004D046F480662B6810221A6114F0200F0C
:102D600002D01AF0080F6BD114F0100F04D02B68AA
:102D70001B6913F0030F6AD114F4003F02D018F05E
:102D8000100F68D114F4803F02D018F0080F69D1F9
:102D900014F4004F7AD018F0040F74D014F4807F2C
:102DA00004D019F0010F01D046F0010614F4007FA1
:102DB00004D019F0020F01D046F0020614F4806F1F
:102DC00004D019F0040F01D046F0040614F4006F8B
:102DD00059D019F0700956D0B9F1400F65D058D8C4
:102DE000B9F1200F5ED0B9F1300F42D146F0200684
:102DF00044E02846FFF736FF7BE717F4006F02D068
:102E000046F4804675E72846FFF72FFF71E728460E
:102E1000FFF729FF7EE717F4002F02D046F4803633
:102E200078E72846FFF722FF74E72B680822DA606C
:102E30002846FFF71CFF7EE72846FEF759F982E790
:102E40002B6808221A612846FFF713FF8CE72846F3
:102E5000FFF70EFF90E72B6810225A602846FFF715
:102E600009FF8FE72B6808225A602846FFF703FF07
:102E70008EE7B9F1100F01D146F008062A68936970
:102E800023F0700393612B6804225A609EB9BDE859
:102E9000F88FB9F1500F0BD0B9F1600FEED146F4B5
:102EA0008076EBE746F01006E8E746F04006E5E7F7
:102EB00046F08006E2E76B6A1E436E622846FFF723
:102EC000DBFEE4E7074AD36823F4E0631B041B0C32
:102ED000000200F4E060034343F0BF6343F40033B7
:102EE000D360704700ED00E000B5194BDB68C3F319
:102EF0000223C3F1070CBCF1040F28BF4FF0040CF0
:102F000003F1040EBEF1060F18D9033B4FF0FF3E4C
:102F10000EFA0CFC21EA0C0199400EFA03F322EAA6
:102F20000303194300280BDB0901C9B200F160401B
:102F300000F5614080F800135DF804FB0023E5E72D
:102F400000F00F000901C9B2024B1954F4E700BFA9
:102F500000ED00E014ED00E0002807DB00F01F02A8
:102F6000400901239340024A42F82030704700BFD5
:102F700000E100E010B40368D9B210390C4AA2FB9A
:102F8000014212090B4CA25CC2655F2909D923F4E6
:102F90007F7323F0030304338365806D5DF8044B76
:102FA000704723F47F7323F003038365F5E700BFC5
:102FB000ABAAAAAAC0F50008836A826992B9012B5C
:102FC0000AD0022B02D00BB100207047C36A13F065
:102FD000807F28D100207047C36AB3F1C07F24D01E
:102FE00000207047B2F5005F09D0022B25D9032BD2
:102FF00025D1C36A13F0807F23D100207047032BB3
:1030000003D8DFE803F01404140A00207047C36AF1
:1030100013F0807F0DD100207047C36AB3F1C07FE9
:1030200009D000207047012070470120704701201F
:103030007047012070470120704701207047002031
:10304000704701207047000070B50446FFF786F90D
:10305000002C5BD00546022384F83530002384F829
:1030600034302268136823F00103136023681A6860
:1030700012F0010F0AD0FFF771F9431B052BF5D9A8
:1030800020236365032084F8350070BD1A6820484A
:1030900010406168A2680A43E1680A4321690A4353
:1030A00061690A43A1690A43E1690A43216A0A4343
:1030B0000243616A04291ED01A602668756925F0EA
:1030C0000705636A1D43042B07D1A36A1D43E36A06
:1030D0001BB12046FFF770FF90B975612046FFF7DE
:1030E00049FFE26D3F239340836000206065012328
:1030F00084F83530C9E7E16A206B01430A43DBE716
:1031000040236365012084F83500BEE70120BCE759
:103110003F8010F0F0B583B0044600230193724B5A
:103120001D68724BA3FB0535AD0A876D3E68C26D05
:1031300008239340334210D003681A6812F0040F3A
:103140000BD01A6822F004021A60C26D0823934063
:10315000BB60436D43F001034365E26D012393407F
:10316000334209D02268526912F0800F04D0BB604C
:10317000636D43F002036365E26D042393403342C1
:1031800009D02268126812F0020F04D0BB60636D90
:1031900043F004036365E26D10239340334224D06F
:1031A0002268126812F0080F1FD0BB6023681A68EB
:1031B00012F4802F0DD01B6813F4002F04D1236C60
:1031C0009BB12046984710E0A36C73B12046984706
:1031D0000BE01A6812F4807F03D11A6822F008020B
:1031E0001A60236C0BB120469847E26D2023934070
:1031F000334255D02268126812F0100F50D0BB60D5
:1032000094F83530DBB2052B0ED023681A6812F41F
:10321000802F33D01B6813F4002F2AD1636C002B4E
:103220003ED0204698473BE02268136823F01603FF
:1032300013602268536923F080035361236CA3B1A8
:103240002268136823F008031360E26D3F23934064
:10325000BB60012384F83530002384F83430236DBB
:10326000002B3FD0204698473CE0A36C002BE7D1D1
:10327000EBE7E36BA3B12046984711E01A6812F41C
:10328000807F09D11A6822F010021A60012384F8A5
:103290003530002384F83430E36B0BB12046984777
:1032A000636DFBB1636D13F0010F17D0052384F834
:1032B00035302268136823F001031360019B01334A
:1032C0000193AB4204D823681B6813F0010FF5D1BA
:1032D000012384F83530002384F83430E36C0BB1DB
:1032E0002046984703B0F0BD28000020B5814E1B52
:1032F00000230F2B00F2F18070B582B061E0856889
:103300005E000324B44025EA0405CC68B4402C4395
:103310008460456825EA02054C68C4F300129A40AF
:103320002A4342605BE0DC08083450F8246003F074
:10333000070295000F22AA4026EA020E0A69AA4057
:1033400042EA0E0240F824205DE0092200E000225B
:1033500002FA0EF22A430234604D45F82420604AF6
:1033600094686FEA0C0224EA0C054E6816F4801F7C
:1033700001D04CEA04055A4CA560E46802EA040551
:103380004E6816F4001F01D04CEA0405544CE56069
:10339000646802EA04054E6816F4003F01D04CEA66
:1033A00004054F4C6560246822404D6815F4803F49
:1033B00001D04CEA04024A4C226001330F2B00F288
:1033C0008A8001229A400C6804EA020C32EA040462
:1033D000F3D14C6804F00304013C012C8FD94A68F6
:1033E00002F00302032A09D0C4685D000322AA4048
:1033F00024EA02048A68AA402243C2604A6802F0B2
:103400000302022A8FD004684FEA430E032202FA15
:103410000EF224EA02044A6802F0030202FA0EF2F3
:10342000224302604A6812F4403FC6D00022019253
:103430002C4A546C44F480445464526C02F480422C
:103440000192019A9C08A51C244A52F8255003F0C9
:1034500003024FEA820E0F2202FA0EF225EA02055B
:10346000214A90423FF473AF02F58062904222D02D
:1034700002F58062904220D002F5806290421ED018
:1034800002F5806290421CD002F5806290421AD010
:1034900002F58062904218D002F58062904216D008
:1034A00002F58062904214D002F5806290423FF4AF
:1034B0004CAF0A224CE701224AE7022248E70322E6
:1034C00046E7042244E7052242E7062240E70722B6
:1034D0003EE708223CE702B070BD7047003801406B
:1034E000003C014000380240000002400AB1816106
:1034F0007047090481617047436901EA030221EAC8
:10350000030141EA0241816170472DE9F04383B034
:10351000D0F8008001EBC10300EB8303DA6D5B6D33
:103520009A4254D807460C469B1A01EBC10200EBA5
:103530008202926C9A4200D31A4602F103094FEAC2
:10354000990915E006F103094FEA990904EBC4054E
:1035500007EB8505E96C3B7C0093B3B2E2B24046D1
:1035600002F0AFFBEB6C3344EB64EB6D3344EB6583
:1035700008EB441303F510639B699BB24B4512D3D0
:1035800004EBC40207EB8202D16D536D99420AD25B
:103590004BB15B1A04EBC40207EB8202966C9E42AD
:1035A000D0D31E46CEE704EBC40007EB80077A6D4C
:1035B000FB6D9A420FD804F00F040123A340D8F802
:1035C000344824EA0304C8F83448002000E001200D
:1035D00003B0BDE8F0830020FAE770B58AB0002898
:1035E00000F090800546046890F8BD343BB3032397
:1035F00085F8BD34E36B13F4807F01D100232B6188
:10360000286802F079F82C4654F8106BEC460FCC81
:10361000ACE80F000FCCACE80F0094E803008CE896
:1036200003002B1D0ECB304601F0A8FF044658B115
:10363000022385F8BD34012420460AB070BD80F80D
:10364000BC3405F0B7FDD2E70021286802F050FD38
:10365000234616E003EBC30205EB8202012182F848
:103660003D1082F83C30A2F84430002182F840102E
:103670009164D16403EBC30205EB8202516501330F
:10368000DBB269688B42E5D316E004EBC40305EBBB
:103690008303002283F87D2283F87C4283F8802212
:1036A000C3F88822C3F88C2204EBC40305EB830320
:1036B000C3F894220134E4B2A142E6D82C4654F86F
:1036C000106BEC460FCCACE80F000FCCACE80F0051
:1036D00094E803008CE803002B1D0ECB304602F06B
:1036E00067F8044620B1022385F8BD340124A3E71E
:1036F000002385F83830012385F8BD34286802F0AE
:10370000B4FC99E7012497E7026890F8BC34012BD8
:1037100019D010B50446012380F8BC34836A012B0C
:1037200009D0206801F0E2FF206802F090FC002040
:1037300084F8BC0410BD8369012BF2D0936B43F471
:1037400080339363EDE702207047000070B50446B4
:103750000D460068066C00EB411303F530639A6870
:103760002169012911D038498E4256D03DB905EB67
:10377000C50304EB8303D3F89432002B5ED0E9B287
:10378000204605F061FD002070BD12F0080F09D041
:103790002E498E42F7D912F4004FF4D04FF4004274
:1037A0009A60F0E712F0200F02D020229A60EAE738
:1037B00012F0280FE7D125498E4206D912F4004FA6
:1037C00003D04FF400429A60DDE705EBC50204EB3D
:1037D0008202D2F898121B69C3F31203CB1AC2F803
:1037E0009C327DB905EBC50204EB8202D2F894222B
:1037F0006AB105EBC50204EB8202D2F88C120B44CD
:10380000C2F88C32E9B2204605F01EFDBBE704F297
:10381000C442012102F0AEFCF4E712F4004F03D0E1
:103820004FF400429A60AEE712F0200F01D0202240
:103830009A60E9B2204605F007FDA4E704F2C4420D
:10384000002102F097FC9AE70A31544F0A30544F96
:1038500038B5044603681D6C03EB4113D3F8081B0D
:103860000E4A954207D903F5306311F4004F02D098
:103870004FF400429A60204605F0DEFC074B9D4263
:1038800002D92369012B01D0002038BD04F2C442C3
:103890000121206802F06EFCF6E700BF0A30544FA9
:1038A00090F8BC34012B0DD010B50446012380F8EC
:1038B000BC3480F83810006802F0B9FB002084F8AE
:1038C000BC0410BD0220704738B505468C4611F087
:1038D000800F29D101F00F0E0EEBCE04A40004F5E9
:1038E0001E740444211D0EEBCE0E00EB8E0E002044
:1038F0008EF87D020CF00F0C81F800C0CA600B71CD
:103900004A780AB1A1F808C0022B1DD095F8BC3442
:10391000012B1CD0012385F8BC34286802F021F863
:10392000002085F8BC0438BD01F00F0000EBC00199
:10393000890038312944043100EBC00005EB8000D8
:10394000012480F83D40D5E700234B71DEE70220DB
:10395000E9E710B504460A4611F0800F20D101F0C6
:103960000F0000EBC0039B0003F51E732344191DD9
:1039700000EBC00004EB8000002380F87D3202F0F1
:103980000F020A7094F8BC34012B19D0012384F87B
:10399000BC34206802F034F8002084F8BC0410BD68
:1039A00001F00F0000EBC0039B0038332344191DC6
:1039B00000EBC00004EB8000012380F83D30DEE71F
:1039C0000220ECE710B501F00F0404EBC4018900FC
:1039D00001F51E710144043104EBC40C00EB8C0CA6
:1039E000CCF88C22CCF894320023CCF89C328CF8A2
:1039F0007D328CF87C420369012B06D064B9DAB2BF
:103A0000006802F06DF8002010BD04EBC40C00EB60
:103A10008C0CCCF89022F1E7DAB2006802F068F979
:103A2000F1E701F00F0101EBC10100EB8101D1F8D9
:103A30009C02704710B501F00F0404EBC40189002B
:103A400038310144043104EBC40C00EB8C0CCCF88D
:103A50004C20CCF854300023CCF85C3001238CF897
:103A60003D308CF83C400369012B06D064B9DAB2D2
:103A7000006802F035F8002010BD04EBC40C00EB28
:103A80008C0CCCF85020F1E7DAB2006802F030F983
:103A9000F1E738B501F00F054268954239D8044680
:103AA0000B4611F0800F1FD101EBC101890001F518
:103AB0001E710144043103EBC30300EB83030022B6
:103AC00083F87D2201238B700D7094F8BC34012B98
:103AD00021D0012384F8BC34206802F04DFA8DB166
:103AE000002084F8BC0438BD05EBC50189003831DD
:103AF0000144043105EBC50300EB8303012283F885
:103B00003D20DFE704F2C442217C206802F032FB52
:103B1000E6E70120E7E70220E5E701F00F0342684E
:103B2000934231D810B5044611F0800F1ED103EB3B
:103B3000C301890001F51E710144043103EBC30286
:103B400000EB8202002082F87D0200228A700B7056
:103B500094F8BC34012B19D0012384F8BC342068BC
:103B600002F037FA002084F8BC0410BD03EBC30157
:103B7000890038310144043103EBC30200EB8202B7
:103B8000012082F83D00E0E7012070470220ECE7C9
:103B900008B511F0800F0CD101F00F0101EBC1014C
:103BA000890001F51E7101440431006802F02AF811
:103BB00008BD01F00F0101EBC1018900383101445A
:103BC0000431F2E72DE9F04F83B00446056828463A
:103BD00002F08AFA10B103B0BDE8F08F0646206803
:103BE00002F051FA0028F6D005F50067BB68C3F370
:103BF0000D23C4F8FC34206802F045FA10F0020FDF
:103C000004D02268536903F002035361206802F074
:103C10003AFA10F0100F13D02268936923F01003C2
:103C20009361D5F8208008F00F09C8F34343022BB5
:103C30004BD0062B6FD02268936943F01003936139
:103C4000206802F020FA10F4002F76D1206802F0EC
:103C50001AFA10F4802F40F0E080206802F013FA86
:103C60000028C0F26381206802F00DFA10F4006FA2
:103C700009D0BB6813F0010F40F0708122685369CE
:103C800003F400635361206802F0FDF910F4805FD3
:103C900040F06881206802F0F6F910F4005F40F00F
:103CA000B581206802F0EFF910F0080F40F0C681EE
:103CB000206802F0E8F910F0800F00F0D981AB69BC
:103CC00023F08003AB610126C2E147F6F07318EAE6
:103CD000030FB0D04FEA181B4FEAC903019309EB59
:103CE000C90A04EB8A0AC8F30A12DAF88C122846C9
:103CF00002F018F9CBF30A0BDAF88C325B44CAF8FD
:103D00008C32019B4B4404EB8303D3F89C325B441D
:103D1000CAF89C328FE7082204F2C441284602F018
:103D200001F9C8F30A1809EBC90204EB8202D2F8C0
:103D30009C324344C2F89C327DE7206802F0A7F928
:103D40008046B14635E005EB49130122C3F8082B44
:103D500049462046FFF7FAFC3CE005EB49130822F0
:103D6000C3F8082B49462046FFF772FD35E009EB02
:103D7000C90304EB830393F87F32012B41D005EB99
:103D800049130222C3F8082B1AF0200F04D005EBC8
:103D900049132022C3F8082B1AF4005F05D005EB65
:103DA00049134FF40052C3F8082B09F101094FEAF7
:103DB0005808B8F1000F3FF449AF18F0010FF4D0E4
:103DC0005FFA89FB5946206802F071F9824610F0CB
:103DD000010FB8D11AF0080FBFD11AF0100F04D09C
:103DE00005EB49131022C3F8082B1AF0020FCBD0B1
:103DF0006B6913F0800FBAD07B6843F480637B60FB
:103E0000B5E709EBC90304EB8303002283F87F22A3
:103E10005946204605F06AFAB1E7206802F03FF9FA
:103E20008046B14625E05946204605F019FA1AF0B9
:103E3000080F04D005EB49130822C3F808291AF02B
:103E4000100F04D005EB49131022C3F808291AF00B
:103E5000400F04D005EB49134022C3F808291AF09B
:103E6000020F40D11AF0800F5BD109F101094FEA2E
:103E70005808B8F1000F3FF4F0AE18F0010FF4D07D
:103E80005FFA89FB5946206802F01AF9824610F061
:103E9000010FCCD009F00F03012101FA03F27B6B73
:103EA00023EA02037B6305EB4913C3F8081923696E
:103EB0008B42B8D109EBC90304EB8303996CDA6C2C
:103EC0000A44DA64B9F1000FADD109EBC90304EB80
:103ED00083035B6D002BA6D104F2C442012120684C
:103EE00002F048F99FE74946284601F00BFC09EB30
:103EF000C90304EB830393F83F30012B05D005EB96
:103F000049130222C3F80829ACE709EBC90304EB03
:103F10008303002283F83F205946204605F0ECF940
:103F2000EDE749462046FFF7F0FA9EE77B6823F06D
:103F300001037B6094F8F434012B08D0204605F08F
:103F4000CFF92268536903F0004353618BE60021E7
:103F500084F8F414204600F041F9F2E7204605F019
:103F6000A7F98BE67B6823F001037B6010212068B2
:103F700001F0C8FB1AE005EB46134FF67F31C3F89A
:103F80000819D3F8002922F40012C3F80029C3F855
:103F9000081BD3F8002B22F40012C3F8002BD3F82F
:103FA000002B42F00062C3F8002B01366368B34275
:103FB000E1D8FB6943F00113FB61236BDBB1D7F858
:103FC000843043F00B03C7F884307B6C43F00B0361
:103FD0007B64D5F8003823F4FE63C5F8003804F29A
:103FE000C442217C206802F0C5F82268536903F4BA
:103FF000805353614EE67B6943F4005343F02B0337
:104000007B613B6943F00B033B61E2E7206802F010
:10401000A0F8206801F094FCE060266800F0E4FB62
:104020000146227B304601F0EFFA204605F029F9DF
:104030002268536903F40053536132E6204605F0C9
:104040001AF92268536903F00803536130E6013618
:104050006368B3420CD906EBC60304EB830393F801
:104060007F32012BF3D1F1B22046FFF791FDEEE74D
:10407000206802F008F810F4801F27D1206802F0B1
:1040800002F810F4001F5BD0012328E001366368BA
:10409000B3421DD905EB4613D3F8002906EBC6033E
:1040A00004EB830393F84030012BEFD1002AEDDAC3
:1040B00006EBC60304EB8303012283F83F2066F07E
:1040C0007F01C9B22046FFF763FDDFE70126DEE787
:1040D0002268536903F480135361CFE701336268A8
:1040E0009A4228D905EB4312D2F8001B03EBC30216
:1040F00004EB820292F88022012AEFD10029EDDA46
:1041000001F48031D4F8FC2402F001029142E5D19F
:1041100003EBC30204EB8202012182F87F12AA6939
:1041200042F08002AA616A6912F0800FD6D17B68E2
:1041300043F400737B602268536903F400135361F6
:10414000206801F0A0FF10F0804F10D1206801F02E
:104150009AFF10F0040F3FF43EAD23685D6815F040
:10416000040F0DD1226853682B43536033E520467A
:1041700005F0C8F82268536903F080435361E5E70E
:10418000204605F0C5F8EDE710B40468606A31B95F
:1041900040EA0240A06200205DF8044B70478C4664
:1041A000A36A00EB1340002308E003F1400104EB95
:1041B0008101496800EB11400133DBB20CF1FF31A2
:1041C0008B42F2D340EA02400CF13F0104EB810143
:1041D0004860E0E7036859620020704770470000BC
:1041E000002800F0E08170B582B00446036813F047
:1041F000010F3BD09F4B9B6803F00C03042B2CD08A
:104200009C4B9B6803F00C03082B21D06368B3F52B
:10421000803F4FD0B3F5A02F52D0964B1A6822F4AE
:1042200080321A601A6822F480221A606368002BB8
:1042300050D0FEF793F805468E4B1B6813F4003FF1
:1042400014D1FEF78BF8401B6428F5D90320B1E1A7
:10425000884B5B6813F4800FD8D0864B1B6813F42F
:10426000003F03D06368002B00F09F81236813F0A8
:10427000020F54D07F4B9B6813F00C0F3ED07D4B48
:104280009B6803F00C03082B33D0E368002B68D045
:10429000794B01221A60FEF761F80546754B1B68E1
:1042A00013F0020F54D1FEF759F8401B0228F5D93C
:1042B00003207FE16F4A136843F480331360B5E74E
:1042C0006C4B1A6842F480221A601A6842F48032F9
:1042D0001A60ABE7FEF742F80546664B1B6813F41D
:1042E000003FC3D0FEF73AF8401B6428F5D90320FD
:1042F00060E1604B5B6813F4800FC6D15D4B1B68B7
:1043000013F0020F03D0E368012B40F05081594AAB
:10431000136823F0F803216943EAC103136023689B
:1043200013F0080F42D063696BB3534B0122C3F8FB
:10433000802EFEF713F805464E4B5B6F13F0020F0D
:1043400034D1FEF70BF8401B0228F5D9032031E1E8
:10435000484A136823F0F803216943EAC103136054
:10436000DDE7454B00221A60FDF7F8FF0546414B9B
:104370001B6813F0020FD2D0FDF7F0FF401B02289C
:10438000F5D9032016E13C4B0022C3F8802EFDF73F
:10439000E5FF0546374B5B6F13F0020F06D0FDF7C4
:1043A000DDFF401B0228F5D9032003E1236813F049
:1043B000040F77D02F4B1B6C13F0805F33D1002399
:1043C00001932C4B1A6C42F080521A641B6C03F060
:1043D00080530193019B0125284B1B6813F4807FB8
:1043E00023D0A368012B34D0052B38D0214B1A6F72
:1043F00022F001021A671A6F22F004021A67A368FA
:10440000002B3DD0FDF7AAFF06461A4B1B6F13F099
:10441000020F46D1FDF7A2FF801B41F2883398427C
:10442000F3D90320C6E00025D6E7144A136843F405
:1044300080731360FDF792FF0646104B1B6813F460
:10444000807FCED1FDF78AFF801B0228F5D903209B
:10445000B0E0084A136F43F001031367CFE7054B41
:104460001A6F42F004021A671A6F42F001021A67CB
:10447000C5E700BF0038024000004742007000401E
:10448000FDF76CFF0646524B1B6F13F0020F08D06E
:10449000FDF764FF801B41F288339842F3D9032073
:1044A00088E0EDB9A369002B00F08380484A926848
:1044B00002F00C02082A51D0022B17D0454B0022E3
:1044C0001A66FDF74BFF0446414B1B6813F0007F53
:1044D00042D0FDF743FF001B0228F5D9032069E015
:1044E0003B4A136C23F080531364DBE7394B002203
:1044F0001A66FDF733FF0546354B1B6813F0007F46
:1045000006D0FDF72BFF401B0228F5D9032051E010
:10451000E369226A1343626A43EA8213A26A520879
:10452000013A43EA0243E26A43EA0263284A5360DB
:10453000284B01221A66FDF711FF0446244B1B6825
:1045400013F0007F06D1FDF709FF001B0228F5D903
:1045500003202FE000202DE000202BE0012B2BD0AA
:104560001B4B5B6803F48001E269914226D103F0A2
:104570003F02216A8A4223D1616A47F6C0721A401B
:10458000B2EB811F1ED103F44031A26A5208013AF6
:10459000B1EB024F18D103F07063E26AB3EB026F24
:1045A00014D1002006E001207047012002E0012024
:1045B00000E0002002B070BD0120FBE70120F9E718
:1045C0000120F7E70120F5E70120F3E70120F1E7FB
:1045D0000038024000004742014B0122DA64704774
:1045E0000000474208B5254B9B6803F00C03042BE1
:1045F0003FD0082B3FD1214B5A6802F03F025B6845
:1046000013F4800F12D01D4B5968C1F388111C4858
:104610000023A1FB0001FBF7AFFF184B5B68C3F35E
:10462000014301335B00B0FBF3F025E0134B596805
:10463000C1F3881C4FEA4C11B1EB0C006EEB0E0E6F
:104640004FEA8E1343EA90638101091A63EB0E036C
:10465000DB0043EA5173C90011EB0C0C43F100037A
:10466000990200234FEA8C2041EA9C51FBF784FF1A
:10467000D3E7034800E0034808BD00BF003802400C
:10468000001BB7000024F400002800F09B8070B5E8
:104690000D4604464F4B1B6803F00F038B4208D2B4
:1046A000CBB24C4A1370136803F00F038B4240F0F7
:1046B0008B80236813F0020F17D013F0040F04D07F
:1046C000454A936843F4E0539360236813F0080F5E
:1046D00004D0414A936843F4604393603E4A936830
:1046E00023F0F003A1680B439360236813F0010FDC
:1046F00032D06368012B21D09A1E012A25D9364A6F
:10470000126812F0020F61D033498A6822F0030266
:1047100013438B60FDF722FE06462F4B9B6803F088
:104720000C036268B3EB820F16D0FDF717FE801BF7
:1047300041F288339842F0D9032042E0264A1268B9
:1047400012F4003FE0D101203BE0234A126812F04E
:10475000007FD9D1012034E01E4B1B6803F00F030A
:10476000AB4207D9EAB21B4B1A701B6803F00F0368
:10477000AB422DD1236813F0040F06D0164A93687C
:1047800023F4E053E1680B439360236813F0080FB0
:1047900007D0114A936823F46043216943EAC103B7
:1047A0009360FFF71FFF0C4B9B68C3F303130B4A87
:1047B000D35CD8400A4B18600A4B1868FDF772FBAF
:1047C000002070BD012070470120FAE70120F8E7C2
:1047D0000120F6E7003C024000380240A8F500083E
:1047E0002800002030000020014B1868704700BFEF
:1047F0002800002008B5FFF7F7FF044B9B68C3F3C0
:104800008223034AD35CD84008BD00BF0038024071
:10481000B8F5000808B5FFF7E7FF044B9B68C3F342
:104820004233034AD35CD84008BD00BF0038024081
:10483000B8F500080F2303600B4B9A6802F00302DF
:1048400042609A6802F0F00282609A6802F4E052D4
:10485000C2609B68DB0803F4E0530361034B1B68F1
:1048600003F00F030B60704700380240003C024029
:104870007047000008B5064BDB6813F0800F00D1CD
:1048800008BDFFF7F5FF024B80229A73F8E700BFDF
:10489000003802402DE9F04782B0054688461746A9
:1048A0001E46FDF75BFD0A9B1B1A03EB0609FDF78D
:1048B00055FD82462B4B1B68C3F3CB3309FB03F337
:1048C00001932B689C6838EA04030CBF4FF0010C7D
:1048D0004FF0000CBC4540D0B6F1FF3FF1D0FDF7E2
:1048E0003DFDA0EB0A0048450AD2B9F1000F07D000
:1048F000019A02B14A46019B013B01939146E0E7D0
:104900002A68536823F0E00353606B68B3F5827F35
:104910000BD0AB6AB3F5005F14D0012385F851309A
:10492000002385F85030032018E0AB68B3F5004F42
:1049300002D0B3F5806FECD12A68136823F04003EE
:104940001360E6E72A68136823F4005313602A68AB
:10495000136843F400531360DFE7002002B0BDE8A2
:10496000F08700BF2800002010B584B00446164B25
:104970001868164BA3FB0030400D4FF47A7303FB0D
:1049800000F003906368B3F5827F0BD0039BBBB14B
:10499000039B013B039323689B6813F0800FF5D1C1
:1049A00000200EE000920B46002280212046FFF7F7
:1049B00071FF30B1636D43F020036365032000E0B5
:1049C000002004B010BD00BF28000020819F5E16AB
:1049D00000285AD010B50446436A33B94368B3F58A
:1049E000827F05D00023C36102E00023036143619D
:1049F0000023A36294F85130002B40D0022384F8A6
:104A000051302268136823F040031360636803F495
:104A10008273A26802F404421343E26802F4006263
:104A20001343226902F002021343626902F0010299
:104A30001343A26902F400721343E26902F03802E0
:104A40001343226A02F080021343A26A02F4005266
:104A5000216813430B60638B03F00403626A02F066
:104A60001002216813434B602268D36923F400636A
:104A7000D36100206065012384F8513010BD84F8B3
:104A800050302046FDF7A0F9B8E7012070472DE926
:104A9000F04383B01D4690F85030012B00F0D180D8
:104AA000044688469146012380F85030FDF756FCB5
:104AB000074694F85160F6B2012E40F0AF80B8F18D
:104AC000000F00F0AC80B9F1000F00F0A8800323C4
:104AD00084F8513000236365C4F83080A4F8349022
:104AE000A4F83690A363A387E38763642364A36871
:104AF000B3F5004F1ED023681A6812F0400F03D19F
:104B00001A6842F040021A60E368B3F5006F1CD0E7
:104B1000636813B1B9F1010F52D1226B2368127887
:104B20001A73236B01332363E38E9BB2013B9BB269
:104B3000E38645E02268136823F04003136022688F
:104B4000136843F480431360D5E7636813B1B9F188
:104B5000010F16D1226B23681288DA60236B0233AF
:104B60002363E38E9BB2013B9BB2E38609E0FDF732
:104B7000F5FBC01BA84202D3B5F1FF3F59D1002D70
:104B800059D0E38E9BB2002B33D023689A6812F081
:104B9000020FECD0226B1288DA60236B023323639E
:104BA000E38E9BB2013B9BB2E386EAE7FDF7D6FBBF
:104BB000C01BA84202D3B5F1FF3F3ED1002D3ED02D
:104BC000E38E9BB2ABB123689A6812F0020FEDD06E
:104BD000226B12781A73236B01332363B4F836C047
:104BE0001FFA8CFC0CF1FF3C1FFA8CFCA4F836C0B9
:104BF000E6E73A4629462046FFF7B6FE08B12023ED
:104C00006365A36833B901932368DA6801929B68EE
:104C10000193019B636D13B9002600E00226012376
:104C200084F85130002384F85030304603B0BDE89A
:104C3000F0830326F3E70326F1E70326EFE70326D5
:104C4000EDE70226F1E7000030B4036A23F0010328
:104C50000362036A4268846924F073040D682C437C
:104C600023F0020C8B6843EA0C03104DA84203D0DA
:104C700005F58065A84205D123F00803CD682B43D4
:104C800023F00403094DA84203D005F58065A8422E
:104C900005D122F440724D692A438D692A4342604E
:104CA00084614A684263036230BC7047000001407F
:104CB00030B4036A23F480730362036A4268C469F0
:104CC00024F0730C0C6844EA0C0523F400738C6820
:104CD00043EA0423114CA04203D004F58064A042AF
:104CE00006D123F40063CC6843EA042323F48063F1
:104CF0000A4CA04203D004F58064A04207D122F4FC
:104D000040524C6942EA04128C6942EA0412426041
:104D1000C5614A68C263036230BC7047000001404D
:104D200030B4036A23F480530362036A4468C2699F
:104D300022F4E6420D6842EA052223F400538D680E
:104D400043EA0533094DA84203D005F58065A84222
:104D500004D124F480444D6944EA85144460C2615E
:104D60004A680264036230BC704700BF0000014023
:104D700010B4036A046A24F001040462846924F014
:104D8000F00C4CEA021223F00A030B438261036227
:104D90005DF8044B704710B4046A24F010040462F8
:104DA0008469036A24F4704C4CEA023223F0A003B5
:104DB00043EA0113826103625DF8044B7047836824
:104DC00023F070030B4343F0070383607047000038
:104DD00090F83D30DBB2012B37D1022380F83D3013
:104DE0000268D36843F00103D3600368194A934211
:104DF00020D0B3F1804F1DD0A2F57C42934219D050
:104E000002F58062934215D002F58062934211D080
:104E100002F5784293420DD002F57052934209D0C8
:104E2000A2F59432934205D01A6842F001021A604A
:104E3000002070479A6802F00702062A07D01A6815
:104E400042F001021A6000207047012070470020E4
:104E5000704700BF000001407047704770477047BF
:104E6000704710B5044603681A6912F0020F11D09A
:104E7000DA6812F0020F0DD06FF002021A610123FE
:104E8000037703689B6913F0030F70D0FFF7E6FF09
:104E90000023237723681A6912F0040F12D0DA680E
:104EA00012F0040F0ED06FF004021A610223237770
:104EB00023689B6913F4407F5FD02046FFF7CEFF45
:104EC0000023237723681A6912F0080F12D0DA68DA
:104ED00012F0080F0ED06FF008021A610423237736
:104EE0002368DB6913F0030F4ED02046FFF7B6FFAF
:104EF0000023237723681A6912F0100F12D0DA68A2
:104F000012F0100F0ED06FF010021A6108232377F1
:104F10002368DB6913F4407F3DD02046FFF79EFFF6
:104F20000023237723681A6912F0010F03D0DA688F
:104F300012F0010F36D123681A6912F0800F03D0E6
:104F4000DA6812F0800F34D123681A6912F0400F2A
:104F500003D0DA6812F0400F32D123681A6912F0D8
:104F6000200F03D0DA6812F0200F30D110BDFFF708
:104F700074FF2046FFF773FF8AE72046FFF76DFFB7
:104F80002046FFF76CFF9BE72046FFF766FF2046B1
:104F9000FFF765FFACE72046FFF75FFF2046FFF70E
:104FA0005EFFBDE76FF001021A612046FCF762FE6A
:104FB000C1E76FF080021A61204600F0FEF9C3E7F6
:104FC0006FF040021A612046FFF74AFFC5E76FF015
:104FD00020021A61204600F0EFF9C7E70368304A63
:104FE000904212D0B0F1804F0FD0A2F57C42904297
:104FF0000BD002F58062904207D002F580629042A9
:1050000003D002F57842904203D123F070034A683E
:105010001343234A90422AD0B0F1804F27D0A2F503
:105020007C42904223D002F5806290421FD002F56C
:10503000806290421BD002F57842904217D002F570
:105040007052904213D002F5806290420FD002F568
:10505000806290420BD0A2F59832904207D002F5C0
:105060008062904203D002F58062904203D123F423
:105070004073CA68134323F080034A6913430360F3
:105080008B68C3620B688362054B984203D003F5BB
:105090008063984201D10B69036301234361704728
:1050A0000000014040B310B5044690F83D30F3B124
:1050B000022384F83D30214651F8040BFFF78EFFA0
:1050C000012384F8463084F83E3084F83F3084F879
:1050D000403084F8413084F8423084F8433084F81A
:1050E000443084F8453084F83D30002010BD80F80D
:1050F0003C30FCF7C1FFDBE70120704740B310B53F
:10510000044690F83D30F3B1022384F83D30214647
:1051100051F8040BFFF762FF012384F8463084F84E
:105120003E3084F83F3084F8403084F8413084F8D1
:10513000423084F8433084F8443084F8453084F8B1
:105140003D30002010BD80F83C30FFF785FEDBE7E6
:105150000120704730B4036A23F010030362036A2E
:105160004468826922F4E6420D6842EA052223F08F
:1051700020038D6843EA0513114DA84203D005F5BD
:105180008065A84206D123F08003CD6843EA051369
:1051900023F040030A4DA84203D005F58065A842DC
:1051A00007D124F440644D6944EA85048D6944EADA
:1051B0008504446082614A688263036230BC704740
:1051C0000000014038B590F83C30012B66D0044611
:1051D0000D46012380F83C300C2A5AD8DFE802F053
:1051E000075959591B5959593059595944000068A0
:1051F000FFF72AFD2268936943F008039361226850
:10520000936923F0040393612268936929690B432E
:10521000936100203EE00068FFF79CFF22689369DD
:1052200043F4006393612268936923F4806393617C
:1052300022689369296943EA01239361002029E0E8
:105240000068FFF735FD2268D36943F00803D36196
:105250002268D36923F00403D3612268D3692969E2
:105260000B43D361002015E00068FFF759FD226869
:10527000D36943F40063D3612268D36923F4806364
:10528000D3612268D369296943EA0123D3610020ED
:1052900000E00120002384F83C3038BD0220FCE708
:1052A00010B4846824F47F4C42EA03220A4342EAA1
:1052B0000C0282605DF8044B704790F83C30012B83
:1052C00078D010B50446012380F83C30022380F8E2
:1052D0003D300268936823F47F4323F077039360A3
:1052E0000B68602B4CD029D8402B54D00CD9502BB4
:1052F00022D1CA6849680068FFF73AFD502120684A
:10530000FFF75DFD002005E0202B0DD009D9302BE3
:105310000AD00120012384F83D30002384F83C307A
:1053200010BD0BB1102B05D119462068FFF747FDC2
:105330000020EFE70120EDE70120EBE7B3F5805F08
:1053400034D0B3F5005F0CD1CB684A688968006837
:10535000FFF7A6FF2268936843F480439360002020
:10536000D8E7702B24D1CB684A6889680068FFF7BA
:1053700097FF2268936843F0770393600020C9E7A2
:10538000CA6849680068FFF706FD60212068FFF7DA
:1053900016FD0020BEE7CA6849680068FFF7E8FC10
:1053A00040212068FFF70BFD0020B3E70020B1E7A4
:1053B0000120AFE7022070477047704738B50446B8
:1053C0000268136923F44053C1680B431361836877
:1053D0000269134342691343C2691A430168CB68E7
:1053E00023F4164323F00C031343CB600268536984
:1053F00023F4407381690B4353610368314A93423C
:1054000006D002F58062934202D0FFF7F3F901E083
:10541000FFF700FAE369B3F5004F29D00021031824
:1054200049411B1841F10001C90041EA5371DB00F9
:10543000181863684FEA83024FEA937341F1000141
:10544000FBF79AF8204DA5FB00325109642303FBBA
:1054500011031B013233A5FB03235B0903F0F002A8
:1054600002EB011203F00F03216813448B6038BD77
:105470000023021843EB0301121841F10001C90097
:1054800041EA5271D200101841F10001626892188D
:105490005B41FBF771F80C4DA5FB00325109642309
:1054A00003FB1103DB003233A5FB03235B095A0026
:1054B00002F4F87202EB011203F0070321681344AF
:1054C0008B60D4E7001001401F85EB5158B310B535
:1054D000044690F83D300BB3242384F83D30226815
:1054E000D36823F40053D3602046FFF767FF226898
:1054F000136923F4904313612268536923F02A034C
:1055000053612268D36843F40053D36000202064C1
:10551000202384F83D3084F83E3010BD80F83C30C4
:10552000FCF754FED8E701207047000082B000234A
:105530000193019B01330193019A0F4B9A4215D8B5
:105540000369002BF5DA00230193036943F001039B
:105550000361019B01330193019A074B9A4208D8DA
:10556000036913F0010FF4D1002000E0032002B022
:1055700070470320FBE700BF400D030084B010B567
:10558000044603A880E80E00089B012B1FD1A36BE3
:1055900023F48033A363E36823F4840323F04003FC
:1055A000E360E36823F44013E3600F9B012B09D011
:1055B0002046FFF7BBFF069B012B1BD0BDE8104028
:1055C00004B07047E36843F48013E360F0E7E368F6
:1055D00043F04003E3602046FFF7A8FF0C9B23B98C
:1055E000A36B43F48033A363E5E7A36B23F4803319
:1055F000A363E0E7A36843F00603A360A36843F056
:105600002003A360DAE70000022A0AD00921C26859
:1056100022F47052C260C36843EA8123C360002051
:105620007047234B0B44234A93422FD9224B0B4400
:10563000224A93422CD9A1F57403A3F51053204AB2
:10564000934227D9A1F18373A3F5E7431D4A9342FF
:1056500022D31D4B0B441D4A93421FD91C4B0B44B4
:105660001C4A93421CD31C4B0B441C4A934219D333
:10567000A1F1B773A3F55853194A934214D3194BA8
:105680000B44194A934211D20721C0E70F21BEE70C
:105690000E21BCE70D21BAE70C21B8E70B21B6E7D4
:1056A0000A21B4E70921B2E70821B0E70621AEE7F5
:1056B000405327FFFF340C00401E1BFF3F420F00EA
:1056C0007F4F120020D6130060B6E5FE5FE31600A0
:1056D00000D3CEFE40771B00C05BB3FEC09121001B
:1056E00020753800E05459FEE09C4100836843F087
:1056F0000103836000207047836823F00103836007
:105700000020704782B000230193019B0133019375
:10571000019A0F4B9A4215D80369002BF5DA002342
:105720000193890141F020010161019B0133019343
:10573000019A074B9A4208D8036913F0200FF4D15D
:10574000002000E0032002B070470320FBE700BF09
:10575000400D030082B000230193019B01330193AC
:10576000019A0E4B9A4213D80369002BF5DA0023F5
:10577000019310230361019B01330193019A074BAD
:105780009A4208D8036913F0100FF4D1002000E00A
:10579000032002B070470320FBE700BF400D030069
:1057A000D0F800381943C0F80018002070470000F6
:1057B00084B02DE9F041044607A880E80E000023DC
:1057C00006E003F1400204EB820200215160013344
:1057D0000E2BF6D9119F27BBD4F8043843F00203EF
:1057E000C4F80438A36B43F40013A363A36B23F43E
:1057F0000023A363A36B23F48023A3630023C4F8D3
:10580000003E04F50065D4F80038C4F800380C9B5D
:10581000012B14D1099B6BB900212046FFF7C0FF73
:1058200011E0A36B23F40013A363A36B43F40023E1
:10583000A363E3E701212046FFF7B2FF03E0032162
:105840002046FFF7ADFF10212046FFF75BFF8046A3
:1058500008B14FF001082046FFF77CFF08B14FF078
:10586000010800232B616B61EB610AE0C3B94FF0C3
:105870000060C2F8000900220A614FF67F328A6098
:1058800001330799994210D904EB431202F51061D4
:10589000D2F800090028E9DB0020C2F80009EAE795
:1058A0004FF09040C2F80009E5E700230AE0C3B1D9
:1058B0004FF0904CC2F800CB002202614FF67F32CD
:1058C00082600133994211D904EB431202F5306032
:1058D000D2F8006B002EEADB4FF0000CC2F800CBD0
:1058E000EAE74FF0006CC2F800CBE5E72B6923F440
:1058F00080732B610023A3616FF0804363610A9B77
:105900001BB9A36943F01003A361A2690B4B1343B6
:10591000A3610D9B1BB1A36943F00803A361012F91
:1059200004D04046BDE8F04104B07047A36943F09D
:10593000804343F00403A361F3E700BF00383C80D9
:10594000D0F8083813F0060307D0022B07D0062B37
:1059500001D00F20704702207047002070470220BE
:10596000704710B591F800C04B78012B23D000F59B
:10597000006ED0F81C380CF00F040122A24043EA5C
:105980000243C0F81C3800EB4C10D0F8003B13F475
:10599000004F0ED1D0F8003BCA68C2F30A02097961
:1059A00042EA8142134343F0805343F40043C0F87A
:1059B000003B002010BDD0F81C280CF00F0E03FA9D
:1059C0000EF39BB21343C0F81C3800EB4C10D0F818
:1059D000003913F4004FECD1D0F80039CA68C2F393
:1059E0000A02097942EA814242EA8C5C43EA0C03EA
:1059F00043F0805343F40043C0F80039D9E7000076
:105A000030B40B784A78012A26D000EB4313D3F840
:105A1000002B002A52DBD0F83C480A7802F00F0233
:105A20004FF0010C0CFA02F224EA0242C0F83C28C2
:105A3000D0F81C28097801F00F010CFA01FC22EAC9
:105A40000C42C0F81C28D3F8001B234A0A40C3F8B4
:105A5000002B002030BC704700EB4313D3F8002923
:105A6000002A1EDBD0F83C580A7802F00F0201240D
:105A700004FA02F292B225EA0202C0F83C28D0F8F9
:105A80001C28097801F00F018C40A4B222EA04041A
:105A9000C0F81C48D3F80019104A0A40C3F800297E
:105AA000D7E7D3F8002942F00062C3F80029D3F801
:105AB000002942F08042C3F80029D3E7D3F8002B35
:105AC00042F00062C3F8002BD3F8002B42F0804272
:105AD000C3F8002B9FE700BF0078F3EF007833ECAA
:105AE00070B40B784C78012C29D000EB431000F5F2
