:020000040800F2
:1000000000000320991B0008391900084119000855
:1000100043190008451900084719000800000000AE
:10002000000000000000000000000000C1610008A6
:100030004919000800000000616200080D5F000817
:10004000E91B0008E91B0008E91B0008E91B000880
:10005000E91B0008E91B00084B190008E91B000810
:10006000E91B0008E91B0008E91B0008E91B000860
:10007000E91B0008E91B0008E91B0008E91B000850
:10008000E91B0008E91B0008E91B0008E91B000840
:1000900055190008E91B0008E91B0008E91B0008C6
:1000A000E91B000865190008E91B0008E91B0008A6
:1000B000E91B0008E91B0008E91B0008E91B000810
:1000C000E91B0008E91B0008E91B0008E91B000800
:1000D000E91B000875190008E91B0008E91B000866
:1000E000E91B0008E91B0008E91B0008E91B0008E0
:1000F000E91B0008E91B0008E91B0008E91B0008D0
:10010000E91B0008E91B0008E91B0008E91B0008BF
:10011000E91B0008E91B0008E91B0008E91B0008AF
:10012000E91B0008E91B00087D190008E91B00080D
:10013000E91B0008E91B0008E91B0008E91B00088F
:10014000E91B0008E91B0008E91B00088D190008DD
:10015000E91B0008E91B0008E91B0008E91B00086F
:10016000E91B0008E91B0008E91B0008E91B00085F
:10017000E91B0008E91B0008E91B0008000000005B
:10018000E91B0008E91B0008E91B0008E91B00083F
:10019000E91B0008E91B0008E91B0008E91B00082F
:0C01A0000000000000000000E91B000847
:1001C00010B5054C237833B9044B13B10448AFF391
:1001D00000800123237010BDD00A00200000000021
:1001E00078E1000808B5034B1BB103490348AFF39E
:1001F000008008BD00000000D40A002078E100085B
:1002000053B94AB9002908BF00281CBF4FF0FF317D
:100210004FF0FF3000F074B9ADF1080C6DE904CE79
:1002200000F006F8DDF804E0DDE9022304B07047D1
:100230002DE9F047089D04468E46002B4DD18A4299
:10024000944669D9B2FA82F252B101FA02F3C2F1CC
:10025000200120FA01F10CFA02FC41EA030E94405D
:100260004FEA1C48210CBEFBF8F61FFA8CF708FB7E
:1002700016E341EA034306FB07F199420AD91CEB56
:10028000030306F1FF3080F01F81994240F21C8188
:10029000023E63445B1AA4B2B3FBF8F008FB1033D0
:1002A00044EA034400FB07F7A7420AD91CEB040405
:1002B00000F1FF3380F00A81A74240F207816444D5
:1002C000023840EA0640E41B00261DB1D44000235A
:1002D000C5E900433146BDE8F0878B4209D9002DBE
:1002E00000F0EF800026C5E9000130463146BDE848
:1002F000F087B3FA83F6002E4AD18B4202D38242B2
:1003000000F2F980841A61EB030301209E46002D60
:10031000E0D0C5E9004EDDE702B9FFDEB2FA82F2B5
:10032000002A40F09280A1EB0C014FEA1C471FFA13
:100330008CFE0126200CB1FBF7F307FB131140EAFA
:1003400001410EFB03F0884208D91CEB010103F1C7
:10035000FF3802D2884200F2CB804346091AA4B289
:10036000B1FBF7F007FB101144EA01440EFB00FE5D
:10037000A64508D91CEB040400F1FF3102D2A645C2
:1003800000F2BB800846A4EB0E0440EA03409CE761
:10039000C6F12007B34022FA07FC4CEA030C20FA0E
:1003A00007F401FA06F31C43F9404FEA1C4900FA2E
:1003B00006F3B1FBF9F8200C1FFA8CFE09FB1811AB
:1003C00040EA014108FB0EF0884202FA06F20BD91E
:1003D0001CEB010108F1FF3A80F08880884240F26E
:1003E0008580A8F102086144091AA4B2B1FBF9F0B2
:1003F00009FB101144EA014100FB0EFE8E4508D9AD
:100400001CEB010100F1FF346CD28E456AD9023831
:10041000614440EA0840A0FB0294A1EB0E01A14216
:10042000C846A64656D353D05DB1B3EB080261EB84
:100430000E0101FA07F722FA06F3F1401F43C5E95E
:10044000007100263146BDE8F087C2F12003D84094
:100450000CFA02FC21FA03F3914001434FEA1C47D6
:100460001FFA8CFEB3FBF7F007FB10360B0C43EAC8
:10047000064300FB0EF69E4204FA02F408D91CEB78
:10048000030300F1FF382FD29E422DD90238634476
:100490009B1B89B2B3FBF7F607FB163341EA034116
:1004A00006FB0EF38B4208D91CEB010106F1FF3865
:1004B00016D28B4214D9023E6144C91A46EA00465C
:1004C00038E72E46284605E70646E3E61846F8E6EE
:1004D0004B45A9D2B9EB020864EB0C0E0138A3E737
:1004E0004646EAE7204694E74046D1E7D0467BE718
:1004F000023B614432E7304609E76444023842E790
:10050000704700BF844641EA000313F003036DD136
:10051000403A41D351F8043B40F8043B51F8043BC6
:1005200040F8043B51F8043B40F8043B51F8043BCD
:1005300040F8043B51F8043B40F8043B51F8043BBD
:1005400040F8043B51F8043B40F8043B51F8043BAD
:1005500040F8043B51F8043B40F8043B51F8043B9D
:1005600040F8043B51F8043B40F8043B51F8043B8D
:1005700040F8043B51F8043B40F8043B51F8043B7D
:1005800040F8043B51F8043B40F8043B51F8043B6D
:1005900040F8043B403ABDD2303211D351F8043B0D
:1005A00040F8043B51F8043B40F8043B51F8043B4D
:1005B00040F8043B51F8043B40F8043B103AEDD2BC
:1005C0000C3205D351F8043B40F8043B043AF9D20D
:1005D000043208D0D2071CBF11F8013B00F8013BE0
:1005E00001D30B8803806046704700BF082A13D3ED
:1005F0008B078DD010F003038AD0C3F10403D21A05
:10060000DB071CBF11F8013B00F8013B80D331F838
:10061000023B20F8023B7BE7043AD9D3013A11F8B8
:10062000013B00F8013BF9D20B7803704B78437023
:100630008B78837060467047000000000000000067
:1006400090F800F06DE9024520F007016FF0000C12
:1006500010F0070491F820F040F049804FF00004BA
:100660006FF00700D1E9002391F840F000F1080095
:1006700082FA4CF2A4FA8CF283FA4CF3A2FA8CF3CD
:100680004BBBD1E9022382FA4CF200F10800A4FA34
:100690008CF283FA4CF3A2FA8CF3E3B9D1E9042388
:1006A00082FA4CF200F10800A4FA8CF283FA4CF3BF
:1006B000A2FA8CF37BB9D1E9062301F1200182FA79
:1006C0004CF200F10800A4FA8CF283FA4CF3A2FA7F
:1006D0008CF3002BC6D0002A04BF04301A4612BA8D
:1006E000B2FA82F2FDE8024500EBD2007047D1E990
:1006F000002304F00305C4F100004FEAC50514F01F
:10070000040F91F840F00CFA05F562EA05021CBFEF
:1007100063EA050362464FF00004A9E70000000009
:1007200001F0FF01102A2BDB10F0070F08D010F8A2
:10073000013B013A8B422DD010F0070F42B3F6D1A6
:10074000F0B441EA012141EA014122F007047FF0BF
:1007500000070023F0E80256083C85EA010586EA16
:10076000010685FA47F5A3FA87F586FA47F6A5FA52
:1007700087F68EB9EED1F0BC01F0FF0102F007025E
:1007800032B110F8013B013A83EA010313B1F8D109
:100790000020704701387047002D06BF35460338EA
:1007A000073815F0010F07D1013015F4807F02BF23
:1007B000013015F4C03F0130F0BC0138704700BF74
:1007C00081F0004102E000BF83F0004330B54FEA02
:1007D00041044FEA430594EA050F08BF90EA020F6F
:1007E0001FBF54EA000C55EA020C7FEA645C7FEA02
:1007F000655C00F0E2804FEA5454D4EB5555B8BF25
:100800006D420CDD2C4480EA020281EA030382EA95
:10081000000083EA010180EA020281EA0303362D27
:1008200088BF30BD11F0004F4FEA01314FF4801CFA
:100830004CEA113102D0404261EB410113F0004F0C
:100840004FEA03334CEA133302D0524263EB4303C3
:1008500094EA050F00F0A780A4F10104D5F1200E61
:100860000DDB02FA0EFC22FA05F2801841F10001BC
:1008700003FA0EF2801843FA05F359410EE0A5F190
:1008800020050EF1200E012A03FA0EFC28BF4CF0C1
:10089000020C43FA05F3C01851EBE37101F0004577
:1008A00007D54FF0000EDCF1000C7EEB00006EEB84
:1008B0000101B1F5801F1BD3B1F5001F0CD349080E
:1008C0005FEA30004FEA3C0C04F101044FEA445265
:1008D00012F5800F80F09A80BCF1004F08BF5FEAEC
:1008E000500C50F1000041EB045141EA050130BDCC
:1008F0005FEA4C0C404141EB0101013C28BFB1F5DE
:10090000801FE9D291F0000F04BF01460020B1FA28
:1009100081F308BF2033A3F10B03B3F120020CDAFB
:100920000C3208DD02F1140CC2F10C0201FA0CF0D9
:1009300021FA02F10CE002F11402D8BFC2F1200C3E
:1009400001FA02F120FA0CFCDCBF41EA0C019040F4
:10095000E41AA2BF01EB0451294330BD6FEA04043D
:100960001F3C1CDA0C340EDC04F11404C4F1200228
:1009700020FA04F001FA02F340EA030021FA04F33A
:1009800045EA030130BDC4F10C04C4F1200220FA91
:1009900002F001FA04F340EA0300294630BD21FACF
:1009A00004F0294630BD94F0000F83F4801306BF95
:1009B00081F480110134013D4EE77FEA645C18BF89
:1009C0007FEA655C29D094EA050F08BF90EA020F20
:1009D00005D054EA000C04BF1946104630BD91EA18
:1009E000030F1EBF0021002030BD5FEA545C05D11B
:1009F0004000494128BF41F0004130BD14F580045A
:100A00003CBF01F5801130BD01F0004545F0FE41CD
:100A100041F470014FF0000030BD7FEA645C1ABF02
:100A2000194610467FEA655C1CBF0B46024650EA39
:100A3000013406BF52EA033591EA030F41F4002165
:100A400030BD00BF90F0000F04BF0021704730B5EB
:100A50004FF4806404F132044FF000054FF00001C0
:100A600050E700BF90F0000F04BF0021704730B581
:100A70004FF4806404F1320410F0004548BF404256
:100A80004FF000013EE700BF42004FEAE2014FEAAB
:100A900031014FEA02701FBF12F07F4393F07F4F86
:100AA00081F06051704732F07F4208BF704793F089
:100AB0007F4F04BF41F40021704730B54FF460749C
:100AC00001F0004521F000411CE700BF50EA01029F
:100AD00008BF704730B54FF000050AE050EA010248
:100AE00008BF704730B511F0004502D5404261EBB8
:100AF00041014FF4806404F132045FEA915C3FF4F9
:100B0000D8AE4FF003025FEADC0C18BF03325FEA95
:100B1000DC0C18BF033202EBDC02C2F1200300FA46
:100B200003FC20FA02F001FA03FE40EA0E0021FA6B
:100B300002F11444BDE600BF70B54FF0FF0C4CF459
:100B4000E06C1CEA11541DBF1CEA135594EA0C0F0B
:100B500095EA0C0F00F0DEF82C4481EA030621EA46
:100B60004C5123EA4C5350EA013518BF52EA033581
:100B700041F4801143F4801338D0A0FB02CE4FF033
:100B80000005E1FB02E506F00042E0FB03E54FF063
:100B90000006E1FB03569CF0000F18BF4EF0010E5B
:100BA000A4F1FF04B6F5007F64F5407404D25FEA57
:100BB0004E0E6D4146EB060642EAC62141EA55510A
:100BC0004FEAC52040EA5E504FEACE2EB4F1FD0C4C
:100BD00088BFBCF5E06F1ED8BEF1004F08BF5FEACA
:100BE000500E50F1000041EB045170BD06F000467C
:100BF00046EA010140EA020081EA0301B4EB5C0429
:100C0000C2BFD4EB0C0541EA045170BD41F4801120
:100C10004FF0000E013C00F3AB8014F1360FDEBF45
:100C2000002001F0004170BDC4F10004203C35DA21
:100C30000C341BDC04F11404C4F1200500FA05F3A4
:100C400020FA04F001FA05F240EA020001F0004245
:100C500021F0004110EBD37021FA04F642EB0601BB
:100C60005EEA430E08BF20EAD37070BDC4F10C04E5
:100C7000C4F1200500FA04F320FA05F001FA04F2A9
:100C800040EA020001F0004110EBD37041F1000195
:100C90005EEA430E08BF20EAD37070BDC4F12005A0
:100CA00000FA05F24EEA020E20FA04F301FA05F208
:100CB00043EA020321FA04F001F0004121FA04F2B0
:100CC00020EA020000EBD3705EEA430E08BF20EA80
:100CD000D37070BD94F0000F0FD101F000464000BA
:100CE00041EB010111F4801F08BF013CF7D041EA3C
:100CF000060195F0000F18BF704703F00046520040
:100D000043EB030313F4801F08BF013DF7D043EA10
:100D10000603704794EA0C0F0CEA135518BF95EAC6
:100D20000C0F0CD050EA410618BF52EA4306D1D14D
:100D300081EA030101F000414FF0000070BD50EA6C
:100D4000410606BF1046194652EA430619D094EAF6
:100D50000C0F02D150EA013613D195EA0C0F05D1E0
:100D600052EA03361CBF104619460AD181EA030134
:100D700001F0004141F0FE4141F470014FF00000EC
:100D800070BD41F0FE4141F4780170BD70B54FF087
:100D9000FF0C4CF4E06C1CEA11541DBF1CEA135507
:100DA00094EA0C0F95EA0C0F00F0A7F8A4EB0504E9
:100DB00081EA030E52EA03354FEA013100F08880E0
:100DC0004FEA03334FF0805545EA131343EA1263A9
:100DD0004FEA022245EA111545EA10654FEA00265E
:100DE0000EF000419D4208BF964244F1FD0404F517
:100DF000407402D25B084FEA3202B61A65EB030573
:100E00005B084FEA32024FF480104FF4002CB6EB2F
:100E1000020E75EB030E22BFB61A754640EA0C00AF
:100E20005B084FEA3202B6EB020E75EB030E22BFEF
:100E3000B61A754640EA5C005B084FEA3202B6EB30
:100E4000020E75EB030E22BFB61A754640EA9C00EF
:100E50005B084FEA3202B6EB020E75EB030E22BFBF
:100E6000B61A754640EADC0055EA060E18D04FEA7D
:100E7000051545EA16754FEA06164FEAC30343EA1D
:100E800052734FEAC2025FEA1C1CC0D111F4801FEA
:100E90000BD141EA00014FF000004FF0004CB6E7E3
:100EA00011F4801F04BF01430020B4F1FD0C88BF82
:100EB000BCF5E06F3FF6AFAEB5EB030C04BFB6EB8D
:100EC000020C5FEA500C50F1000041EB045170BD80
:100ED0000EF0004E4EEA113114EB5C04C2BFD4EBAD
:100EE0000C0541EA045170BD41F480114FF0000E31
:100EF000013C90E645EA060E8DE60CEA135594EAAD
:100F00000C0F08BF95EA0C0F3FF43BAF94EA0C0FAF
:100F10000AD150EA01347FF434AF95EA0C0F7FF424
:100F200025AF104619462CE795EA0C0F06D152EA78
:100F300003353FF4FDAE1046194622E750EA41065C
:100F400018BF52EA43067FF4C5AE50EA41047FF46D
:100F50000DAF52EA43057FF4EBAE12E74FF0FF3CD2
:100F600006E000BF4FF0010C02E000BF4FF0010CA3
:100F70004DF804CD4FEA410C7FEA6C5C4FEA430C1C
:100F800018BF7FEA6C5C1BD001B050EA410C0CBF6B
:100F900052EA430C91EA030F02BF90EA020F0020CD
:100FA000704710F1000F91EA030F58BF994208BF34
:100FB00090422CBFD8176FEAE37040F001007047F1
:100FC0004FEA410C7FEA6C5C02D150EA013C07D148
:100FD0004FEA430C7FEA6C5CD6D152EA033CD3D093
:100FE0005DF8040B704700BF8446104662468C468D
:100FF0001946634600E000BF01B5FFF7B7FF0028C0
:1010000048BF10F1000F01BD4DF808EDFFF7F4FFE8
:101010000CBF012000205DF808FB00BF4DF808ED73
:10102000FFF7EAFF34BF012000205DF808FB00BF96
:101030004DF808EDFFF7E0FF94BF012000205DF8B8
:1010400008FB00BF4DF808EDFFF7CEFF94BF01206D
:1010500000205DF808FB00BF4DF808EDFFF7C4FF66
:1010600034BF012000205DF808FB00BF4FEA410CAF
:101070007FEA6C5C02D150EA013C0AD14FEA430C92
:101080007FEA6C5C02D152EA033C02D14FF00000CF
:1010900070474FF0010070474FEA410212F500120D
:1010A00015D211D56FF47873B3EB625212D94FEAAF
:1010B000C12343F0004343EA505311F0004F23FA99
:1010C00002F018BF404270474FF00000704750EAEE
:1010D000013005D111F0004008BF6FF000407047AB
:1010E0004FF00000704700BF00B58BB001AB03AA02
:1010F000002100F02BFF039BA3F20122022A2DD82E
:10110000013BDBB2174A1370174903EB830042001F
:10111000881831F902C0A0F808C09DF804E09DF8D5
:1011200005C04CEA0E2C21F802C09DF806201202E0
:1011300012B29DF807C042EA0C0242809DF80820D6
:10114000120212B29DF809C042EA0C0282809DF898
:101150000A0003EB83035A008B1898710BB05DF8FB
:1011600004FB00BFEC0A0020F00A002070470000DA
:1011700008B5012908D0022901D041B108BD0146B6
:10118000054801F0E5FBF9E7034B9861F6E7000439
:10119000014B9861F2E700BF00180240032826D8EF
:1011A000DFE800F002060B22114B00225A61704763
:1011B0000F4B4FF0FF325A6170470D4A5369DB43C2
:1011C0005361704702212046FFF7D2FF4FF4C870E9
:1011D00004F034FF6400A4B2064B1A784FF4807315
:1011E00013419C42EEDD10BD10B50124F4E77047B9
:1011F000001802400000002000285FD003460029AC
:101200005CD030B590F800C042784CEA022CCCF3A8
:101210000A0CA1F800C042788078D20842EA401255
:10122000C2F30A0EA1F802E09A78D878920942EA4D
:101230008002187942EA8022C2F30A028A80187971
:101240005C79400840EAC410C0F30A00C8805C79A9
:10125000C4F301148C725C79A409CC729C79DD7999
:1012600044EA05248C811C7A5D7A44EA0524CC8109
:101270009C7ADD7A44EA05240C821C7B8C745C7BAE
:10128000CC749C7BDD7B44EA05248C821C7C5B7CDB
:1012900044EA03231CB20B81ACF5806CA1F800C0BA
:1012A000AEF5806EA1F802E0A2F580628A80A0F51A
:1012B0008060C880A4F580630B8130BD704700005A
:1012C00008B503482422811800F0CAF808BD00BF01
:1012D000280B002000B583B02F4B1B681A6812F052
:1012E000200F09D0002200921A6800925B680093D8
:1012F000009B03B05DF804FB284A126812F0100F3F
:10130000F7D0002201921A6801925B680193019B59
:10131000234B1B681A6812F4002F1DD11A6822F0A3
:1013200001021A601E4802685368C3F124039BB28D
:101330001C490B8024215160116841F40021116087
:1013400001680A6842F001020A60122BD1D11649E5
:101350001648FFF751FFCCE71A6822F001021A6025
:101360000F4908684368C3F124030E4A13802423FD
:1013700043600F48036C23F40023036409680B687F
:1013800043F001030B601388122BB2D106490948C0
:10139000FFF732FFADE700BF400D00200010014015
:1013A000E00C0020700B0020100B0020280B002008
:1013B000006402404C0B002008B52DED028B9FED20
:1013C000118ADFED118AF0EE480AB0EE680A0F4A82
:1013D00000210F4800F078F8F0EE480AB0EE680AF5
:1013E0000C4A00210C4800F06FF8F2EE040AB0EE4F
:1013F000480A0A4A00210A4800F066F8BDEC028B50
:1014000008BD00BF0000FA4400007A46100000202A
:10141000C40B00201C000020140C0020040000203D
:10142000740B002010B58AB00122089200230693A5
:101430000792009301930293039305930493074C3F
:101440006946204600F0B8FC204600F051FD02211C
:10145000204600F020FE0AB010BD00BF640C002042
:1014600010B4164B1B685C6944F040045C61DC6896
:1014700044F01004DC60124B1C68236823F0010365
:10148000236003E01C6824F001041C600C4B1B6803
:101490001C6814F0010FF5D10A4C9C60D8601961EA
:1014A0005A601A6842F480221A60054B1A68136861
:1014B00043F0010313605DF8044B7047400D0020BA
:1014C000E00C002004100140C0B1BAB101701168F5
:1014D0004160516881609268C26080ED040AC0ED8D
:1014E000050A00228261C2610264C2638263826271
:1014F00042630263C262C264826442647047000055
:1015000008B50D480D4B036003234360002383603F
:10151000C3604FF4102202614FF40012426103765F
:1015200043768376C3760377437700F09FFB00B959
:1015300008BD00F01FF9FBE7640C002000640040C8
:1015400010B588B000230393049305930693079383
:101550000268184B9A4201D008B010BD00240194D3
:1015600003F5EA331A6C42F000721A641A6C02F046
:1015700000720192019A02941A6B42F008021A63F7
:101580001B6B03F008030293029B032303930222C5
:10159000049206930923079303A9074801F0D4F89E
:1015A00022460521142000F0CBFE142000F000FF9D
:1015B000D2E700BF00640040000C024000B583B0D9
:1015C00000220192094B196B41F4800119631B6BD6
:1015D00003F480030193019B05213A2000F0B0FE43
:1015E0003A2000F0E5FE03B05DF804FB003802404D
:1015F00008B5012004F022FDFBE708B506F0F2FA79
:10160000012004F01BFD0320FFF7C8FD0120FFF7B8
:10161000C5FDF5E7704700207047000008B5074A90
:101620000021074804F0ACFC064B1860064A002174
:10163000064804F0A5FC064B186008BDA8E10008A8
:10164000FB1500088C0C0020CCE10008F115000807
:10165000900C0020F0B58DB00024079408940994F4
:101660000A940B940194394B1A6B42F002021A63EC
:101670001A6B02F002020192019A02941A6B42F074
:1016800008021A631A6B02F008020292029A03948B
:101690001A6B42F001021A631A6B02F00102039204
:1016A000039A04941A6B42F480721A631A6B02F460
:1016B00080720492049A05941A6B42F080021A63B5
:1016C0001A6B02F080020592059A06941A6B42F09A
:1016D00040021A631B6B03F040030693069B1C4FEA
:1016E00001223C21384601F02DF91A4E22464FF4D2
:1016F000FF71304601F026F9012507954FF4881354
:1017000008930223099307A9134801F01DF83C230D
:101710000793089509940A9407A9384601F014F82C
:101720004FF4FF7307931123089309950A9407A9AF
:10173000304601F009F822460521062000F000FE9F
:10174000062000F035FE0DB0F0BD00BF00380240AD
:10175000001C0240001802400020024008B5026848
:10176000034B9A4200D008BD00F05AFAFBE700BFD5
:101770000000014072B6FEE700B595B030220021AE
:1017800008A806F0D9FC002303930493059306935D
:1017900007930193214A116C41F080511164126C3E
:1017A00002F080520192019A02931D4B1A6842F492
:1017B00040421A601B6803F440430293029B0123DA
:1017C00008934FF48033099302230E934FF4800261
:1017D0000F9206221092A8221192129307231393BC
:1017E00008A801F037FFA8B90F230393022304933D
:1017F000002305934FF4A05306934FF480530793AF
:10180000052103A802F07AF930B902F01FF915B0EA
:101810005DF804FBFFF7AEFFFFF7ACFF00380240B6
:101820000070004008B500F0E1F9FFF7A5FFFFF7F1
:1018300011FFFFF7C3FE00F019F9FFF761FEFFF794
:101840003FFDFFF7EFFDFFF7B7FDFFF78FFC04F05B
:1018500069FBFFF7E3FE04F077FBFEE700B583B01A
:10186000002200920D4B596C41F480415964596C2F
:1018700001F48041009100990192196C41F080516E
:1018800019641B6C03F080530193019B0F216FF0CF
:10189000010000F055FD03B05DF804FB0038024084
:1018A00030B589B00546002401941E4B5A6C42F0B5
:1018B00001025A645B6C03F001030193019B02A9CE
:1018C00003A802F0F1F902F0DFF943001648A0FB8B
:1018D00003239B0C013B1548154A026040F2E73296
:1018E000C260436004618460846102F079FB044655
:1018F00010B1204609B030BD0C4802F007FA04468A
:101900000028F6D1192000F053FD0F2D01D9012434
:10191000EFE700222946192000F012FD054B1D605B
:10192000E7E700BF0038024083DE1B43940C002031
:10193000000001403000002008B502F0D5F9FEE7B4
:10194000FEE7FEE7FEE7FEE7704708B5012001F07D
:1019500009F808BD08B5024800F0BBFB08BD00BF90
:10196000640C002008B5024802F018FA08BD00BF58
:10197000940C002008B5FFF7ADFC08BD08B502487F
:1019800000F0F4FD08BD00BFE00C002008B50248DF
:1019900001F052FB08BD00BFC86B0020012070475A
:1019A00008B506F09FFB162303604FF0FF3008BD1B
:1019B00008B54FF0FF31FFF7F3FFFEE770B50C46B7
:1019C0001646002506E0AFF30080214601F8010B22
:1019D00001350C46B542F6DB304670BD70B50C469D
:1019E0001646002504E014F8010BAFF30080013522
:1019F000B542F8DB304670BD4FF0FF3070474FF412
:101A000000534B6000207047012070470020704752
:101A100010B503460C4A0D490D48006840B10C480A
:101A200000680344521A934206D8094A136010BD55
:101A30000748084C0460F2E706F054FB0C230360EF
:101A40004FF0FF30F3E700BF000003200004000068
:101A5000DC0C002040730020034AD2F8883043F4A5
:101A60007003C2F88830704700ED00E008B50B48FD
:101A70000B4B03600B4B436000238360C3604FF448
:101A8000806202610C2242618361C36102F05EFBED
:101A900000B908BDFFF76EFEFBE700BF400D002058
:101AA00000100140A08601002DE9F04389B0002319
:101AB00003930493059306930793026803F180430D
:101AC00003F588339A4202D009B0BDE8F08304469A
:101AD0000025019503F594335A6C42F010025A64C4
:101AE0005A6C02F010020192019A02951A6B42F0B0
:101AF00002021A631B6B03F002030293029B802312
:101B00000393122304934FF00109CDF814904FF082
:101B10000308CDF81880072707971C4E03A9304605
:101B200000F012FE4023039302230493CDF8149097
:101B3000CDF81880079703A9304600F005FE144839
:101B4000144B03604FF0006343608560C5604FF441
:101B500080630361456185614FF48073C3614FF415
:101B600040330362456200F09BFC58B9084BA36305
:101B70009C6300220521252000F0E2FB252000F0D7
:101B800017FCA1E7FFF7F6FDF0E700BF00040240F5
:101B9000E00C002040640240DFF834D00D480E49CC
:101BA0000E4A002302E0D458C4500433C4188C42B7
:101BB000F9D30B4A0B4C002301E013600432A2421C
:101BC000FBD3FFF749FF06F093FAFFF72BFE7047B0
:101BD0000000032000000020D00A00205CE600087E
:101BE000D00A00203C730020FEE7000008B50B4B34
:101BF0001A6842F400721A601A6842F480621A602D
:101C00001A6842F480721A60032000F087FB0F20EC
:101C1000FFF746FEFFF722FE002008BD003C024011
:101C2000034A1168034B1B780B441360704700BFD5
:101C3000840D00202C000020014B1868704700BF65
:101C4000840D002038B50446FFF7F6FF0546B4F1D1
:101C5000FF3F02D0044B1B781C44FFF7EDFF401BF5
:101C6000A042FAD338BD00BF2C000020002800F0AD
:101C7000A18038B5044690F82030D3B122681368AB
:101C800043F001031360FFF7D7FF054623685A6846
:101C900012F0010F10D1FFF7CFFF401B0A28F5D932
:101CA000636A43F400336362052384F82030012023
:101CB00038BDFFF745FCE1E71A6822F002021A601E
:101CC000FFF7BAFF054623685A6812F0020F0DD0DD
:101CD000FFF7B2FF401B0A28F5D9636A43F40033CB
:101CE0006362052384F820300120E1E7227E012A87
:101CF0003DD01A6822F080021A60637E012B3BD02F
:101D00002268136823F040031360A37E012B39D0AF
:101D10002268136823F020031360E37E012B37D081
:101D20002268136843F010031360237F012B35D022
:101D30002268136823F008031360637F012B33D0FC
:101D40002268136823F004031360A368E268134356
:101D500022691343626913436268013A216813439D
:101D6000CB6100206062012384F82030A0E71A686C
:101D700042F080021A60C0E72268136843F0400313
:101D80001360C2E72268136843F020031360C4E7BE
:101D90002268136823F010031360C6E722681368F3
:101DA00043F008031360C8E72268136843F0040394
:101DB0001360CAE70120704790F82030013BDBB286
:101DC000012B05D9436A43F4802343620120704705
:101DD00030B5464BD3F8002242F00102C3F800228E
:101DE000D3F8002222F47C52C3F80022D3F8002258
:101DF000486A42EA0022C3F800224A6902F01F0240
:101E0000012000FA02F2D3F81C026FEA020C20EA69
:101E10000200C3F81C02CB69C3B9344BD3F80C02DF
:101E20000CEA0000C3F80C028C884869CD6844EACB
:101E30000544483043F830408C68088840EA044044
:101E40004C6904F1480E03EBCE035860CB69012BBB
:101E50001ED08B69002B33D12448D0F804320CEA11
:101E60000303C0F804320B698BBB2048D0F814324E
:101E70000CEA0303C0F814320B6A012B2ED01B4A64
:101E8000D2F8003223F00103C2F80032002030BD46
:101E9000164BD3F80C021043C3F80C028C88486927
:101EA0000D6844EA0544483043F8304088894C695D
:101EB0008D6840EA0540483403EBC4035860C8E726
:101EC0000A48D0F804321343C0F80432CBE707487D
:101ED000D0F814321343C0F81432CDE70349D1F8D7
:101EE0001C321A43C1F81C22C9E700BF006400403D
:101EF00070B5044690F82050EDB2012D06D0436A2B
:101F000043F4002343620125284670BD022380F874
:101F100020300268136823F001031360FFF78CFE82
:101F2000064623685B6813F0010F0CD0FFF784FEB0
:101F3000831B0A2BF5D9636A43F4003363620523DC
:101F400084F82030E0E700256562DDE790F820C0E6
:101F50000CF1FF3C5FFA8CFCBCF1010F00F29580A4
:101F600030B451B90468E46814F0030F10D1436A27
:101F700043F400134362012077E00468246914F0FD
:101F8000030F05D1436A43F40013436201206CE060
:101F900001F11B04240105682C5904F00404946029
:101FA000002C64D101F11B04240105682C59640D37
:101FB0001460046801F11B0C4FEA0C1C54F80C402F
:101FC00004F00204D46004686444646804F00F04FC
:101FD0001461046864446468C4F307249461046869
:101FE00064446468240C5461026802EB0112D2F864
:101FF000B8211A70026802EB0112D2F8B821C2F3BC
:1020000007225A70026802EB0112D2F8B821C2F31B
:1020100007429A70026802EB0112D2F8B821120E40
:10202000DA70026802EB0112D2F8BC211A71026860
:1020300002EB0112D2F8BC21C2F307225A710268E6
:1020400002EB0112D2F8BC21C2F307429A71026876
:1020500002EB0112D2F8BC21120EDA7179B90268D2
:10206000D36843F02003D360002030BC704701F1F7
:102070001B04240105682C59E408546099E70268A0
:10208000136943F020031361EEE7436A43F48023AE
:1020900043620120704790F82030013BDBB2012BF6
:1020A00005D9436A43F480234362012070470268E4
:1020B000536919435161002070477047704770475A
:1020C0007047704770477047704770477047704758
:1020D00070472DE9F84F054603685C69D3F8048022
:1020E0009F68D3F80CB0D3F810A0D3F8189014F070
:1020F00001063BD017F0010616D001229A6017F0B6
:10210000020F08D117F0040F0CD117F0080606D003
:102110004FF4805608E0FFF7D0FF002604E0FFF7F9
:10212000CFFF01E04FF4006617F4807F0DD02B68DD
:102130004FF480729A6017F4007F40F0868017F4A5
:10214000806F00F0868046F4005617F4803F0DD073
:102150002B684FF480329A6017F4003F40F0838080
:1021600017F4802F00F0838046F4004614F0080F27
:1021700007D01BF0100F04D046F400762B68102215
:10218000DA6014F0040F02D01BF0080F79D114F0BC
:10219000020F04D02B68DB6813F0030F78D114F022
:1021A000400F07D01AF0100F04D046F480662B6859
:1021B00010221A6114F0200F02D01AF0080F6BD110
:1021C00014F0100F04D02B681B6913F0030F6AD1B1
:1021D00014F4003F02D018F0100F68D114F4803FBF
:1021E00002D018F0080F69D114F4004F7AD018F01B
:1021F000040F74D014F4807F04D019F0010F01D0C3
:1022000046F0010614F4007F04D019F0020F01D04B
:1022100046F0020614F4806F04D019F0040F01D0C8
:1022200046F0040614F4006F59D019F0700956D026
:10223000B9F1400F65D058D8B9F1200F5ED0B9F18F
:10224000300F42D146F0200644E02846FFF736FF23
:102250007BE717F4006F02D046F4804675E7284606
:10226000FFF72FFF71E72846FFF729FF7EE717F4F6
:10227000002F02D046F4803678E72846FFF722FF89
:1022800074E72B680822DA602846FFF71CFF7EE718
:102290002846FEF729FF82E72B6808221A612846A4
:1022A000FFF713FF8CE72846FFF70EFF90E72B6838
:1022B00010225A602846FFF709FF8FE72B68082293
:1022C0005A602846FFF703FF8EE7B9F1100F01D1DE
:1022D00046F008062A68936923F0700393612B681F
:1022E00004225A609EB9BDE8F88FB9F1500F0BD0A7
:1022F000B9F1600FEED146F48076EBE746F01006B8
:10230000E8E746F04006E5E746F08006E2E76B6A5C
:102310001E436E622846FFF7DBFEE4E7074AD368F8
:1023200023F4E0631B041B0C000200F4E060034391
:1023300043F0BF6343F40033D360704700ED00E027
:1023400000B5194BDB68C3F30223C3F1070CBCF1E2
:10235000040F28BF4FF0040C03F1040EBEF1060F6A
:1023600018D9033B4FF0FF3E0EFA0CFC21EA0C019A
:1023700099400EFA03F322EA0303194300280BDB0A
:102380000901C9B200F1604000F5614080F8001316
:102390005DF804FB0023E5E700F00F000901C9B276
:1023A000024B1954F4E700BF00ED00E014ED00E02B
:1023B000002807DB00F01F02400901239340024A76
:1023C00042F82030704700BF00E100E010B403681D
:1023D000D9B210390C4AA2FB014212090B4CA25C83
:1023E000C2655F2909D923F47F7323F00303043303
:1023F0008365806D5DF8044B704723F47F7323F091
:1024000003038365F5E700BFABAAAAAA08E20008A8
:10241000836A826992B9012B0AD0022B02D00BB1D8
:1024200000207047C36A13F0807F28D100207047D6
:10243000C36AB3F1C07F24D000207047B2F5005FBB
:1024400009D0022B25D9032B25D1C36A13F0807F35
:1024500023D100207047032B03D8DFE803F01404D6
:10246000140A00207047C36A13F0807F0DD100204A
:102470007047C36AB3F1C07F09D0002070470120C4
:1024800070470120704701207047012070470120EC
:1024900070470120704700207047012070470000FE
:1024A00070B50446FFF7C8FB002C5BD0054602233D
:1024B00084F83530002384F834302268136823F020
:1024C0000103136023681A6812F0010F0AD0FFF7A6
:1024D000B3FB431B052BF5D920236365032084F848
:1024E000350070BD1A68204810406168A2680A4330
:1024F000E1680A4321690A4361690A43A1690A4301
:10250000E1690A43216A0A430243616A04291ED031
:102510001A602668756925F00705636A1D43042B58
:1025200007D1A36A1D43E36A1BB12046FFF770FF82
:1025300090B975612046FFF749FFE26D3F23934054
:10254000836000206065012384F83530C9E7E16AC3
:10255000206B01430A43DBE740236365012084F8D5
:102560003500BEE70120BCE73F8010F0F0B583B036
:10257000044600230193724B1D68724BA3FB053583
:10258000AD0A876D3E68C26D08239340334210D078
:1025900003681A6812F0040F0BD01A6822F00402C4
:1025A0001A60C26D08239340BB60436D43F0010382
:1025B0004365E26D01239340334209D0226852699A
:1025C00012F0800F04D0BB60636D43F002036365BB
:1025D000E26D04239340334209D02268126812F05E
:1025E000020F04D0BB60636D43F004036365E26DCA
:1025F00010239340334224D02268126812F0080F4F
:102600001FD0BB6023681A6812F4802F0DD01B689E
:1026100013F4002F04D1236C9BB12046984710E09F
:10262000A36C73B1204698470BE01A6812F4807FC0
:1026300003D11A6822F008021A60236C0BB12046FD
:102640009847E26D20239340334255D022681268A8
:1026500012F0100F50D0BB6094F83530DBB2052B70
:102660000ED023681A6812F4802F33D01B6813F43D
:10267000002F2AD1636C002B3ED0204698473BE0C8
:102680002268136823F0160313602268536923F04D
:1026900080035361236CA3B12268136823F00803FD
:1026A0001360E26D3F239340BB60012384F8353013
:1026B000002384F83430236D002B3FD02046984708
:1026C0003CE0A36C002BE7D1EBE7E36BA3B1204622
:1026D000984711E01A6812F4807F09D11A6822F035
:1026E00010021A60012384F83530002384F8343056
:1026F000E36B0BB120469847636DFBB1636D13F03C
:10270000010F17D0052384F835302268136823F0B1
:1027100001031360019B01330193AB4204D823688A
:102720001B6813F0010FF5D1012384F83530002325
:1027300084F83430E36C0BB12046984703B0F0BD09
:1027400028000020B5814E1B00230F2B00F2F180E2
:1027500070B582B061E085685E000324B44025EA6C
:102760000405CC68B4402C438460456825EA020522
:102770004C68C4F300129A402A4342605BE0DC08D4
:10278000083450F8246003F0070295000F22AA4095
:1027900026EA020E0A69AA4042EA0E0240F8242004
:1027A0005DE0092200E0002202FA0EF22A43023420
:1027B000604D45F82420604A94686FEA0C0224EAD0
:1027C0000C054E6816F4801F01D04CEA04055A4CE3
:1027D000A560E46802EA04054E6816F4001F01D003
:1027E0004CEA0405544CE560646802EA04054E684E
:1027F00016F4003F01D04CEA04054F4C6560246894
:1028000022404D6815F4803F01D04CEA04024A4C46
:10281000226001330F2B00F28A8001229A400C685B
:1028200004EA020C32EA0404F3D14C6804F0030415
:10283000013C012C8FD94A6802F00302032A09D017
:10284000C4685D000322AA4024EA02048A68AA4000
:102850002243C2604A6802F00302022A8FD0046851
:102860004FEA430E032202FA0EF224EA02044A68F7
:1028700002F0030202FA0EF2224302604A6812F4E6
:10288000403FC6D0002201922C4A546C44F480444C
:102890005464526C02F480420192019A9C08A51C77
:1028A000244A52F8255003F003024FEA820E0F2209
:1028B00002FA0EF225EA0205214A90423FF473AF74
:1028C00002F58062904222D002F58062904220D0D0
:1028D00002F5806290421ED002F5806290421CD0C8
:1028E00002F5806290421AD002F58062904218D0C0
:1028F00002F58062904216D002F58062904214D0B8
:1029000002F5806290423FF44CAF0A224CE701226C
:102910004AE7022248E7032246E7042244E7052269
:1029200042E7062240E707223EE708223CE702B0E2
:1029300070BD704700380140003C01400038024043
:10294000000002400AB1816170470904816170474B
:10295000436901EA030221EA030141EA024181617C
:102960007047704708B5054B5B69034200D108BD4D
:10297000024B5861FFF7F5FFF9E700BF003C01404B
:102980002DE9F04383B0D0F8008001EBC10300EBE8
:102990008303DA6D5B6D9A4254D807460C469B1A46
:1029A00001EBC10200EB8202926C9A4200D31A46FC
:1029B00002F103094FEA990915E006F103094FEA0C
:1029C000990904EBC40507EB8505E96C3B7C009392
:1029D000B3B2E2B2404601F0B4FFEB6C3344EB64B7
:1029E000EB6D3344EB6508EB441303F510639B690F
:1029F0009BB24B4512D304EBC40207EB8202D16DAC
:102A0000536D99420AD24BB15B1A04EBC40207EB37
:102A10008202966C9E42D0D31E46CEE704EBC400E1
:102A200007EB80077A6DFB6D9A420FD804F00F0414
:102A30000123A340D8F8344824EA0304C8F83448F2
:102A4000002000E0012003B0BDE8F0830020FAE799
:102A500070B58AB0002800F090800546046890F8B0
:102A6000BD343BB3032385F8BD34E36B13F4807F9F
:102A700001D100232B61286801F07EFC2C4654F81C
:102A8000106BEC460FCCACE80F000FCCACE80F009D
:102A900094E803008CE803002B1D0ECB304601F0B8
:102AA000ADFB044658B1022385F8BD34012420460D
:102AB0000AB070BD80F8BC3405F0BCF9D2E7002143
:102AC000286802F055F9234616E003EBC30205EB34
:102AD0008202012182F83D1082F83C30A2F8443095
:102AE000002182F840109164D16403EBC30205EB2E
:102AF000820251650133DBB269688B42E5D316E08F
:102B000004EBC40305EB8303002283F87D2283F8E2
:102B10007C4283F88022C3F88822C3F88C2204EB1D
:102B2000C40305EB8303C3F894220134E4B2A14249
:102B3000E6D82C4654F8106BEC460FCCACE80F00EE
:102B40000FCCACE80F0094E803008CE803002B1DC9
:102B50000ECB304601F06CFC044620B1022385F810
:102B6000BD340124A3E7002385F83830012385F81C
:102B7000BD34286802F0B9F899E7012497E70268A4
:102B800090F8BC34012B19D010B50446012380F80D
:102B9000BC34836A012B09D0206801F0E7FB206870
:102BA00002F095F8002084F8BC0410BD8369012B65
:102BB000F2D0936B43F480339363EDE702207047C8
:102BC00070B504460D460068066C00EB411303F532
:102BD00030639A682169012911D038498E4256D054
:102BE0003DB905EBC50304EB8303D3F89432002B06
:102BF0005ED0E9B2204605F067F9002070BD12F002
:102C0000080F09D02E498E42F7D912F4004FF4D0A4
:102C10004FF400429A60F0E712F0200F02D0202219
:102C20009A60EAE712F0280FE7D125498E4206D9CB
:102C300012F4004F03D04FF400429A60DDE705EB39
:102C4000C50204EB8202D2F898121B69C3F3120387
:102C5000CB1AC2F89C327DB905EBC50204EB8202A7
:102C6000D2F894226AB105EBC50204EB8202D2F8D5
:102C70008C120B44C2F88C32E9B2204605F024F9DC
:102C8000BBE704F2C442012102F0B4F8F4E712F405
:102C9000004F03D04FF400429A60AEE712F0200FCD
:102CA00001D020229A60E9B2204605F00DF9A4E790
:102CB00004F2C442002102F09DF89AE70A31544F11
:102CC0000A30544F38B5044603681D6C03EB4113BA
:102CD000D3F8081B0E4A954207D903F5306311F467
:102CE000004F02D04FF400429A60204605F0E4F80D
:102CF000074B9D4202D92369012B01D0002038BD2A
:102D000004F2C4420121206802F074F8F6E700BF23
:102D10000A30544F90F8BC34012B0DD010B5044646
:102D2000012380F8BC3480F83810006801F0BFFF40
:102D3000002084F8BC0410BD0220704738B5054659
:102D40008C4611F0800F29D101F00F0E0EEBCE044E
:102D5000A40004F51E740444211D0EEBCE0E00EBFE
:102D60008E0E00208EF87D020CF00F0C81F800C052
:102D7000CA600B714A780AB1A1F808C0022B1DD0B5
:102D800095F8BC34012B1CD0012385F8BC3428688D
:102D900001F027FC002085F8BC0438BD01F00F00CD
:102DA00000EBC001890038312944043100EBC00038
:102DB00005EB8000012480F83D40D5E700234B71EE
:102DC000DEE70220E9E710B504460A4611F0800F5D
:102DD00020D101F00F0000EBC0039B0003F51E7330
:102DE0002344191D00EBC00004EB8000002380F891
:102DF0007D3202F00F020A7094F8BC34012B19D016
:102E0000012384F8BC34206801F03AFC002084F8E7
:102E1000BC0410BD01F00F0000EBC0039B00383371
:102E20002344191D00EBC00004EB8000012380F84F
:102E30003D30DEE70220ECE710B501F00F0404EBB3
:102E4000C401890001F51E710144043104EBC40C76
:102E500000EB8C0CCCF88C22CCF894320023CCF80C
:102E60009C328CF87D328CF87C420369012B06D0B1
:102E700064B9DAB2006801F073FC002010BD04EB05
:102E8000C40C00EB8C0CCCF89022F1E7DAB20068AD
:102E900001F06EFDF1E701F00F0101EBC10100EB64
:102EA0008101D1F89C02704710B501F00F0404EBCA
:102EB000C401890038310144043104EBC40C00EB37
:102EC0008C0CCCF84C20CCF854300023CCF85C307F
:102ED00001238CF83D308CF83C400369012B06D06F
:102EE00064B9DAB2006801F03BFC002010BD04EBCD
:102EF000C40C00EB8C0CCCF85020F1E7DAB200687F
:102F000001F036FDF1E738B501F00F054268954252
:102F100039D804460B4611F0800F1FD101EBC101D7
:102F2000890001F51E710144043103EBC30300EB7A
:102F30008303002283F87D2201238B700D7094F8A7
:102F4000BC34012B21D0012384F8BC34206801F06B
:102F500053FE8DB1002084F8BC0438BD05EBC501DB
:102F6000890038310144043105EBC50300EB8303CC
:102F7000012283F83D20DFE704F2C442217C20686F
:102F800001F038FFE6E70120E7E70220E5E701F07E
:102F90000F034268934231D810B5044611F0800FF8
:102FA0001ED103EBC301890001F51E7101440431F8
:102FB00003EBC30200EB8202002082F87D020022B4
:102FC0008A700B7094F8BC34012B19D0012384F85B
:102FD000BC34206801F03DFE002084F8BC0410BD24
:102FE00003EBC301890038310144043103EBC30210
:102FF00000EB8202012082F83D00E0E701207047EB
:103000000220ECE708B511F0800F0CD101F00F01A0
:1030100001EBC101890001F51E7101440431006812
:1030200001F030FC08BD01F00F0101EBC101890086
:10303000383101440431F2E72DE9F04F83B0044602
:103040000568284601F090FE10B103B0BDE8F08F8E
:103050000646206801F057FE0028F6D005F5006707
:10306000BB68C3F30D23C4F8FC34206801F04BFEA9
:1030700010F0020F04D02268536903F00203536179
:10308000206801F040FE10F0100F13D02268936901
:1030900023F010039361D5F8208008F00F09C8F3DE
:1030A0004343022B4BD0062B6FD02268936943F029
:1030B00010039361206801F026FE10F4002F76D1F2
:1030C000206801F020FE10F4802F40F0E08020689E
:1030D00001F019FE0028C0F26381206801F013FEA0
:1030E00010F4006F09D0BB6813F0010F40F070813D
:1030F0002268536903F400635361206801F003FE02
:1031000010F4805F40F06881206801F0FCFD10F44D
:10311000005F40F0B581206801F0F5FD10F0080F68
:1031200040F0C681206801F0EEFD10F0800F00F045
:10313000D981AB6923F08003AB610126C2E147F678
:10314000F07318EA030FB0D04FEA181B4FEAC90317
:10315000019309EBC90A04EB8A0AC8F30A12DAF8E8
:103160008C12284601F01EFDCBF30A0BDAF88C32E4
:103170005B44CAF88C32019B4B4404EB8303D3F8C5
:103180009C325B44CAF89C328FE7082204F2C441A7
:10319000284601F007FDC8F30A1809EBC90204EB41
:1031A0008202D2F89C324344C2F89C327DE7206808
:1031B00001F0ADFD8046B14635E005EB4913012233
:1031C000C3F8082B49462046FFF7FAFC3CE005EB24
:1031D00049130822C3F8082B49462046FFF772FD21
:1031E00035E009EBC90304EB830393F87F32012B2D
:1031F00041D005EB49130222C3F8082B1AF0200F27
:1032000004D005EB49132022C3F8082B1AF4005F01
:1032100005D005EB49134FF40052C3F8082B09F110
:1032200001094FEA5808B8F1000F3FF449AF18F010
:10323000010FF4D05FFA89FB5946206801F077FD51
:10324000824610F0010FB8D11AF0080FBFD11AF062
:10325000100F04D005EB49131022C3F8082B1AF005
:10326000020FCBD06B6913F0800FBAD07B6843F4A8
:1032700080637B60B5E709EBC90304EB830300229D
:1032800083F87F225946204604F070FEB1E720689B
:1032900001F045FD8046B14625E05946204604F040
:1032A0001FFE1AF0080F04D005EB49130822C3F8DB
:1032B00008291AF0100F04D005EB49131022C3F8A7
:1032C00008291AF0400F04D005EB49134022C3F837
:1032D00008291AF0020F40D11AF0800F5BD109F1D2
:1032E00001094FEA5808B8F1000F3FF4F0AE18F0AA
:1032F000010FF4D05FFA89FB5946206801F020FDE8
:10330000824610F0010FCCD009F00F03012101FA21
:1033100003F27B6B23EA02037B6305EB4913C3F8DB
:10332000081923698B42B8D109EBC90304EB830365
:10333000996CDA6C0A44DA64B9F1000FADD109EB8B
:10334000C90304EB83035B6D002BA6D104F2C442D6
:103350000121206801F04EFD9FE74946284601F013
:1033600011F809EBC90304EB830393F83F30012BF9
:1033700005D005EB49130222C3F80829ACE709EB95
:10338000C90304EB8303002283F83F2059462046FB
:1033900004F0F2FDEDE749462046FFF7F1FA9EE71B
:1033A0007B6823F001037B6094F8F434012B08D090
:1033B000204604F0D5FD2268536903F000435361B1
:1033C0008BE6002184F8F414204600F041F9F2E77E
:1033D000204604F0ADFD8BE67B6823F001037B60A3
:1033E0001021206800F0CEFF1AE005EB46134FF6DF
:1033F0007F31C3F80819D3F8002922F40012C3F86A
:103400000029C3F8081BD3F8002B22F40012C3F8DC
:10341000002BD3F8002B42F00062C3F8002B0136DA
:103420006368B342E1D8FB6943F00113FB61236B8E
:10343000DBB1D7F8843043F00B03C7F884307B6CE2
:1034400043F00B037B64D5F8003823F4FE63C5F822
:10345000003804F2C442217C206801F0CBFC2268D1
:10346000536903F4805353614EE67B6943F4005380
:1034700043F02B037B613B6943F00B033B61E2E7C5
:10348000206801F0A6FC206801F09AF8E060266848
:1034900000F0E4FB0146227B304600F0F5FE2046BA
:1034A00004F02FFD2268536903F40053536132E6A0
:1034B000204604F020FD2268536903F0080353619D
:1034C00030E601366368B3420CD906EBC60304EB61
:1034D000830393F87F32012BF3D1F1B22046FFF73B
:1034E00091FDEEE7206801F00EFC10F4801F27D15B
:1034F000206801F008FC10F4001F5BD0012328E0D5
:1035000001366368B3421DD905EB4613D3F8002991
:1035100006EBC60304EB830393F84030012BEFD195
:10352000002AEDDA06EBC60304EB8303012283F8DD
:103530003F2066F07F01C9B22046FFF763FDDFE759
:103540000126DEE72268536903F480135361CFE755
:10355000013362689A4228D905EB4312D2F8001B66
:1035600003EBC30204EB820292F88022012AEFD11E
:103570000029EDDA01F48031D4F8FC2402F00102D4
:103580009142E5D103EBC30204EB8202012182F8F0
:103590007F12AA6942F08002AA616A6912F0800F64
:1035A000D6D17B6843F400737B602268536903F4CF
:1035B00000135361206801F0A6FB10F0804F10D17A
:1035C000206801F0A0FB10F0040F3FF43EAD23682B
:1035D0005D6815F0040F0DD1226853682B435360CA
:1035E00033E5204604F0CEFC2268536903F08043A3
:1035F0005361E5E7204604F0CBFCEDE710B4046826
:10360000606A31B940EA0240A06200205DF8044BD4
:1036100070478C46A36A00EB1340002308E003F1D7
:10362000400104EB8101496800EB11400133DBB23A
:103630000CF1FF318B42F2D340EA02400CF13F0122
:1036400004EB81014860E0E703685962002070479D
:1036500070470000002800F0E08170B582B0044699
:10366000036813F0010F3BD09F4B9B6803F00C03E2
:10367000042B2CD09C4B9B6803F00C03082B21D00F
:103680006368B3F5803F4FD0B3F5A02F52D0964B6F
:103690001A6822F480321A601A6822F480221A60B2
:1036A0006368002B50D0FEF7C7FA05468E4B1B68A7
:1036B00013F4003F14D1FEF7BFFA401B6428F5D97C
:1036C0000320B1E1884B5B6813F4800FD8D0864BA0
:1036D0001B6813F4003F03D06368002B00F09F8148
:1036E000236813F0020F54D07F4B9B6813F00C0F2C
:1036F0003ED07D4B9B6803F00C03082B33D0E3686E
:10370000002B68D0794B01221A60FEF795FA054626
:10371000754B1B6813F0020F54D1FEF78DFA401B56
:103720000228F5D903207FE16F4A136843F4803300
:103730001360B5E76C4B1A6842F480221A601A686D
:1037400042F480321A60ABE7FEF776FA0546664B24
:103750001B6813F4003FC3D0FEF76EFA401B6428C9
:10376000F5D9032060E1604B5B6813F4800FC6D18C
:103770005D4B1B6813F0020F03D0E368012B40F090
:103780005081594A136823F0F803216943EAC103C1
:103790001360236813F0080F42D063696BB3534B77
:1037A0000122C3F8802EFEF747FA05464E4B5B6FA9
:1037B00013F0020F34D1FEF73FFA401B0228F5D96F
:1037C000032031E1484A136823F0F803216943EAF2
:1037D000C1031360DDE7454B00221A60FEF72CFAA7
:1037E0000546414B1B6813F0020FD2D0FEF724FAB6
:1037F000401B0228F5D9032016E13C4B0022C3F8F8
:10380000802EFEF719FA0546374B5B6F13F0020F57
:1038100006D0FEF711FA401B0228F5D9032003E178
:10382000236813F0040F77D02F4B1B6C13F0805FCD
:1038300033D1002301932C4B1A6C42F080521A644E
:103840001B6C03F080530193019B0125284B1B68DF
:1038500013F4807F23D0A368012B34D0052B38D0FC
:10386000214B1A6F22F001021A671A6F22F004022C
:103870001A67A368002B3DD0FEF7DEF906461A4B07
:103880001B6F13F0020F46D1FEF7D6F9801B41F2F1
:1038900088339842F3D90320C6E00025D6E7144ABE
:1038A000136843F480731360FEF7C6F90646104BA5
:1038B0001B6813F4807FCED1FEF7BEF9801B02286F
:1038C000F5D90320B0E0084A136F43F001031367F2
:1038D000CFE7054B1A6F42F004021A671A6F42F0E5
:1038E00001021A67C5E700BF0038024000004742E6
:1038F00000700040FEF7A0F90646524B1B6F13F014
:10390000020F08D0FEF798F9801B41F288339842E5
:10391000F3D9032088E0EDB9A369002B00F0838080
:10392000484A926802F00C02082A51D0022B17D0A4
:10393000454B00221A66FEF77FF90446414B1B688F
:1039400013F0007F42D0FEF777F9001B0228F5D96B
:10395000032069E03B4A136C23F080531364DBE7D8
:10396000394B00221A66FEF767F90546354B1B688E
:1039700013F0007F06D0FEF75FF9401B0228F5D94F
:10398000032051E0E369226A1343626A43EA821327
:10399000A26A5208013A43EA0243E26A43EA026336
:1039A000284A5360284B01221A66FEF745F904465F
:1039B000244B1B6813F0007F06D1FEF73DF9001B76
:1039C0000228F5D903202FE000202DE000202BE075
:1039D000012B2BD01B4B5B6803F48001E269914201
:1039E00026D103F03F02216A8A4223D1616A47F659
:1039F000C0721A40B2EB811F1ED103F44031A26A9B
:103A00005208013AB1EB024F18D103F07063E26A39
:103A1000B3EB026F14D1002006E0012070470120B3
:103A200002E0012000E0002002B070BD0120FBE7B1
:103A30000120F9E70120F7E70120F5E70120F3E78E
:103A40000120F1E70038024000004742014B01220B
:103A5000DA6470470000474208B5254B9B6803F0C5
:103A60000C03042B3FD0082B3FD1214B5A6802F0A6
:103A70003F025B6813F4800F12D01D4B5968C1F3ED
:103A800088111C480023A1FB0001FCF7B9FB184B6F
:103A90005B68C3F3014301335B00B0FBF3F025E047
:103AA000134B5968C1F3881C4FEA4C11B1EB0C0061
:103AB0006EEB0E0E4FEA8E1343EA90638101091AF2
:103AC00063EB0E03DB0043EA5173C90011EB0C0CEE
:103AD00043F10003990200234FEA8C2041EA9C51F4
:103AE000FCF78EFBD3E7034800E0034808BD00BFA6
:103AF00000380240001BB7000024F400002800F04A
:103B00009B8070B50D4604464F4B1B6803F00F03B6
:103B10008B4208D2CBB24C4A1370136803F00F03E8
:103B20008B4240F08B80236813F0020F17D013F004
:103B3000040F04D0454A936843F4E053936023682C
:103B400013F0080F04D0414A936843F46043936034
:103B50003E4A936823F0F003A1680B439360236807
:103B600013F0010F32D06368012B21D09A1E012A75
:103B700025D9364A126812F0020F61D033498A689B
:103B800022F0030213438B60FEF756F806462F4BD4
:103B90009B6803F00C036268B3EB820F16D0FEF74C
:103BA0004BF8801B41F288339842F0D9032042E061
:103BB000264A126812F4003FE0D101203BE0234A7C
:103BC000126812F0007FD9D1012034E01E4B1B682F
:103BD00003F00F03AB4207D9EAB21B4B1A701B6804
:103BE00003F00F03AB422DD1236813F0040F06D06E
:103BF000164A936823F4E053E1680B43936023680B
:103C000013F0080F07D0114A936823F46043216929
:103C100043EAC1039360FFF71FFF0C4B9B68C3F39C
:103C200003130B4AD35CD8400A4B18600A4B186840
:103C3000FDF736FE002070BD012070470120FAE735
:103C40000120F8E70120F6E7003C0240003802407E
:103C5000F0E100082800002030000020014B186827
:103C6000704700BF2800002008B5FFF7F7FF044B9E
:103C70009B68C3F38223034AD35CD84008BD00BFCE
:103C80000038024000E2000808B5FFF7E7FF044BE8
:103C90009B68C3F34233034AD35CD84008BD00BFDE
:103CA0000038024000E200080F2303600B4B9A68C3
:103CB00002F0030242609A6802F0F00282609A68A1
:103CC00002F4E052C2609B68DB0803F4E053036136
:103CD000034B1B6803F00F030B6070470038024072
:103CE000003C02407047000008B5064BDB6813F04B
:103CF000800F00D108BDFFF7F5FF024B80229A73B9
:103D0000F8E700BF003802407047000090F83D30EF
:103D1000DBB2012B37D1022380F83D300268D36833
:103D200043F00103D3600368194A934220D0B3F1F2
:103D3000804F1DD0A2F57C42934219D002F58062DB
:103D4000934215D002F58062934211D002F5784279
:103D500093420DD002F57052934209D0A2F59432ED
:103D6000934205D01A6842F001021A6000207047A1
:103D70009A6802F00702062A07D01A6842F0010288
:103D80001A6000207047012070470020704700BF74
:103D900000000140704770477047704710B50446F7
:103DA00003681A6912F0020F11D0DA6812F0020FDC
:103DB0000DD06FF002021A610123037703689B693B
:103DC00013F0030F70D0FFF7E6FF0023237723687B
:103DD0001A6912F0040F12D0DA6812F0040F0ED034
:103DE0006FF004021A610223237723689B6913F49E
:103DF000407F5FD02046FFF7CEFF00232377236864
:103E00001A6912F0080F12D0DA6812F0080F0ED0FB
:103E10006FF008021A61042323772368DB6913F02B
:103E2000030F4ED02046FFF7B6FF00232377236809
:103E30001A6912F0100F12D0DA6812F0100F0ED0BB
:103E40006FF010021A61082323772368DB6913F4EB
:103E5000407F3DD02046FFF79EFF00232377236855
:103E60001A6912F0010F03D0DA6812F0010F36D18F
:103E700023681A6912F0800F03D0DA6812F0800FFD
:103E800034D123681A6912F0400F03D0DA6812F0B7
:103E9000400F32D123681A6912F0200F03D0DA687C
:103EA00012F0200F30D110BDFFF774FF2046FFF74E
:103EB00073FF8AE72046FFF76DFF2046FFF76CFF90
:103EC0009BE72046FFF766FF2046FFF765FFACE75C
:103ED0002046FFF75FFF2046FFF75EFFBDE76FF06C
:103EE00001021A612046FDF739FCC1E76FF080023C
:103EF0001A61204600F0A1F8C3E76FF040021A6192
:103F00002046FFF74AFFC5E76FF020021A612046FE
:103F100000F092F8C7E700000368304A904212D0E0
:103F2000B0F1804F0FD0A2F57C4290420BD002F549
:103F30008062904207D002F58062904203D002F581
:103F40007842904203D123F070034A681343234A16
:103F500090422AD0B0F1804F27D0A2F57C42904207
:103F600023D002F5806290421FD002F58062904219
:103F70001BD002F57842904217D002F57052904261
:103F800013D002F5806290420FD002F58062904219
:103F90000BD0A2F59832904207D002F58062904291
:103FA00003D002F58062904203D123F44073CA68C3
:103FB000134323F080034A69134303608B68C36291
:103FC0000B688362054B984203D003F580639842E7
:103FD00001D10B6903630123436170470000014075
:103FE00040B310B5044690F83D30F3B1022384F895
:103FF0003D30214651F8040BFFF78EFF012384F872
:10400000463084F83E3084F83F3084F8403084F8FD
:10401000413084F8423084F8433084F8443084F8E6
:10402000453084F83D30002010BD80F83C30FFF76B
:104030006BFEDBE7012070477047704738B50446D8
:104040000268136923F44053C1680B43136183680A
:104050000269134342691343C2691A430168CB687A
:1040600023F4164323F00C031343CB600268536917
:1040700023F4407381690B4353610368314A9342CF
:1040800006D002F58062934202D0FFF7EDFD01E019
:10409000FFF7FAFDE369B3F5004F29D000210318BB
:1040A00049411B1841F10001C90041EA5371DB008D
:1040B000181863684FEA83024FEA937341F10001D5
:1040C000FCF79EF8204DA5FB00325109642303FB49
:1040D00011031B013233A5FB03235B0903F0F0023C
:1040E00002EB011203F00F03216813448B6038BD0B
:1040F0000023021843EB0301121841F10001C9002B
:1041000041EA5271D200101841F100016268921820
:104110005B41FCF775F80C4DA5FB00325109642397
:1041200003FB1103DB003233A5FB03235B095A00B9
:1041300002F4F87202EB011203F007032168134442
:104140008B60D4E7001001401F85EB5158B310B5C8
:10415000044690F83D300BB3242384F83D302268A8
:10416000D36823F40053D3602046FFF767FF22682B
:10417000136923F4904313612268536923F02A03DF
:1041800053612268D36843F40053D3600020206455
:10419000202384F83D3084F83E3010BD80F83C3058
:1041A000FDF782FCD8E701207047000082B00023B1
:1041B0000193019B01330193019A0F4B9A4215D849
:1041C0000369002BF5DA00230193036943F001032F
:1041D0000361019B01330193019A074B9A4208D86E
:1041E000036913F0010FF4D1002000E0032002B0B6
:1041F00070470320FBE700BF400D030084B010B5FB
:10420000044603A880E80E00089B012B1FD1A36B76
:1042100023F48033A363E36823F4840323F040038F
:10422000E360E36823F44013E3600F9B012B09D0A4
:104230002046FFF7BBFF069B012B1BD0BDE81040BB
:1042400004B07047E36843F48013E360F0E7E36889
:1042500043F04003E3602046FFF7A8FF0C9B23B91F
:10426000A36B43F48033A363E5E7A36B23F48033AC
:10427000A363E0E7A36843F00603A360A36843F0E9
:104280002003A360DAE70000022A0AD00921C268ED
:1042900022F47052C260C36843EA8123C3600020E5
:1042A0007047234B0B44234A93422FD9224B0B4494
:1042B000224A93422CD9A1F57403A3F51053204A46
:1042C000934227D9A1F18373A3F5E7431D4A934293
:1042D00022D31D4B0B441D4A93421FD91C4B0B4448
:1042E0001C4A93421CD31C4B0B441C4A934219D3C7
:1042F000A1F1B773A3F55853194A934214D3194B3C
:104300000B44194A934211D20721C0E70F21BEE79F
:104310000E21BCE70D21BAE70C21B8E70B21B6E767
:104320000A21B4E70921B2E70821B0E70621AEE788
:10433000405327FFFF340C00401E1BFF3F420F007D
:104340007F4F120020D6130060B6E5FE5FE3160033
:1043500000D3CEFE40771B00C05BB3FEC0912100AE
:1043600020753800E05459FEE09C4100836843F01A
:104370000103836000207047836823F0010383609A
:104380000020704782B000230193019B0133019309
:10439000019A0F4B9A4215D80369002BF5DA0023D6
:1043A0000193890141F020010161019B01330193D7
:1043B000019A074B9A4208D8036913F0200FF4D1F1
:1043C000002000E0032002B070470320FBE700BF9D
:1043D000400D030082B000230193019B0133019340
:1043E000019A0E4B9A4213D80369002BF5DA002389
:1043F000019310230361019B01330193019A074B41
:104400009A4208D8036913F0100FF4D1002000E09D
:10441000032002B070470320FBE700BF400D0300FC
:10442000D0F800381943C0F8001800207047000089
:1044300084B02DE9F041044607A880E80E0000236F
:1044400006E003F1400204EB8202002151600133D7
:104450000E2BF6D9119F27BBD4F8043843F0020382
:10446000C4F80438A36B43F40013A363A36B23F4D1
:104470000023A363A36B23F48023A3630023C4F866
:10448000003E04F50065D4F80038C4F800380C9BF1
:10449000012B14D1099B6BB900212046FFF7C0FF07
:1044A00011E0A36B23F40013A363A36B43F4002375
:1044B000A363E3E701212046FFF7B2FF03E00321F6
:1044C0002046FFF7ADFF10212046FFF75BFF804637
:1044D00008B14FF001082046FFF77CFF08B14FF00C
:1044E000010800232B616B61EB610AE0C3B94FF057
:1044F0000060C2F8000900220A614FF67F328A602C
:1045000001330799994210D904EB431202F5106167
:10451000D2F800090028E9DB0020C2F80009EAE728
:104520004FF09040C2F80009E5E700230AE0C3B16C
:104530004FF0904CC2F800CB002202614FF67F3260
:1045400082600133994211D904EB431202F53060C5
:10455000D2F8006B002EEADB4FF0000CC2F800CB63
:10456000EAE74FF0006CC2F800CBE5E72B6923F4D3
:1045700080732B610023A3616FF0804363610A9B0A
:104580001BB9A36943F01003A361A2690B4B13434A
:10459000A3610D9B1BB1A36943F00803A361012F25
:1045A00004D04046BDE8F04104B07047A36943F031
:1045B000804343F00403A361F3E700BF00383C806D
:1045C000D0F8083813F0060307D0022B07D0062BCB
:1045D00001D00F2070470220704700207047022052
:1045E000704710B591F800C04B78012B23D000F52F
:1045F000006ED0F81C380CF00F040122A24043EAF0
:104600000243C0F81C3800EB4C10D0F8003B13F408
:10461000004F0ED1D0F8003BCA68C2F30A020979F4
:1046200042EA8142134343F0805343F40043C0F80D
:10463000003B002010BDD0F81C280CF00F0E03FA30
:104640000EF39BB21343C0F81C3800EB4C10D0F8AB
:10465000003913F4004FECD1D0F80039CA68C2F326
:104660000A02097942EA814242EA8C5C43EA0C037D
:1046700043F0805343F40043C0F80039D9E7000009
:1046800030B40B784A78012A26D000EB4313D3F8D4
:10469000002B002A52DBD0F83C480A7802F00F02C7
:1046A0004FF0010C0CFA02F224EA0242C0F83C2856
:1046B000D0F81C28097801F00F010CFA01FC22EA5D
:1046C0000C42C0F81C28D3F8001B234A0A40C3F848
:1046D000002B002030BC704700EB4313D3F80029B7
:1046E000002A1EDBD0F83C580A7802F00F020124A1
:1046F00004FA02F292B225EA0202C0F83C28D0F88D
:104700001C28097801F00F018C40A4B222EA0404AD
:10471000C0F81C48D3F80019104A0A40C3F8002911
:10472000D7E7D3F8002942F00062C3F80029D3F894
:10473000002942F08042C3F80029D3E7D3F8002BC8
:1047400042F00062C3F8002BD3F8002B42F0804205
:10475000C3F8002B9FE700BF0078F3EF007833EC3D
:1047600070B40B784C78012C29D000EB431000F585
:1047700030631C69E40CE4041C611C6924F0FF54E0
:1047800024F4C0141C618C690CB1CC688C61CC68B9
:10479000CC611C6944F400241C611C69CD69C5F31B
:1047A000120C44EA0C041C61012A66D0D0F8003BCC
:1047B00043F00443C0F8003B002070BC70478C6994
:1047C0006CBB00EB4314D4F8105925F0FF5525F4C9
:1047D000C015C4F81059D4F8105945F40025C4F890
:1047E0001059D4F81059ED0CED04C4F81059012AF1
:1047F00034D000EB4313D3F8002942F00442C3F84D
:1048000000298B69002BD7D0D0F834380A7802F011
:104810000F0101228A401343C0F83438CCE700EB83
:10482000431404F510642569ED0CED042561256938
:1048300025F0FF5525F4C0152561CD688E69AE427F
:1048400000D98D61256945F40025256125698E69AA
:10485000C6F3120C45EA0C052561C8E74A691AB18E
:1048600000EB4311C1F8142900EB4310D0F80029E4
:1048700042F00442C0F800299EE70A69002A95D058
:104880005A6193E710B483B002460023019348783D
:1048900001280BD00B7802EB4313D3F8000B002850
:1048A0002DDB002003B05DF8044B70470B7802EB62
:1048B0004313D3F80049002C01DB0020F2E7D3F8C2
:1048C000004944F00064C3F800490B7802EB43133D
:1048D000D3F8004944F08044C3F80049019B0133F8
:1048E0000193019C42F210739C42DBD80B7802EBDF
:1048F0004313D3F80039002BF0DB0020D2E7D3F8C4
:10490000000B40F00060C3F8000B0B7802EB431380
:10491000D3F8000B40F08040C3F8000B019B01333B
:104920000193019842F21073984208D80B7802EB79
:104930004313D3F8003B002BF0DB0020B2E701204B
:10494000B0E710B59DF8084084B903334FEA930EE1
:104950004FF0000C08E000EB023303F5805351F8F0
:10496000044B1C600CF1010CF445F4D3002010BD85
:10497000F0B583B00B784C78012C33D000EB4313A7
:1049800003F5306CDCF81040E40CE404CCF8104083
:10499000DCF8104024F0FF5424F4C014CCF810408C
:1049A0008C69002C40F0C780DCF81040CD68C5F35E
:1049B00012052C43CCF81040DCF8104044F40024DD
:1049C000CCF81040012A00F0D0800A79012A00F0CA
:1049D000D380D3F8002B42F00442C3F8002B002010
:1049E00003B0F0BD8C6984BB00EB4314D4F81059BC
:1049F00025F0FF5525F4C015C4F81059D4F8105906
:104A000045F40025C4F81059D4F81059ED0CED0404
:104A1000C4F81059012A4CD000EB4313D3F80049D5
:104A200044F00444C3F800490C79012C6AD08B6926
:104A3000002BD4D0D0F834380A7802F00F010122CC
:104A40008A401343C0F83438C9E700EB4314D4F864
:104A50001059ED0CED04C4F81059D4F8105925F094
:104A6000FF5525F4C015C4F81059D4F810698D69A4
:104A7000CF683D44013DB5FBF7F5494F07EAC54511
:104A80003543C4F81059D4F810598E69C6F312068C
:104A90003543C4F8105904F510640D79012DB9D1CE
:104AA000256925F0C0452561256945F0005525613A
:104AB000B0E74A691AB100EB4314C4F814290A7923
:104AC000012A08D000EB4313D3F8002942F0044236
:104AD000C3F8002983E7D0F8082812F4807F08D1B2
:104AE00000EB4311D1F8002942F00052C1F800292F
:104AF000E8E700EB4311D1F8002942F08052C1F8F9
:104B00000029DFE7D0F8084814F4807F0CD1D3F8EF
:104B1000004944F00054C3F8004900920B8B0A7816
:104B20000969FFF70EFF5AE7D3F8004944F08054B3
:104B3000C3F80049F1E7CD682C44013CB4FBF5F41F
:104B4000A4B204FB05F5CD61DCF81050144E06EA62
:104B5000C4442C43CCF81040DCF81040CD69C5F3B8
:104B600012052C43CCF810402CE70A69002A3FF4C8
:104B70002CAFCCF8142028E7D0F8082812F4807F56
:104B800006D1D3F8002B42F00052C3F8002B20E7E7
:104B9000D3F8002B42F08052C3F8002B19E700BF76
:104BA0000000F81F00B583B0844608464FEA920E15
:104BB00002F00302002305E00CF58051096840F87B
:104BC000041B01337345F7D39AB10CF5805CDCF814
:104BD000003001934FF0000C5FFA8CF3D900019B79
:104BE000CB4000F8013B0CF1010C013A92B2002AD3
:104BF000F2D103B05DF804FB0B784A78012A14D097
:104C000000EB4310D0F8002B002A06DB2BB1D0F8C4
:104C1000003B23F08043C0F8003BD0F8003B43F456
:104C20000013C0F8003B0020704700EB4310D0F8A1
:104C30000029002A06DB2BB1D0F8003923F080438D
:104C4000C0F80039D0F8003943F40013C0F8003937
:104C5000E9E70B784A78012A0ED000EB4310D0F830
:104C6000003B23F40013C0F8003B0B79023BDBB29E
:104C7000012B15D90020704700EB4310D0F8003904
:104C800023F40013C0F800390B79023BDBB2012B8F
:104C9000F0D8D0F8003943F08053C0F80039E9E784
:104CA000D0F8003B43F08053C0F8003BE2E7D0F877
:104CB000003823F4FE63C0F80038D0F8003809014A
:104CC00001F4FE611943C0F8001800207047D0F8C5
:104CD000003E23F00303C0F8003ED0F8043823F070
:104CE0000203C0F8043800207047D0F8003E23F0DB
:104CF0000303C0F8003ED0F8043843F00203C0F8C4
:104D00000438002070474269806910407047D0F82D
:104D1000183800F50060C0691840000C7047D0F8E2
:104D2000183800F50060C069184080B2704700EB89
:104D30004111D1F8082B00F5006040691040704720
:104D400010B4D0F81048D0F8343801F00F02D34036
:104D5000DB01DBB2234300EB411000F510608068FB
:104D600018405DF8044B7047406900F0010070473F
:104D700038B50546C36823F0C043C360012913D08A
:104D800019BBC36843F08043C36000240120FCF7D3
:104D900059FF01342846FFF7E7FF08B1312CF5D958
:104DA000322C14D0002038BDC36843F00053C360D8
:104DB00000240120FCF746FF01342846FFF7D4FF0A
:104DC0000128EDD0312CF4D9EAE70120EBE70120EE
:104DD000E9E7D0F8003923F4FF6323F00703C0F8B4
:104DE0000039D0F8043843F48073C0F80438002048
:104DF0007047000010B4046C154B9C4203D9D0F8E6
:104E0000003B002B16DB0024C0F8104BD0F8104BF1
:104E100044F40024C0F8104BD0F8104B44F01804B0
:104E2000C0F8104BD0F8104B44F0C044C0F8104B01
:104E3000012903D000205DF8044B7047C0F8142B03
:104E4000D0F8003B43F08023C0F8003BF2E700BFFE
:104E50000A30544F10B5D0F8D43203F1B00250F8F4
:104E600022408CB100EB820043687BB194F80002D1
:104E7000FF280DD09B6894F8012221469847FF2314
:104E800084F80032002010BD0320FCE70020FAE780
:104E90000020F8E70A23038000487047B000002094
:104EA000F8B506460F4F8221384600F03CFC054617
:104EB0000121384600F037FC04468121384600F0D5
:104EC00032FC0DB11022AA711CB1402222710022C5
:104ED000627118B140220271002242714323338073
:104EE0000048F8BD6C000020F8B506460F4F82213F
:104EF000384600F018FC05460121384600F013FC46
:104F000004468121384600F00EFC0DB11022AA7132
:104F10001CB1402222710022627118B1402202713C
:104F200000224271432333800048F8BD6C0000200A
:104F3000F8B506460F4F8221384600F0F4FB0546CF
:104F40000121384600F0EFFB04468121384600F08D
:104F5000EAFB0DB11022AA711CB1002222710222BB
:104F6000627118B100220271022242714323338020
:104F70000048F8BD6C00002038B5D0F8D432B0330A
:104F800050F8235095B1044603F053F8C5F80C02CD
:104F9000D4F8D432B03304EB83046368DB6805F5DE
:104FA0000371D5F804029847002038BD0320FCE7C0
:104FB00038B5D0F8C852D0F8D432B03350F82340C6
:104FC00084B301F00F0303EB830200EB82029269CA
:104FD0004AB103EBC30C05EB8C05AD6CB2FBF5FCE1
:104FE00005FB1C2292B10023C4F81432D0F8D4324D
:104FF000B03300EB830043681B69ABB10A4604F58C
:105000000471D4F808029847002038BD03EB8303ED
:1050100000EB830300249C612346224603F052F8F0
:105020002046F2E70320F0E70020EEE7F0B583B07A
:10503000D0F8D43203F1B00250F8227000228DF87B
:105040000720ADF80420002F7BD004460D460978D8
:1050500011F0600634D0202E6CD1EA882AB311F00A
:10506000800F07D16B7887F80032EA883F2A13D87F
:10507000D2B212E0B03300EB83035B689B68394621
:1050800068789847EA88072A28BF072239462046C9
:1050900000F0FAFE002651E0402287F8012239464E
:1050A000204600F006FF002648E0B03300EB830402
:1050B00063689B68002229466878984700263DE08F
:1050C0006F780B2F31D8DFE807F0063930303030F9
:1050D00030303030162690F89C32DBB2032B04D0EF
:1050E000294600F05DFB032628E0022201A900F01A
:1050F000CBFE3E4622E090F89C32DBB2032B04D07C
:10510000294600F04DFB032618E001220DF10701AE
:1051100000F0BAFE12E090F89C32DBB2032B0DD007
:10512000294600F03DFB032608E0294600F038FB45
:10513000032603E0294600F033FB0326304603B084
:10514000F0BD0326FAE738B50446812102F09AFF44
:10515000002525870121204602F094FFA4F878510C
:105160008221204602F08EFFA4F84C50A4F84E5045
:10517000D4F8D43203F1B00254F822209AB1B033FB
:1051800004EB83035B685B689847D4F8D432B03390
:1051900054F8230002F058FFD4F8D432B03344F866
:1051A0002350C4F8BC52002038BD70B504464FF4FB
:1051B000077002F045FF002849D005464FF40772FA
:1051C000002102F0B9FFD4F8D432B03344F82350B0
:1051D000C4F8BC52237C002B41D14FF4007302224F
:1051E0008121204602F043FF012626874FF40073F9
:1051F00002223146204602F03AFFA4F878611023DB
:10520000A4F84E30082303228221204602F02FFF0B
:105210000123A4F84C300026C5F80462D4F8D43237
:10522000B03304EB83035B681B689847C5F81462CE
:10523000C5F81862D5F8042262B3257C1DBB4FF473
:1052400000730121204602F045FF284670BDD4F8C6
:10525000D432B033002244F823200225F5E740235E
:1052600002228121204602F002FF012626874023E8
:1052700002223146204602F0FAFEA4F8786110239B
:10528000A4F84E30BEE740230121204602F022FF61
:105290000025DAE70225D8E739B1D0F8D432B033A7
:1052A00000EB830041600020704703207047D0F876
:1052B000D432B03350F823302BB1C3F80812C3F8FE
:1052C00010220020704703207047D0F8D432B0334A
:1052D00050F823301BB1C3F804120020704703209C
:1052E000704708B5D0F8D432B03350F823209AB1C3
:1052F000D2F814320BB1012008BD0123C2F81432D8
:10530000D2F81032C362D2F81032D2F808228121CA
:1053100002F0D8FE0020EFE70320EDE710B5D0F84B
:10532000D432B03350F8232092B1047C44B94FF406
:105330000073D2F80422012102F0CCFE204610BDF9
:105340004023D2F80422012102F0C4FE0024F5E734
:105350000324F3E798B108B503460020C3F8B80268
:10536000C3F8C402C3F8D00209B1C3F8B4120121D2
:1053700083F89C121A70184602F010FE08BD032034
:10538000704710B582B00023ADF8063089B10446ED
:10539000C0F8B812CB6A23B10DF106009847C4F8E3
:1053A000D002D4F8D8320133C4F8D832002002B089
:1053B00010BD0320FBE708B502F051FE08BD08B59B
:1053C000D0F8B83213B11B68984708BD0020FCE73D
:1053D00008B5D0F8B8325B68984700B908BD03201B
:1053E000FCE738B5044600F2AA25284600F0C4F9C7
:1053F0000123C4F89432B4F8B032C4F8983294F867
:10540000AA1201F01F03012B0DD0022B10D02BB1DB
:1054100001F08001204602F03DFE03E029462046CF
:1054200000F080FB38BD2946204600F0B6FBF9E7C6
:105430002946204600F0F3FBF4E7F8B504460123C3
:1054400080F89C320023C0F894324360C0F8A43244
:1054500080F8A032D0F8B832DBB15B68DBB1002154
:1054600098470746C8B9402300221146204602F05B
:10547000FEFD0126A4F864614025C4F860512B4666
:1054800000228021204602F0F2FDA68425623846E3
:10549000F8BD0027E7E70027E5E70327E3E7017406
:1054A0000020704790F89C32DBB280F89D320423D4
:1054B00080F89C320020704790F89C32DBB2042BBD
:1054C00001D00020704790F89D32DBB280F89C320A
:1054D000F7E708B590F89C32DBB2032B01D000202F
:1054E00008BDD0F8B832002BF9D0DB69002BF6D01C
:1054F0009847F4E708B5D0F8D432AE3350F82320FB
:105500005AB190F89C32DBB2032B01D0002008BDC9
:10551000136A23B198470020F9E70320F7E700203A
:10552000F5E708B5D0F8D432AE3350F823205AB19D
:1055300090F89C32DBB2032B01D0002008BD536AE7
:1055400023B198470020F9E70320F7E70020F5E7AB
:105550000020704708B5012380F89C32D0F8B8329B
:1055600023B15B680179984710B908BD0020FCE7BA
:105570000320FAE7002070470020704738B5044642
:105580000D46002943D11346D0F89422032A01D0B6
:10559000084638BDD0F85C11D0F86021914212D88D
:1055A00090F8AA3203F01F03012B17D0022B1CD056
:1055B000284694F89C32DBB2032B1BD0204600F027
:1055C0008FFC2846E5E7891AC0F85C118A4228BF9B
:1055D0000A46194600F07CFC2846DAE790F8AE123D
:1055E000FFF7C8FF0028E9D1E3E790F8AE12FFF714
:1055F000C3FFF7E700F1AE0354F823301A69002A1D
:10560000DCD0C4F8D4021B6920469847D6E701F0E5
:105610007F01FFF7B1FF90B994F89C32DBB2032B06
:10562000B7D100F1AE0354F823309A69002AB0D004
:10563000C4F8D4029B69294620469847A9E7002070
:10564000A7E738B504460D4600294BD11346D0F8DC
:105650009422022A07D094F8A00218B1002384F8FB
:10566000A032284638BDC269016A8A420ED88A42F1
:1056700018D094F89C32DBB2032B27D0802120462F
:1056800002F008FD204600F036FCE4E7521AC26141
:10569000194600F006FC00231A461946204602F07F
:1056A00019FDD8E783699942E3D8D0F8982293424C
:1056B000DFD20022114600F0F4FB0021C4F898125A
:1056C0000B460A46204602F005FDC4E7D4F8B8327E
:1056D000DA68002AD2D00022C4F8D422DB6820463F
:1056E0009847CBE741F08001FFF746FF90B994F867
:1056F0009C32DBB2032BB5D100F1AE0354F823305A
:105700005A69002AAED0C4F8D4025B692946204603
:105710009847A7E70020A5E703780A8813440B8081
:10572000037818447047428803789A4218D930B5F4
:1057300083B004460D46ADF806306288BDF80630E9
:105740009A420AD90DF10601FFF7E6FF4378052BCF
:10575000F3D18378AB42F0D100E0002003B030BD3C
:10576000002070470346002002E00130C0B2013340
:105770001A78002AF9D170470B7803704B78437080
:105780008B78CA7843EA022343800B794A7943EA4B
:10579000022383808B79CA7943EA0223C38070474E
:1057A00010B50446802102F075FC0021204602F06D
:1057B00071FC10BD30B583B004460D460023ADF832
:1057C00006304A88130A013B062B00F2AB80DFE863
:1057D00003F0041F33A9A98D9A00D0F8B4321B68D6
:1057E0000DF10601007C9847EA88002A00F0A380AA
:1057F000BDF80630002B00F099809A4228BF1A4667
:10580000ADF806200146204600F03EFB03B030BD57
:10581000037C43B9D0F8B8329B6A0DF10600984773
:1058200002234370E0E7D0F8B832DB6A0DF10600DE
:10583000984702234370D7E7D2B2052A52D8DFE84F
:1058400002F003101D2A3744D0F8B4325B6823B14C
:105850000DF10601007C9847C6E72946FFF7A0FF37
:10586000D4E7D0F8B4329B6823B10DF10601007C77
:105870009847B9E72946FFF793FFC7E7D0F8B43256
:10588000DB6823B10DF10601007C9847ACE729469F
:10589000FFF786FFBAE7D0F8B4321B6923B10DF1E8
:1058A0000601007C98479FE72946FFF779FFADE79F
:1058B000D0F8B4325B6923B10DF10601007C984742
:1058C00092E72946FFF76CFFA0E7D0F8B4329B6956
:1058D00023B10DF10601007C984785E72946FFF7C3
:1058E0005FFF93E72946FFF75BFF8FE7037C33B940
:1058F000D0F8B8325B6B0DF10600984774E7294683
:10590000FFF74EFF82E7037C43B9D0F8B8321B6B38
:105910000DF1060098470723437065E72946FFF716
:105920003FFF73E72946FFF73BFF6FE72946204615
:10593000FFF736FF6AE7204600F0D2FA66E738B58F
:1059400004468B88FBB9CB88EBB94B887F2B1AD8E0
:1059500003F07F0590F89C32DBB2032B0CD080F86B
:105960009E52294602F0A6FB204600F0B9FA35B156
:10597000022384F89C3209E0FFF712FF06E00123BE
:1059800084F89C3202E02046FFF70AFF38BD000091
:1059900070B504460E468D782F4B1D70012D10D822
:1059A00090F89C32DBB2022B0FD0032B26D0FFF7EE
:1059B000F7FE294B19782046FFF70AFD03252846F4
:1059C00070BDFFF7EDFE0325F9E7A5B14560294657
:1059D000FFF7F5FC054638B131462046FFF7E0FEFB
:1059E000022384F89C32EAE7204600F079FA032388
:1059F00084F89C32E3E700F073FAE0E7CDB1416848
:105A00008D4225D0C9B2FFF7E3FC134B19786160D2
:105A10002046FFF7D4FC0546B0B131462046FFF7DB
:105A2000BFFE21792046FFF7D3FC022384F89C3285
:105A3000C5E7022380F89C3245602946FFF7C8FC81
:105A4000204600F04DFABAE7204600F049FAB6E7E2
:105A500000F046FA0025B2E7880D002008B5CB8893
:105A6000012B0BD190F89C32DBB2022B09D9032B0E
:105A700009D10122011D00F007FA01E0FFF790FEB5
:105A800008BD5BB213B9FFF78BFEF9E701460023AF
:105A900041F8083F012200F0F7F9F1E708B590F866
:105AA0009C32013B022B12D8CB88022B0CD1012354
:105AB000C360D0F8A4320BB10323C360022200F10B
:105AC0000C0100F0E1F908BDFFF76AFEFBE7FFF704
:105AD00067FEF8E708B54B88012B04D0022B07D0EE
:105AE000FFF75EFE08BDC0F8A43200F0F9F9F9E74F
