:020000040800F2
:10000000000003204D0D0008D50B0008D70B000899
:10001000D90B0008DB0B0008DD0B00080000000016
:100020000000000000000000000000006122000845
:10003000DF0B00080000000001230008AB1F0008D0
:100040009D0D00089D0D00089D0D00089D0D0008E8
:100050009D0D00089D0D0008E10B00089D0D000896
:100060009D0D00089D0D00089D0D00089D0D0008C8
:100070009D0D00089D0D00089D0D00089D0D0008B8
:100080009D0D00089D0D00089D0D00089D0D0008A8
:100090009D0D00089D0D00089D0D00089D0D000898
:1000A0009D0D0008ED0B00089D0D00089D0D00083A
:1000B0009D0D00089D0D00089D0D00089D0D000878
:1000C0009D0D00089D0D00089D0D00089D0D000868
:1000D0009D0D0008B10700089D0D00089D0D00084A
:1000E0009D0D00089D0D00089D0D00089D0D000848
:1000F0009D0D00089D0D00089D0D00089D0D000838
:100100009D0D00089D0D00089D0D00089D0D000827
:100110009D0D00089D0D00089D0D00089D0D000817
:100120009D0D00089D0D0008FD0B00089D0D0008A9
:100130009D0D00089D0D00089D0D00089D0D0008F7
:100140009D0D00089D0D00089D0D00089D0D0008E7
:100150009D0D00089D0D00089D0D00089D0D0008D7
:100160009D0D00089D0D00089D0D00089D0D0008C7
:100170009D0D00089D0D00089D0D00080000000069
:100180009D0D00089D0D00089D0D00089D0D0008A7
:100190009D0D00089D0D00089D0D00089D0D000897
:0C01A00000000000000000009D0D0008A1
:1001B00010B5054C237833B9044B13B10448AFF3A1
:1001C00000800123237010BD4C04002000000000BB
:1001D0001C3E000808B5034B1BB103490348AFF3AD
:1001E000008008BD00000000500400201C3E0008F4
:1001F00053B94AB9002908BF00281CBF4FF0FF318E
:100200004FF0FF3000F074B9ADF1080C6DE904CE89
:1002100000F006F8DDF804E0DDE9022304B07047E1
:100220002DE9F047089D04468E46002B4DD18A42A9
:10023000944669D9B2FA82F252B101FA02F3C2F1DC
:10024000200120FA01F10CFA02FC41EA030E94406D
:100250004FEA1C48210CBEFBF8F61FFA8CF708FB8E
:1002600016E341EA034306FB07F199420AD91CEB66
:10027000030306F1FF3080F01F81994240F21C8198
:10028000023E63445B1AA4B2B3FBF8F008FB1033E0
:1002900044EA034400FB07F7A7420AD91CEB040415
:1002A00000F1FF3380F00A81A74240F207816444E5
:1002B000023840EA0640E41B00261DB1D44000236A
:1002C000C5E900433146BDE8F0878B4209D9002DCE
:1002D00000F0EF800026C5E9000130463146BDE858
:1002E000F087B3FA83F6002E4AD18B4202D38242C2
:1002F00000F2F980841A61EB030301209E46002D71
:10030000E0D0C5E9004EDDE702B9FFDEB2FA82F2C5
:10031000002A40F09280A1EB0C014FEA1C471FFA23
:100320008CFE0126200CB1FBF7F307FB131140EA0A
:1003300001410EFB03F0884208D91CEB010103F1D7
:10034000FF3802D2884200F2CB804346091AA4B299
:10035000B1FBF7F007FB101144EA01440EFB00FE6D
:10036000A64508D91CEB040400F1FF3102D2A645D2
:1003700000F2BB800846A4EB0E0440EA03409CE771
:10038000C6F12007B34022FA07FC4CEA030C20FA1E
:1003900007F401FA06F31C43F9404FEA1C4900FA3E
:1003A00006F3B1FBF9F8200C1FFA8CFE09FB1811BB
:1003B00040EA014108FB0EF0884202FA06F20BD92E
:1003C0001CEB010108F1FF3A80F08880884240F27E
:1003D0008580A8F102086144091AA4B2B1FBF9F0C2
:1003E00009FB101144EA014100FB0EFE8E4508D9BD
:1003F0001CEB010100F1FF346CD28E456AD9023842
:10040000614440EA0840A0FB0294A1EB0E01A14226
:10041000C846A64656D353D05DB1B3EB080261EB94
:100420000E0101FA07F722FA06F3F1401F43C5E96E
:10043000007100263146BDE8F087C2F12003D840A4
:100440000CFA02FC21FA03F3914001434FEA1C47E6
:100450001FFA8CFEB3FBF7F007FB10360B0C43EAD8
:10046000064300FB0EF69E4204FA02F408D91CEB88
:10047000030300F1FF382FD29E422DD90238634486
:100480009B1B89B2B3FBF7F607FB163341EA034126
:1004900006FB0EF38B4208D91CEB010106F1FF3875
:1004A00016D28B4214D9023E6144C91A46EA00466C
:1004B00038E72E46284605E70646E3E61846F8E6FE
:1004C0004B45A9D2B9EB020864EB0C0E0138A3E747
:1004D0004646EAE7204694E74046D1E7D0467BE728
:1004E000023B614432E7304609E76444023842E7A0
:1004F000704700BF844641EA000313F003036DD147
:10050000403A41D351F8043B40F8043B51F8043BD6
:1005100040F8043B51F8043B40F8043B51F8043BDD
:1005200040F8043B51F8043B40F8043B51F8043BCD
:1005300040F8043B51F8043B40F8043B51F8043BBD
:1005400040F8043B51F8043B40F8043B51F8043BAD
:1005500040F8043B51F8043B40F8043B51F8043B9D
:1005600040F8043B51F8043B40F8043B51F8043B8D
:1005700040F8043B51F8043B40F8043B51F8043B7D
:1005800040F8043B403ABDD2303211D351F8043B1D
:1005900040F8043B51F8043B40F8043B51F8043B5D
:1005A00040F8043B51F8043B40F8043B103AEDD2CC
:1005B0000C3205D351F8043B40F8043B043AF9D21D
:1005C000043208D0D2071CBF11F8013B00F8013BF0
:1005D00001D30B8803806046704700BF082A13D3FD
:1005E0008B078DD010F003038AD0C3F10403D21A15
:1005F000DB071CBF11F8013B00F8013B80D331F849
:10060000023B20F8023B7BE7043AD9D3013A11F8C8
:10061000013B00F8013BF9D20B7803704B78437033
:100620008B7883706046704710B5002407E0012284
:10063000044B33F81410044800F006FF0134072C73
:10064000F5DD10BD000000200018024010B50024A8
:1006500009E0094B33F81410084800F0FBFEC820ED
:1006600000F0CAFB0134072CF3DDFFF7DDFFC820E3
:1006700000F0C2FB10BD00BF0000002000180240C7
:1006800010B5002407E00022044B33F8141004488E
:1006900000F0DAFE0134072CF5DD10BD000000206B
:1006A0000018024008B50A4B9B7A022B0CD0032B92
:1006B00007D0012B02D0FFF7C9FF01E0FFF7B4FF1D
:1006C00008BDFFF7DDFFFBE7FFF7AEFFF8E700BF70
:1006D0006804002000285FD0034600295CD030B5B4
:1006E00090F800C042784CEA022CCCF30A0CA1F836
:1006F00000C042788078D20842EA4012C2F30A0E63
:10070000A1F802E09A78D878920942EA8002187932
:1007100042EA8022C2F30A028A8018795C79400892
:1007200040EAC410C0F30A00C8805C79C4F3011425
:100730008C725C79A409CC729C79DD7944EA052439
:100740008C811C7A5D7A44EA0524CC819C7ADD7A1E
:1007500044EA05240C821C7B8C745C7BCC749C7BEF
:10076000DD7B44EA05248C821C7C5B7C44EA032309
:100770001CB20B81ACF5806CA1F800C0AEF5806EA8
:10078000A1F802E0A2F580628A80A0F58060C880AE
:10079000A4F580630B8130BD7047000008B50348A5
:1007A0002422811800F076F808BD00BF80040020E4
:1007B00000B583B02F4B1B681A6812F0200F09D0C8
:1007C000002200921A6800925B680093009B03B0BD
:1007D0005DF804FB284A126812F0100FF7D00022CF
:1007E00001921A6801925B680193019B234B1B687D
:1007F0001A6812F4002F1DD11A6822F001021A6043
:100800001E4802685368C3F124039BB21C490B8045
:1008100024215160116841F40021116001680A68C7
:1008200042F001020A60122BD1D116491648FFF797
:1008300051FFCCE71A6822F001021A600F490868DC
:100840004368C3F124030E4A1380242343600F48F6
:10085000036C23F40023036409680B6843F001036D
:100860000B601388122BB2D106490948FFF732FFFB
:10087000ADE700BF7C050020001001401C050020F2
:10088000C8040020680400208004002000640240A6
:10089000A404002010B4164B1B685C6944F04004AB
:1008A0005C61DC6844F01004DC60124B1C68236857
:1008B00023F00103236003E01C6824F001041C60A2
:1008C0000C4B1B681C6814F0010FF5D10A4C9C609E
:1008D000D86019615A601A6842F480221A60054B88
:1008E0001A68136843F0010313605DF8044B704706
:1008F0007C0500201C0500200410014000B583B0D9
:1009000000220192094B196B41F4800119631B6BA2
:1009100003F480030193019B05213A2000F092FA31
:100920003A2000F0C7FA03B05DF804FB003802403B
:1009300008B5012001F0D2FBFBE708B5012001F06A
:10094000CDFBFFF7AFFEF9E708B5074A00210748DE
:1009500001F066FB064B1860064A0021064801F0CC
:100960005FFB064B186008BD4C3E00083B090008C1
:10097000CC040020703E000831090008D00400209B
:1009800070B588B0002403940494059406940794E9
:100990000094224B1A6B42F002021A631A6B02F0A7
:1009A00002020092009A01941A6B42F480721A6358
:1009B0001A6B02F480720192019A02941A6B42F04F
:1009C00040021A631B6B03F040030293029B144D19
:1009D00022464FF4FF71284600F036FD01260396AB
:1009E0004FF4881304930223059303A90D4800F0E4
:1009F0002DFC4FF4FF730393112304930596069483
:100A000003A9284600F022FC22460521062000F01A
:100A100019FA062000F04EFA08B070BD0038024006
:100A2000001802400020024008B50268034B9A42B9
:100A300000D008BD00F0CEF9FBE700BF0000014088
:100A400072B6FEE700B595B03022002108A803F089
:100A500023F90023039304930593069307930193CB
:100A6000194A116C41F080511164126C02F08052ED
:100A70000192019A029315490A6822F4404242F415
:100A800080420A600A6802F440420292029A0222FC
:100A9000089201220B9210220C920E9308A800F0EB
:100AA000F1FC68B90F23039300210491059106918D
:100AB000079103A800F034FF20B915B05DF804FBDE
:100AC000FFF7BEFFFFF7BCFF003802400070004098
:100AD00008B500F065F9FFF7B5FFFFF751FFFFF725
:100AE0000DFF00F09DF8FFF759FE01F06BFAFFF7DC
:100AF0002BFF01F079FAFEE700B583B000220092E7
:100B00000D4B596C41F480415964596C01F480419A
:100B1000009100990192196C41F0805119641B6C8D
:100B200003F080530193019B0F216FF0010000F04F
:100B300089F903B05DF804FB0038024030B589B094
:100B40000546002401941E4B5A6C42F001025A647F
:100B50005B6C03F001030193019B02A903A800F061
:100B6000B5FF00F0A3FF03461648A0FB03239B0C30
:100B7000013B1548154A026040F2E732C26043600B
:100B800004618460846101F02BF9044610B12046B1
:100B900009B030BD0C4800F0B9FF04460028F6D17A
:100BA000192000F087F90F2D01D90124EFE7002269
:100BB0002946192000F046F9054B1D60E7E700BF04
:100BC0000038024083DE1B43D404002000000140B3
:100BD00018000020FEE7FEE7FEE7FEE7FEE77047AD
:100BE00008B5012000F040FC08BD000008B502482F
:100BF00000F0D4FF08BD00BFD404002008B50248AF
:100C000000F036FA08BD00BF1C050020034AD2F8E8
:100C1000883043F47003C2F88830704700ED00E07C
:100C200008B50B480B4B03600B4B436000238360FC
:100C3000C3604FF4806202610C2242618361C36130
:100C400001F084F900B908BDFFF7FAFEFBE700BF29
:100C50007C05002000100140A08601002DE9F04332
:100C600089B00023039304930593069307930268C6
:100C700003F1804303F588339A4202D009B0BDE8FE
:100C8000F08304460025019503F594335A6C42F035
:100C900010025A645A6C02F010020192019A0295F5
:100CA0001A6B42F002021A631B6B03F002030293F9
:100CB000029B80230393122304934FF00109CDF884
:100CC00014904FF00308CDF81880072707971C4EA3
:100CD00003A9304600F0BAFA402303930223049399
:100CE000CDF81490CDF81880079703A9304600F08E
:100CF000ADFA1448144B03604FF000634360856005
:100D0000C5604FF480630361456185614FF4807372
:100D1000C3614FF440330362456200F043F958B9B0
:100D2000084BA3639C6300220521252000F08AF86C
:100D3000252000F0BFF8A1E7FFF782FEF0E700BF33
:100D4000000402401C05002040640240DFF834D05B
:100D50000D480E490E4A002302E0D458C450043313
:100D6000C4188C42F9D30B4A0B4C002301E01360EA
:100D70000432A242FBD3FFF749FF02F069FFFFF7FD
:100D8000A7FE704700000320000000204C04002054
:100D9000E43E00084C040020184F0020FEE700004D
:100DA00008B50B4B1A6842F400721A601A6842F4D4
:100DB00080621A601A6842F480721A60032000F0A0
:100DC0002FF80F20FFF7BAFEFFF796FE002008BDB0
:100DD000003C0240034A1168034B1B780B4413602C
:100DE000704700BFC005002014000020014B1868A8
:100DF000704700BFC005002038B50446FFF7F6FF76
:100E00000546B4F1FF3F02D0044B1B781C44FFF7AA
:100E1000EDFF401BA042FAD338BD00BF14000020F4
:100E2000074AD36823F4E0631B041B0C000200F4A0
:100E3000E060034343F0BF6343F40033D360704783
:100E400000ED00E000B5194BDB68C3F30223C3F1EA
:100E5000070CBCF1040F28BF4FF0040C03F1040E83
:100E6000BEF1060F18D9033B4FF0FF3E0EFA0CFC03
:100E700021EA0C0199400EFA03F322EA0303194315
:100E800000280BDB0901C9B200F1604000F56140A8
:100E900080F800135DF804FB0023E5E700F00F0085
:100EA0000901C9B2024B1954F4E700BF00ED00E09C
:100EB00014ED00E0002807DB00F01F0240090123C9
:100EC0009340024A42F82030704700BF00E100E042
:100ED00010B40368D9B210390C4AA2FB01421209BE
:100EE0000B4CA25CC2655F2909D923F47F7323F000
:100EF000030304338365806D5DF8044B704723F46E
:100F00007F7323F003038365F5E700BFABAAAAAAAA
:100F1000AC3E0008836A826992B9012B0AD0022B89
:100F200002D00BB100207047C36A13F0807F28D134
:100F300000207047C36AB3F1C07F24D000207047FF
:100F4000B2F5005F09D0022B25D9032B25D1C36A46
:100F500013F0807F23D100207047032B03D8DFE8F4
:100F600003F01404140A00207047C36A13F0807F52
:100F70000DD100207047C36AB3F1C07F09D00020B3
:100F80007047012070470120704701207047012001
:100F900070470120704701207047002070470120F2
:100FA0007047000070B50446FFF720FF002C5BD0AF
:100FB0000546022384F83530002384F83430226853
:100FC000136823F00103136023681A6812F0010FFD
:100FD0000AD0FFF70BFF431B052BF5D920236365D0
:100FE000032084F8350070BD1A68204810406168FD
:100FF000A2680A43E1680A4321690A4361690A4316
:10100000A1690A43E1690A43216A0A430243616A0A
:1010100004291ED01A602668756925F00705636AE1
:101020001D43042B07D1A36A1D43E36A1BB120466D
:10103000FFF770FF90B975612046FFF749FFE26D39
:101040003F239340836000206065012384F835309E
:10105000C9E7E16A206B01430A43DBE7402363658C
:10106000012084F83500BEE70120BCE73F8010F086
:10107000F0B583B0044600230193724B1D68724B98
:10108000A3FB0535AD0A876D3E68C26D082393400A
:10109000334210D003681A6812F0040F0BD01A689C
:1010A00022F004021A60C26D08239340BB60436DB6
:1010B00043F001034365E26D01239340334209D0BD
:1010C0002268526912F0800F04D0BB60636D43F058
:1010D00002036365E26D04239340334209D0226822
:1010E000126812F0020F04D0BB60636D43F004037A
:1010F0006365E26D10239340334224D02268126866
:1011000012F0080F1FD0BB6023681A6812F4802FFA
:101110000DD01B6813F4002F04D1236C9BB1204623
:10112000984710E0A36C73B1204698470BE01A680B
:1011300012F4807F03D11A6822F008021A60236C2F
:101140000BB120469847E26D20239340334255D09F
:101150002268126812F0100F50D0BB6094F835303E
:10116000DBB2052B0ED023681A6812F4802F33D01F
:101170001B6813F4002F2AD1636C002B3ED020464D
:1011800098473BE02268136823F016031360226837
:10119000536923F080035361236CA3B12268136861
:1011A00023F008031360E26D3F239340BB600123EB
:1011B00084F83530002384F83430236D002B3FD081
:1011C000204698473CE0A36C002BE7D1EBE7E36BAC
:1011D000A3B12046984711E01A6812F4807F09D124
:1011E0001A6822F010021A60012384F835300023B7
:1011F00084F83430E36B0BB120469847636DFBB144
:10120000636D13F0010F17D0052384F83530226881
:10121000136823F001031360019B01330193AB4278
:1012200004D823681B6813F0010FF5D1012384F85B
:101230003530002384F83430E36C0BB120469847F6
:1012400003B0F0BD10000020B5814E1B00230F2B12
:1012500000F2F18070B582B061E085685E00032421
:10126000B44025EA0405CC68B4402C43846045684A
:1012700025EA02054C68C4F300129A402A434260F2
:101280005BE0DC08083450F8246003F007029500A6
:101290000F22AA4026EA020E0A69AA4042EA0E027A
:1012A00040F824205DE0092200E0002202FA0EF25C
:1012B0002A430234604D45F82420604A94686FEA5E
:1012C0000C0224EA0C054E6816F4801F01D04CEA8B
:1012D00004055A4CA560E46802EA04054E6816F459
:1012E000001F01D04CEA0405544CE560646802EA32
:1012F00004054E6816F4003F01D04CEA04054F4C3B
:101300006560246822404D6815F4803F01D04CEAA6
:1013100004024A4C226001330F2B00F28A80012222
:101320009A400C6804EA020C32EA0404F3D14C68D7
:1013300004F00304013C012C8FD94A6802F0030237
:10134000032A09D0C4685D000322AA4024EA0204EB
:101350008A68AA402243C2604A6802F00302022A55
:101360008FD004684FEA430E032202FA0EF224EAF9
:1013700002044A6802F0030202FA0EF222430260FB
:101380004A6812F4403FC6D0002201922C4A546CA5
:1013900044F480445464526C02F480420192019AF5
:1013A0009C08A51C244A52F8255003F003024FEA7A
:1013B000820E0F2202FA0EF225EA0205214A90421D
:1013C0003FF473AF02F58062904222D002F5806252
:1013D000904220D002F5806290421ED002F58062D9
:1013E00090421CD002F5806290421AD002F58062D1
:1013F000904218D002F58062904216D002F58062C9
:10140000904214D002F5806290423FF44CAF0A2221
:101410004CE701224AE7022248E7032246E704227A
:1014200044E7052242E7062240E707223EE708227A
:101430003CE702B070BD704700380140003C0140FD
:1014400000380240000002400AB18161704709047F
:1014500081617047436901EA030221EA030141EA1D
:10146000024181617047704708B5054B5B690342D3
:1014700000D108BD024B5861FFF7F5FFF9E700BF47
:10148000003C0140002800F0E08170B582B00446C5
:10149000036813F0010F3BD09F4B9B6803F00C03D4
:1014A000042B2CD09C4B9B6803F00C03082B21D001
:1014B0006368B3F5803F4FD0B3F5A02F52D0964B61
:1014C0001A6822F480321A601A6822F480221A60A4
:1014D0006368002B50D0FFF789FC05468E4B1B68D4
:1014E00013F4003F14D1FFF781FC401B6428F5D9A9
:1014F0000320B1E1884B5B6813F4800FD8D0864B92
:101500001B6813F4003F03D06368002B00F09F8139
:10151000236813F0020F54D07F4B9B6813F00C0F1D
:101520003ED07D4B9B6803F00C03082B33D0E3685F
:10153000002B68D0794B01221A60FFF757FC054653
:10154000754B1B6813F0020F54D1FFF74FFC401B83
:101550000228F5D903207FE16F4A136843F48033F2
:101560001360B5E76C4B1A6842F480221A601A685F
:1015700042F480321A60ABE7FFF738FC0546664B51
:101580001B6813F4003FC3D0FFF730FC401B6428F6
:10159000F5D9032060E1604B5B6813F4800FC6D17E
:1015A0005D4B1B6813F0020F03D0E368012B40F082
:1015B0005081594A136823F0F803216943EAC103B3
:1015C0001360236813F0080F42D063696BB3534B69
:1015D0000122C3F8802EFFF709FC05464E4B5B6FD6
:1015E00013F0020F34D1FFF701FC401B0228F5D99C
:1015F000032031E1484A136823F0F803216943EAE4
:10160000C1031360DDE7454B00221A60FFF7EEFBD4
:101610000546414B1B6813F0020FD2D0FFF7E6FBE3
:10162000401B0228F5D9032016E13C4B0022C3F8E9
:10163000802EFFF7DBFB0546374B5B6F13F0020F85
:1016400006D0FFF7D3FB401B0228F5D9032003E1A6
:10165000236813F0040F77D02F4B1B6C13F0805FBF
:1016600033D1002301932C4B1A6C42F080521A6440
:101670001B6C03F080530193019B0125284B1B68D1
:1016800013F4807F23D0A368012B34D0052B38D0EE
:10169000214B1A6F22F001021A671A6F22F004021E
:1016A0001A67A368002B3DD0FFF7A0FB06461A4B34
:1016B0001B6F13F0020F46D1FFF798FB801B41F21E
:1016C00088339842F3D90320C6E00025D6E7144AB0
:1016D000136843F480731360FFF788FB0646104BD2
:1016E0001B6813F4807FCED1FFF780FB801B02289C
:1016F000F5D90320B0E0084A136F43F001031367E4
:10170000CFE7054B1A6F42F004021A671A6F42F0D6
:1017100001021A67C5E700BF0038024000004742D7
:1017200000700040FFF762FB0646524B1B6F13F040
:10173000020F08D0FFF75AFB801B41F28833984212
:10174000F3D9032088E0EDB9A369002B00F0838072
:10175000484A926802F00C02082A51D0022B17D096
:10176000454B00221A66FFF741FB0446414B1B68BC
:1017700013F0007F42D0FFF739FB001B0228F5D998
:10178000032069E03B4A136C23F080531364DBE7CA
:10179000394B00221A66FFF729FB0546354B1B68BB
:1017A00013F0007F06D0FFF721FB401B0228F5D97C
:1017B000032051E0E369226A1343626A43EA821319
:1017C000A26A5208013A43EA0243E26A43EA026328
:1017D000284A5360284B01221A66FFF707FB04468C
:1017E000244B1B6813F0007F06D1FFF7FFFA001BA4
:1017F0000228F5D903202FE000202DE000202BE067
:10180000012B2BD01B4B5B6803F48001E2699142F2
:1018100026D103F03F02216A8A4223D1616A47F64A
:10182000C0721A40B2EB811F1ED103F44031A26A8C
:101830005208013AB1EB024F18D103F07063E26A2B
:10184000B3EB026F14D1002006E0012070470120A5
:1018500002E0012000E0002002B070BD0120FBE7A3
:101860000120F9E70120F7E70120F5E70120F3E780
:101870000120F1E7003802400000474208B5254B3F
:101880009B6803F00C03042B3FD0082B3FD1214B66
:101890005A6802F03F025B6813F4800F12D01D4BB0
:1018A0005968C1F388111C480023A1FB0001FEF711
:1018B0009FFC184B5B68C3F3014301335B00B0FB33
:1018C000F3F025E0134B5968C1F3881C4FEA4C1123
:1018D000B1EB0C006EEB0E0E4FEA8E1343EA9063F1
:1018E0008101091A63EB0E03DB0043EA5173C9005F
:1018F00011EB0C0C43F10003990200234FEA8C20FA
:1019000041EA9C51FEF774FCD3E7034800E003482A
:1019100008BD00BF0038024040787D010024F4007B
:10192000002800F09B8070B50D4604464F4B1B68A5
:1019300003F00F038B4208D2CBB24C4A13701368EA
:1019400003F00F038B4240F08B80236813F0020FEB
:1019500017D013F0040F04D0454A936843F4E053C2
:101960009360236813F0080F04D0414A936843F44E
:10197000604393603E4A936823F0F003A1680B43F1
:101980009360236813F0010F32D06368012B21D0DC
:101990009A1E012A25D9364A126812F0020F61D028
:1019A00033498A6822F0030213438B60FFF71EFA63
:1019B00006462F4B9B6803F00C036268B3EB820F63
:1019C00016D0FFF713FA801B41F288339842F0D902
:1019D000032042E0264A126812F4003FE0D10120C1
:1019E0003BE0234A126812F0007FD9D1012034E095
:1019F0001E4B1B6803F00F03AB4207D9EAB21B4B27
:101A00001A701B6803F00F03AB422DD1236813F04B
:101A1000040F06D0164A936823F4E053E1680B43A1
:101A20009360236813F0080F07D0114A936823F4DA
:101A30006043216943EAC1039360FFF71FFF0C4B2A
:101A40009B68C3F303130B4AD35CD8400A4B18605E
:101A50000A4B1868FFF772F8002070BD012070472C
:101A60000120FAE70120F8E70120F6E7003C0240F8
:101A700000380240943E00081000002018000020AA
:101A8000014B1868704700BF1000002008B5FFF731
:101A9000F7FF044B9B68C3F38223034AD35CD8400F
:101AA00008BD00BF00380240A43E000808B5FFF79B
:101AB000E7FF044B9B68C3F34233034AD35CD8402F
:101AC00008BD00BF00380240A43E00080F23036099
:101AD0000B4B9A6802F0030242609A6802F0F0022F
:101AE00082609A6802F4E052C2609B68DB0803F4EB
:101AF000E0530361034B1B6803F00F030B60704757
:101B000000380240003C02407047000090F83D3031
:101B1000DBB2012B37D1022380F83D300268D36855
:101B200043F00103D3600368194A934220D0B3F114
:101B3000804F1DD0A2F57C42934219D002F58062FD
:101B4000934215D002F58062934211D002F578429B
:101B500093420DD002F57052934209D0A2F594320F
:101B6000934205D01A6842F001021A6000207047C3
:101B70009A6802F00702062A07D01A6842F00102AA
:101B80001A6000207047012070470020704700BF96
:101B900000000140704770477047704710B5044619
:101BA00003681A6912F0020F11D0DA6812F0020FFE
:101BB0000DD06FF002021A610123037703689B695D
:101BC00013F0030F70D0FFF7E6FF0023237723689D
:101BD0001A6912F0040F12D0DA6812F0040F0ED056
:101BE0006FF004021A610223237723689B6913F4C0
:101BF000407F5FD02046FFF7CEFF00232377236886
:101C00001A6912F0080F12D0DA6812F0080F0ED01D
:101C10006FF008021A61042323772368DB6913F04D
:101C2000030F4ED02046FFF7B6FF0023237723682B
:101C30001A6912F0100F12D0DA6812F0100F0ED0DD
:101C40006FF010021A61082323772368DB6913F40D
:101C5000407F3DD02046FFF79EFF00232377236877
:101C60001A6912F0010F03D0DA6812F0010F36D1B1
:101C700023681A6912F0800F03D0DA6812F0800F1F
:101C800034D123681A6912F0400F03D0DA6812F0D9
:101C9000400F32D123681A6912F0200F03D0DA689E
:101CA00012F0200F30D110BDFFF774FF2046FFF770
:101CB00073FF8AE72046FFF76DFF2046FFF76CFFB2
:101CC0009BE72046FFF766FF2046FFF765FFACE77E
:101CD0002046FFF75FFF2046FFF75EFFBDE76FF08E
:101CE00001021A612046FEF79FFEC1E76FF08002F5
:101CF0001A61204600F0A1F8C3E76FF040021A61B4
:101D00002046FFF74AFFC5E76FF020021A61204620
:101D100000F092F8C7E700000368304A904212D002
:101D2000B0F1804F0FD0A2F57C4290420BD002F56B
:101D30008062904207D002F58062904203D002F5A3
:101D40007842904203D123F070034A681343234A38
:101D500090422AD0B0F1804F27D0A2F57C42904229
:101D600023D002F5806290421FD002F5806290423B
:101D70001BD002F57842904217D002F57052904283
:101D800013D002F5806290420FD002F5806290423B
:101D90000BD0A2F59832904207D002F580629042B3
:101DA00003D002F58062904203D123F44073CA68E5
:101DB000134323F080034A69134303608B68C362B3
:101DC0000B688362054B984203D003F58063984209
:101DD00001D10B6903630123436170470000014097
:101DE00040B310B5044690F83D30F3B1022384F8B7
:101DF0003D30214651F8040BFFF78EFF012384F894
:101E0000463084F83E3084F83F3084F8403084F81F
:101E1000413084F8423084F8433084F8443084F808
:101E2000453084F83D30002010BD80F83C30FFF78D
:101E30006BFEDBE7012070477047704738B50446FA
:101E40000268136923F44053C1680B43136183682C
:101E50000269134342691343C2691A430168CB689C
:101E600023F4164323F00C031343CB600268536939
:101E700023F4407381690B4353610368314A9342F1
:101E800006D002F58062934202D0FFF7FFFD01E029
:101E9000FFF70CFEE369B3F5004F29D000210318CA
:101EA00049411B1841F10001C90041EA5371DB00AF
:101EB000181863684FEA83024FEA937341F10001F7
:101EC000FEF796F9204DA5FB00325109642303FB70
:101ED00011031B013233A5FB03235B0903F0F0025E
:101EE00002EB011203F00F03216813448B6038BD2D
:101EF0000023021843EB0301121841F10001C9004D
:101F000041EA5271D200101841F100016268921842
:101F10005B41FEF76DF90C4DA5FB003251096423BE
:101F200003FB1103DB003233A5FB03235B095A00DB
:101F300002F4F87202EB011203F007032168134464
:101F40008B60D4E7001001401F85EB5158B310B5EA
:101F5000044690F83D300BB3242384F83D302268CA
:101F6000D36823F40053D3602046FFF767FF22684D
:101F7000136923F4904313612268536923F02A0301
:101F800053612268D36843F40053D3600020206477
:101F9000202384F83D3084F83E3010BD80F83C307A
:101FA000FEF75CFED8E70120704708B54FF0E0234C
:101FB0001B6901F0CBFB012800D108BD00F0D2F96C
:101FC000FBE70000EFF305832BB9064B186828B92F
:101FD00001221A6070476FF0050070474FF0FF3024
:101FE000704700BF20080020EFF3058373B90A4B48
:101FF0001B68012B0DD110B50024084BDC77064B74
:1020000002221A6001F000F9204610BD6FF00500B1
:1020100070474FF0FF3070472008002000ED00E0CF
:10202000F0B587B000240594EFF3058474BB68B362
:1020300022B31568936903B918235C1E372C49D85D
:10204000546814F0010F47D156696EB14FEA960CEF
:1020500094682CB1D7685B2F02D9176907B1C6B94C
:102060002CB14FF0FF340EE04FF0800CF0E7D46855
:102070008CB9146994B14FF0FF3404E01546002484
:1020800018234FF0800C012C0AD0ACB1059807B092
:10209000F0BD0124F7E74FF0FF34F4E70024F2E746
:1020A000146992680292019400930B466246294695
:1020B00001F03AF80590E9E705AA019200930B4672
:1020C0001FFA8CF2294601F06AF80128DED00023BD
:1020D0000593DBE70020DAE70020D8E708B5EFF347
:1020E000058333B908B9002008BD01F0F1F90020DB
:1020F000FAE76FF00500F7E7034B0360034B0B6053
:1021000080231360704700BFC4070020C40500206F
:10211000034B0360034B0B604FF4807313607047F5
:10212000240C00202408002000F1080343604FF035
:10213000FF328260C36003610023036070470023A5
:102140000361704743684B609A688A605160996088
:102150000861036801330360704730B40D68B5F15E
:10216000FF3F11D000F108031C465B681A68AA42C1
:10217000FAD963684B6099608C606160086103689C
:102180000133036030BC70470469F2E703694168BA
:1021900082688A60416851605A68824206D0002293
:1021A00002611A68013A1A601868704782685A60BA
:1021B000F5E7000082B0002301930D4B1B68B3F1DB
:1021C000FF3F08D04FF0500383F31188BFF36F8FA8
:1021D000BFF34F8FFEE74FF0500383F31188BFF337
:1021E0006F8FBFF34F8F019B002BFCD002B0704765
:1021F0001C00002008480068006880F308884FF041
:10220000000080F3148862B661B6BFF34F8FBFF34E
:102210006F8F00DF00BF000008ED00E0DFF80C006A
:10222000016841F4700101607047000088ED00E032
:102230004FF0807340F8043C21F0010140F8081C85
:10224000054B40F80C3C40F8202C6FF0020340F89E
:10225000243C4438704700BFB5210008000000004E
:10226000074B19680868B0E8F04F80F30988BFF39E
:102270006F8F4FF0000080F311887047AFF300803C
:10228000E84800204FF0500383F31188BFF36F8FAD
:10229000BFF34F8F0B4A136801331360012B00D03B
:1022A00070474FF0E023D3F8043D13F0FF0FF7D051
:1022B0004FF0500383F31188BFF36F8FBFF34F8F3D
:1022C000FEE700BF1C000020094B1B6843B94FF01C
:1022D000500383F31188BFF36F8FBFF34F8FFEE777
:1022E000013B034A13600BB983F31188704700BFA9
:1022F0001C000020000000000000000000000000A2
:10230000EFF30980BFF36F8F154B1A681EF0100FA3
:1023100008BF20ED108A20E9F04F10602DE9090078
:102320004FF0500080F31188BFF34F8FBFF36F8FD2
:1023300001F0F4F84FF0000080F3118809BC19682F
:102340000868B0E8F04F1EF0100F08BFB0EC108A1C
:1023500080F30988BFF36F8F704700BFAFF3008031
:10236000E848002008B54FF0500383F31188BFF30D
:102370006F8FBFF34F8F00F0A3FF28B14FF0E02322
:102380004FF08052C3F8042D002383F3118808BD59
:102390004FF0E022002313619361054B1B68054950
:1023A000A1FB03139B09013B536107231361704792
:1023B00010000020D34D62104FF0E023D3F8002D21
:1023C0003D4B9A421CD04FF0E023D3F8002D3B4BFD
:1023D0009A421ED030B583B0394B1A78D2B20192EE
:1023E000FF221A701B78DBB28DF803309DF80330A2
:1023F00003F05003334A1370334B07221A601BE07B
:102400004FF0500383F31188BFF36F8FBFF34F8FEB
:10241000FEE74FF0500383F31188BFF36F8FBFF3D4
:102420004F8FFEE7284A1368013B13609DF8033085
:102430005B00DBB28DF803309DF8033013F0800FA2
:10244000F0D1214B1B68032B08D04FF0500383F3CE
:102450001188BFF36F8FBFF34F8FFEE71B021A4A3D
:10246000136003F4E0631360019BDBB2144A137042
:102470004FF0E024D4F8203D43F47003C4F8203D2D
:10248000D4F8203D43F07043C4F8203DFFF780FFAF
:1024900000250E4B1D60FFF7C1FED4F8343F43F01A
:1024A0004043C4F8343FFFF7A5FE01F037F8FFF7CB
:1024B00081FE284603B030BD71C20F4170C20F418A
:1024C00000E400E0800C0020840C00201C000020B0
:1024D000EFF305830F2B0FD9114A9B5CDBB2114A36
:1024E00012789A4208D94FF0500383F31188BFF352
:1024F0006F8FBFF34F8FFEE74FF0E023D3F80C3D13
:1025000003F4E063084A1268934208D94FF050037D
:1025100083F31188BFF36F8FBFF34F8FFEE77047D0
:10252000F0E300E0800C0020840C0020124A12F03E
:10253000070F1ED0D11D21F00701C1F570531344C0
:102540000A460E480260002141601344083B23F014
:1025500007030B48036059601960991A51601360B2
:10256000084B1960084B1960084B4FF000421A6085
:1025700070474FF47053E4E78C0C0020A048002013
:10258000880C002094480020904800208C480020AF
:10259000164B1A461B688342FBD3516802EB010CB1
:1025A000844509D0416800EB010C634509D0036004
:1025B000904219D010607047406801445160104645
:1025C000F0E710B40A4C2468A3420BD05B681944AE
:1025D000416013681B680360904200D010605DF892
:1025E000044B70470460F7E7704700BFA048002025
:1025F000880C002070B5054600F054FE364B1B6871
:10260000A3B1364B1B681D424ED135B1083515F0CC
:10261000070F02D025F007050835002D46D0304BB6
:102620001B68AB4251D32F4A146804E0FFF77EFFCA
:10263000E7E722461C466368AB4202D22368002BC0
:10264000F7D1254B1B68A34241D016680836236892
:10265000136063685B1B102B10D9601910F0070F13
:1026600008D04FF0500383F31188BFF36F8FBFF38F
:102670004F8FFEE743606560FFF78AFF6268184985
:102680000B689B1A0B60184909688B4201D21649E6
:102690000B60124B1B681343636000232360134AD3
:1026A00013680133136002E0002600E0002600F00A
:1026B00093FE16F0070F0CD04FF0500383F31188F0
:1026C000BFF36F8FBFF34F8FFEE70026EFE70026C3
:1026D000EDE7304670BD00BF880C00208C4800201C
:1026E00090480020A04800209448002098480020EE
:1026F000002834D038B50446A0F1080550F8043C51
:10270000174A1268134208D14FF0500383F311881F
:10271000BFF36F8FBFF34F8FFEE750F8081C41B136
:102720004FF0500383F31188BFF36F8FBFF34F8FC8
:10273000FEE723EA020340F8043C00F0B3FD54F83E
:10274000041C084A13680B4413602846FFF720FF57
:10275000054A13680133136000F03EFE38BD704730
:102760008C480020904800209C48002010B504466A
:10277000FFF788FDA26BE36B9A4204D00024FFF7B9
:10278000A3FD204610BD0124F9E710B50446FFF76C
:1027900079FDA36B23B90124FFF796FD204610BDF8
:1027A0000024F9E770B504461546866B026C5AB9E9
:1027B00003681BB100200136A66370BD806800F07D
:1027C000D5FF0023A360F6E76DB94068FDF792FEE0
:1027D000226C636813446360A268934219D3236830
:1027E00063602846E7E7C068FDF784FE226C51422B
:1027F000E3689B1AE3602268934202D2A3680B4409
:10280000E360022D01D00020D5E726B1013E002073
:10281000D1E72846CFE70020CDE70346026C6AB136
:1028200010B50846D9681144D9609C68A14201D30B
:102830001968D960D968FDF75DFE10BD704738B5DD
:102840000546FFF71FFD95F8454064B201E0013CE5
:1028500064B2002C0ADD6B6A43B105F1240000F07C
:10286000DBFE0028F3D000F06BFFF0E7FF2385F8D4
:102870004530FFF729FDFFF705FD95F8444064B2A8
:1028800001E0013C64B2002C0ADD2B6943B105F183
:10289000100000F0C1FE0028F3D000F051FFF0E777
:1028A000FF2385F84430FFF70FFD38BD38B5E0B1A0
:1028B0000D460446FFF7E6FC2368E26B216C01FB42
:1028C0000230A0600020A0636360013A02FB013384
:1028D000E360FF2384F8443084F84530FDB9236970
:1028E00063B9FFF7F1FC012038BD4FF0500383F3CB
:1028F0001188BFF36F8FBFF34F8FFEE704F1100015
:1029000000F08AFE0028ECD04FF0E0234FF0805218
:10291000C3F8042DBFF34F8FBFF36F8FE1E704F1CE
:102920001000FFF701FC04F12400FFF7FDFBD8E7DE
:1029300038B51D46049C0B4649B92460E063236406
:1029400001212046FFF7B2FF84F84C5038BD2260C9
:10295000F4E740B94FF0500383F31188BFF36F8F52
:10296000BFF34F8FFEE710B584B01C46844653B1C9
:1029700092B189B94FF0500383F31188BFF36F8F81
:10298000BFF34F8FFEE74FF0500383F31188BFF37F
:102990006F8FBFF34F8FFEE76AB150230393039B02
:1029A000502B13D04FF0500383F31188BFF36F8F78
:1029B000BFF34F8FFEE70029EFD04FF0500383F3B2
:1029C0001188BFF36F8FBFF34F8FFEE7039B012387
:1029D00084F8463000949DF818306046FFF7A8FF51
:1029E000204604B010BDF0B585B0019288B10F4605
:1029F0001D460446B1B1022D20D1E36B012B1DD041
:102A00004FF0500383F31188BFF36F8FBFF34F8FE5
:102A1000FEE74FF0500383F31188BFF36F8FBFF3CE
:102A20004F8FFEE7036C002BE5D04FF0500383F38C
:102A30001188BFF36F8FBFF34F8FFEE700F086FE64
:102A4000064658B9019B002B48D04FF0500383F342
:102A50001188BFF36F8FBFF34F8FFEE700263DE075
:102A60002A4639462046FFF79DFE636A7BB948B186
:102A70004FF0E0234FF08052C3F8042DBFF34F8F87
:102A8000BFF36F8FFFF720FC012005B0F0BD04F10C
:102A9000240000F0C1FD0028F4D04FF0E0234FF0F7
:102AA0008052C3F8042DBFF34F8FBFF36F8FE9E758
:102AB000FFF70AFC0020E8E702A800F0F3FD01267A
:102AC00019E0002384F8443021E0002384F84530E5
:102AD00023E02046FFF7B3FE00F07EFCFFF7D2FBB9
:102AE000A26BE36B9A42BBD3022DB9D0019B002BA2
:102AF000DED0002EE0D0FFF7E7FB00F0D3FBFFF7BE
:102B0000C1FB94F8442052B2B2F1FF3FD9D094F8FF
:102B1000452052B2B2F1FF3FD7D0FFF7D5FB01A954
:102B200002A800F0CBFDD8B92046FFF71FFE002811
:102B3000CFD0019904F1100000F03AFD2046FFF7D4
:102B40007EFE00F049FC0028C8D14FF0E0234FF092
:102B50008052C3F8042DBFF34F8FBFF36F8FBDE7D3
:102B60002046FFF76CFE00F037FC00208DE72DE9D2
:102B7000F84390B10F4616461C460546B1B1022CEB
:102B800020D1EB6B012B1DD04FF0500383F3118844
:102B9000BFF36F8FBFF34F8FFEE74FF0500383F308
:102BA0001188BFF36F8FBFF34F8FFEE7036C002BCD
:102BB000E5D04FF0500383F31188BFF36F8FBFF35D
:102BC0004F8FFEE7FFF784FCEFF311894FF05003BE
:102BD00083F31188BFF36F8FBFF34F8FAA6BEB6B3B
:102BE0009A4206D3022C04D0002089F31188BDE854
:102BF000F88395F845804FFA88F8AB6B2246394642
:102C00002846FFF7CFFDB8F1FF3F06D008F10103DA
:102C10005BB285F845300120E7E76B6A0BB901200C
:102C2000E3E705F1240000F0F7FC18B126B101201C
:102C30003060DAE70120D8E70120D6E7F0B585B0AB
:102C4000019290B10F460446C1B100F07FFD0646E7
:102C500000BB019B002B5ED04FF0500383F3118823
:102C6000BFF36F8FBFF34F8FFEE74FF0500383F337
:102C70001188BFF36F8FBFF34F8FFEE7036C002BFC
:102C8000E3D04FF0500383F31188BFF36F8FBFF38E
:102C90004F8FFEE700263EE039462046FFF7BDFD98
:102CA000013DA563236923B9FFF70EFB012005B0A1
:102CB000F0BD04F1100000F0AFFC0028F4D04FF09C
:102CC000E0234FF08052C3F8042DBFF34F8FBFF3C2
:102CD0006F8FE9E7FFF7F8FA0020E8E702A800F0B5
:102CE000E1FC012621E0002384F8443029E00023A0
:102CF00084F845302BE02046FFF7A1FD00F06CFB87
:102D000009E02046FFF79BFD00F066FB2046FFF739
:102D10003CFD00283FD1FFF7B5FAA56B002DBBD1D4
:102D2000019B002BD6D0002ED8D0FFF7CDFA00F0B3
:102D3000B9FAFFF7A7FA94F844305BB2B3F1FF3F5A
:102D4000D1D094F845305BB2B3F1FF3FCFD0FFF75D
:102D5000BBFA01A902A800F0B1FC0028D1D120469D
:102D6000FFF713FD0028C6D0019904F1240000F0FC
:102D70001FFC2046FFF763FD00F02EFB0028CAD1A0
:102D80004FF0E0234FF08052C3F8042DBFF34F8F74
:102D9000BFF36F8FBFE7002089E700000023072BF8
:102DA0000CD8074A52F833200AB10133F7E7044A36
:102DB00042F8331002EBC30358607047704700BFFE
:102DC000A848002070B504460D461646FFF75AFA8B
:102DD00094F844305BB2B3F1FF3F0DD094F8453026
:102DE0005BB2B3F1FF3F0BD0FFF76EFAA36B5BB1A1
:102DF0002046FFF724FD70BD002384F84430EDE742
:102E0000002384F84530EFE73246294604F12400D8
:102E100000F0E6FBECE70000084B1B681B6823B9D9
:102E2000074B4FF0FF321A607047044B1B68DB689A
:102E3000DB685A68024B1A60704700BFEC480020FC
:102E4000944D00202DE9F04780460D4617469946DF
:102E5000089EDDF824A00A9C9200A521206B00F0BA
:102E60001BFF236B07F18042013A03EB820727F037
:102E70000707B5B34FF0000CBCF10F0F0BD815F8D6
:102E80000C2004EB0C0383F8342015F80C3013B13C
:102E90000CF1010CF0E7002384F84330372E00D901
:102EA0003726E662E66400252565201DFFF747F911
:102EB00004F11800FFF743F92461C6F13806A66152
:102EC0006462656584F858504A4641463846FFF7C3
:102ED000AFF92060BAF1000F01D0CAF80040BDE898
:102EE000F087002384F83430D8E7000038B5002498
:102EF00007E004EB840293000E481844FFF714F92E
:102F00000134372CF5D90C4D2846FFF70DF90B4C41
:102F10002046FFF709F90A48FFF706F90948FFF7C5
:102F200003F90948FFF700F9084B1D60084B1C60C6
:102F300038BD00BFF4480020684D00207C4D0020C3
:102F4000A04D0020CC4D0020B84D0020EC480020C2
:102F5000F048002010B50446FFF794F9224A1368A0
:102F600001331360214B1B685BB1214B1B686BB9AC
:102F70001E4B1B68DA6AE36A9A4207D81B4B1C6037
:102F800004E01A4B1C601368012B29D0194A1368FE
:102F9000013313606364E06A174B1B68984201D9E0
:102FA000154B186000EB8000211D144B03EB8000D3
:102FB000FFF7C8F8FFF788F90D4B1B687BB10B4B87
:102FC0001B68DA6AE36A9A4209D24FF0E0234FF0B5
:102FD0008052C3F8042DBFF34F8FBFF36F8F10BD26
:102FE000FFF784FFD2E700BF544D0020E8480020DF
:102FF000B44D0020604D0020644D0020F4480020B6
:1030000010B5044690F8593063B1012B11D0022B52
:103010000ED04FF0500383F31188BFF36F8FBFF3CF
:103020004F8FFEE7006BFFF763FB2046FFF760FB67
:1030300010BDFFF75DFBFBE70F4B1B68D3B110B56D
:10304000FFF720F90D4BDB68DC68201DFFF79EF8C9
:103050000B4A1368013B1360074A1368013B136076
:10306000FFF732F92046FFF7CBFF034B1B68002B1D
:10307000E6D110BD704700BF584D0020CC4D002058
:10308000544D002008B5FFF7D7FF074B1B68012BF5
:10309000F9D94FF0E0234FF08052C3F8042DBFF36D
:1030A0004F8FBFF36F8FEEE7F448002070B50446F2
:1030B0000D46174B1E68174B18680430FFF766F86B
:1030C000B4F1FF3F0DD03444124B1B685C60A64244
:1030D00010D9114B18680F4B19680431FFF73DF8F0
:1030E00070BD002DEFD00B4B196804310B48FFF772
:1030F00029F8F5E70A4B1868064B19680431FFF701
:103100002CF8084B1B68A342EAD9064B1C60E7E782
:10311000E04D0020E8480020F0480020B84D002095
:10312000EC480020944D002030B587B00B9C7CB15A
:103130000C9DB5B15C250495049D5C2D1AD04FF013
:10314000500383F31188BFF36F8FBFF34F8FFEE7F8
:103150004FF0500383F31188BFF36F8FBFF34F8F8E
:10316000FEE74FF0500383F31188BFF36F8FBFF377
:103170004F8FFEE7049D0C9D2C63022485F8594077
:1031800000240394029505AC01940A9C0094FFF777
:1031900059FE0C98FFF7DEFE059807B030BD2DE90B
:1031A000F04385B00746884614461E469000FFF758
:1031B00021FA00B381465C20FFF71CFA0546B0B146
:1031C000C0F83090E5B1002385F85930039302959B
:1031D0000D9B01930C9B0093334622464146384693
:1031E000FFF730FE2846FFF7B5FE012005E0484610
:1031F000FFF77EFAE6E74FF0FF3005B0BDE8F08359
:103200004FF0FF30F9E7000010B588B000240594B6
:10321000069407AA06A905A8FEF76EFF059B029370
:10322000069B019300942346079A18491848FFF714
:103230007BFF184B186040B100F04CFB012806D012
:10324000B0F1FF3F18D008B010BD0020F6E74FF0F6
:10325000500383F31188BFF36F8FBFF34F8F0E4B73
:103260004FF0FF321A600D4B01221A600C4B002206
:103270001A60FFF7A1F8E6E74FF0500383F31188D7
:10328000BFF36F8FBFF34F8FFEE700BFB43E000860
:1032900085300008904D0020944D0020B44D002052
:1032A000E04D0020024A136801331360704700BFED
:1032B0005C4D0020014B1868704700BFE04D0020B6
:1032C000F8B53A4B1B68002B69D1394B1D680135A5
:1032D0001D60C5B9374B1B681B6843B14FF05003E5
:1032E00083F31188BFF36F8FBFF34F8FFEE7314A2F
:1032F0001168314B186810601960304A1368013347
:103300001360FFF789FD2E4B1B68AB423DD90027A8
:103310002C4B1B68DB6A03EB83039A002A4B9B58F8
:10332000012B00D90127294B1B68002B3CD001271A
:103330003AE001271F4B1B681B6843B31D4B1B68FA
:10334000DB68DC6863689D4226D3261D3046FEF7A5
:103350001DFFA36A1BB104F11800FEF717FFE36A13
:103360001B4A1268934201D9194A136003EB830385
:103370009A00314614481044FEF7E4FEE26A114B0D
:103380001B68DB6A9A42D4D2D4E70027D2E70C4B01
:103390004FF0FF321A60BBE7094A1360B8E70D4AE5
:1033A00013680133136000273846F8BD5C4D0020D8
:1033B000E04D0020EC480020F0480020984D00200F
:1033C000944D0020E8480020F4480020E44D0020FF
:1033D000644D00209C4D002038B5354B1B6843B927
:1033E0004FF0500383F31188BFF36F8FBFF34F8FFC
:1033F000FEE7FEF747FF2E4B1A68013A1A601B687A
:10340000002B4FD12B4B1B680BB900244BE0002441
:10341000294B1B681BB3284BDB68DC6804F11800E0
:10342000FEF7B4FE251D2846FEF7B0FEE06A234BEA
:103430001B68984201D9214B186000EB8000294697
:103440001F4B03EB8000FEF77DFEE26A1D4B1B68FD
:10345000DB6A9A42DCD31C4B01221A60D8E70CB11C
:10346000FFF7DAFC194B1C6884B9174B1C68D4B100
:103470004FF0E0234FF08052C3F8042DBFF34F8F7D
:10348000BFF36F8F01240EE0013C07D0FFF718FF58
:103490000028F9D00C4B01221A60F5E70B4B0022F3
:1034A0001A60E2E70024FEF70FFF204638BD00BF98
:1034B0005C4D0020544D0020A04D0020644D0020A4
:1034C000F4480020E8480020E44D00209C4D0020F6
:1034D00010B5A8B10446104B1B6843B14FF0500320
:1034E00083F31188BFF36F8FBFF34F8FFEE7FFF7B2
:1034F000D9FE00212046FFF7D9FDFFF76DFF48B93F
:103500004FF0E0234FF08052C3F8042DBFF34F8FEC
:10351000BFF36F8F10BD00BF5C4D00201F4B1B68B9
:103520001BB11F4B01221A6070471D4B00221A600D
:103530001C4B1B6803EB83018A001B498A585AB94C
:103540000BB1013BF6E74FF0500383F31188BFF353
:103550006F8FBFF34F8FFEE703EB830082000A44B7
:1035600050684068506003EB830C4FEA8C020832CD
:10357000114488420BD003EB830291000A4A0A44AB
:103580005268D168094A1160064A13607047406862
:1035900062469100044A0A445060ECE75C4D00200A
:1035A000E44D0020644D0020F4480020E84800204D
:1035B00058B110B50C46094A11681831FEF7CDFD17
:1035C00001212046FFF772FD10BD4FF0500383F339
:1035D0001188BFF36F8FBFF34F8FFEE7E8480020DD
:1035E00038B570B10D4614460A4A11681831FEF715
:1035F000A9FD0CB14FF0FF3521462846FFF756FDD7
:1036000038BD4FF0500383F31188BFF36F8FBFF3C2
:103610004F8FFEE7E848002038B5C368DC6824B364
:1036200004F118052846FEF7B1FD184B1B682BBBAB
:10363000251D2846FEF7AAFDE06A154B1B68984237
:1036400001D9134B186000EB80002946114B03EBA6
:103650008000FEF777FDE26A0F4B1B68DB6A9A4237
:1036600011D901200D4B186038BD4FF0500383F382
:103670001188BFF36F8FBFF34F8FFEE729460848CD
:10368000FEF760FDE7E70020EEE700BF5C4D00209D
:10369000644D0020F4480020E8480020E44D00205C
:1036A000A04D0020034B1B680360034B1B68436065
:1036B000704700BF984D0020E04D0020F8B5C8B11C
:1036C0000C460546F9B1FEF7DDFD1B4B19686B682A
:1036D000C81A2268B2F1FF3F26D0184E36682F680C
:1036E000B74201D08B4224D9824215D800232360EF
:1036F00001241AE04FF0500383F31188BFF36F8F5A
:10370000BFF34F8FFEE74FF0500383F31188BFF3F1
:103710006F8FBFF34F8FFEE75B1A13442360284679
:10372000FFF7C0FF002400E00024FEF7CDFD204697
:10373000F8BD0124F9E700BFE04D0020984D0020BE
:10374000014B01221A607047E44D0020054B1B68B5
:1037500033B1054B1B680BB1002070470220704746
:1037600001207047B44D00205C4D002000283BD064
:1037700038B504461E4B1B68834208D04FF05003F7
:1037800083F31188BFF36F8FBFF34F8FFEE7036D95
:1037900043B94FF0500383F31188BFF36F8FBFF32A
:1037A0004F8FFEE7013B0365C16AC26C91421DD099
:1037B0000BB1002038BD051D2846FEF7E7FCE06C84
:1037C000E062C0F13803A3610A4B1B68984201D93B
:1037D000084B186000EB80002946074B03EB800084
:1037E000FEF7B0FC0120E5E7002070470020E1E78C
:1037F000E8480020644D0020F4480020064B1A6879
:1038000013682BB90123036023B9D3681868704784
:103810000023F8E700207047E84D002008B541601C
:10382000006191420CD8D21A83699A4201D30120D7
:1038300008BD011D094B1868FEF78FFC0020F7E753
:103840009A4201D2994206D2011D054B1868FEF733
:1038500084FC0020ECE70120EAE700BFEC4D0020EB
:10386000E84D002030B583B0FEF70CFD114B1B680E
:103870001BB1FEF729FD03B030BD0F4D2846FEF702
:1038800053FC0E4C2046FEF74FFC0D4B1D600D4BBC
:103890001C60002300930C4B0C4A10210A20FFF7F8
:1038A00058F8044B18600028E3D00949FFF776FA6E
:1038B000DFE700BF0C4F0020904E0020A44E0020F8
:1038C000E84D0020EC4D0020BC4E0020F04D0020C3
:1038D000BC3E000810B588B0FFF7C4FF124B1B6850
:1038E000CBB100240594069407AA06A905A8FEF703
:1038F0000FFC059B0293069B019302230093234632
:10390000079A0A490A48FFF70FFC0A4B186010B1E2
:10391000012008B010BD4FF0500383F31188BFF3AE
:103920006F8FBFF34F8FFEE70C4F0020C43E00089F
:10393000393C0008104F0020B8B19C460346184897
:10394000006858B300B585B0009101920293052933
:103950001CDCFFF7FBFE022810D000231A46694644
:103960000F480068FFF73FF815E04FF0500383F36E
:103970001188BFF36F8FBFF34F8FFEE70023069AC6
:10398000694607480068FFF72EF804E00023624606
:103990006946FFF7ECF805B05DF804FB00207047BE
:1039A0000C4F002070B582B01B4B1B681A6862B3C5
:1039B000DB681E68DC68251D2846FEF7E7FB236AE6
:1039C0002046984794F8283013F0040FECD0A369F0
:1039D00033449E4207D26360246129460E4B186827
:1039E000FEF7BBFBE0E7002100910B463246204684
:1039F000FFF7A2FF0028D7D14FF0500383F31188BF
:103A0000BFF36F8FBFF34F8FFEE7044A1068024980
:103A10000860136002B070BDE84D0020EC4D00203E
:103A200038B50546FFF746FC0446074B1B68834242
:103A300005D800232B60044B1C60204638BDFFF7DF
:103A4000B1FF01232B60F6E7B84E002070B582B0BD
:103A500006460D4617490968C968CC68201DFEF75F
:103A600095FB94F828C01CF0040F08D12CF0010C31
:103A700084F828C0236A2046984702B070BDA16927
:103A800033462A4631442046FFF7C8FE0028F1D0CD
:103A9000002100910B4632462046FFF74DFF0028DB
:103AA000E8D14FF0500383F31188BFF36F8FBFF35A
:103AB0004F8FFEE7E84D002070B582B006460C46F9
:103AC000FFF7F0FB01A8FFF7ABFF019B33BB0546F7
:103AD0000CB9B04219D224B1124A12681268DAB98C
:103AE00001242246711B104B1868FFF76BF9FFF792
:103AF00073FCA8B94FF0E0234FF08052C3F8042DB7
:103B0000BFF34F8FBFF36F8F0AE0FFF765FC2946C5
:103B10003046FFF79BFF03E01C46E2E7FFF75CFC43
:103B200002B070BDEC4D00200C4F002010B588B0E5
:103B300002E0049B002B0FDA002204A93D4B186819
:103B4000FFF77CF8002873D0049B002BF1DA07996B
:103B50000698059B9847ECE7069C636913B1201D06
:103B6000FEF714FB03A8FFF75BFF049B092BE3D8C8
:103B7000DFE803F00505053037500505303794F8C8
:103B8000283043F0010384F82830059BA1690246E0
:103B900019442046FFF742FE0028CDD0236A204674
:103BA000984794F8283013F0040FC5D0A26900217B
:103BB00000910B46059802442046FFF7BDFE002801
:103BC000BAD14FF0500383F31188BFF36F8FBFF367
:103BD0004F8FFEE794F8283023F0010384F8283053
:103BE000AAE794F8283043F0010384F828300599B7
:103BF000A16131B10346024601442046FFF70EFEA3
:103C00009AE74FF0500383F31188BFF36F8FBFF330
:103C10004F8FFEE794F8283013F0020F04D023F002
:103C2000010384F8283087E72046FEF761FD83E72B
:103C300008B010BD0C4F002000B583B001A8FFF7FD
:103C4000DDFD0199FFF738FFFFF770FFF6E7000091
:103C500070B50D4E0D4D761BB61006D0002455F8EC
:103C6000043B01349847A642F9D1094E094D761B11
:103C700000F0D4F8B61006D0002455F8043B013407
:103C80009847A642F9D170BDD83E0008D83E00083A
:103C9000E03E0008D83E0008830730B548D0541EE7
:103CA000002A3FD0CAB2034601E0013C3AD303F8F0
:103CB000012B9D07F9D1032C2DD9CDB245EA05255D
:103CC0000F2C45EA054536D9A4F1100222F00F0C5D
:103CD00003F1200EE6444FEA121C03F1100242E900
:103CE000045542E9025510327245F8D10CF1010237
:103CF00014F00C0F03EB021204F00F0C13D0ACF114
:103D0000040323F003030433134442F8045B934297
:103D1000FBD10CF003042CB1CAB21C4403F8012BF4
:103D20009C42FBD130BD64461346002CF4D1F9E728
:103D300003461446BFE71A46A446E0E7024B13B118
:103D4000024800F005B87047000000005D3D000823
:103D5000002301461A46184600F01AB838B5084B39
:103D6000084D5B1B9C1007D0043B1D44013C55F8DB
:103D700004399847002CF9D1BDE8384000F054B818
:103D8000E43E0008E03E0008704700BF704700BFF7
:103D90002DE9F047DFF880A00646DAF800009846E3
:103DA0000F469146FFF7F0FF1A4B1B68D3F84841C6
:103DB00024B365681F2D26DC5EB96B1C0235DAF86A
:103DC0000000636044F82570FFF7E0FF0020BDE8C5
:103DD000F08704EB85010123C1F88890D4F888218D
:103DE000AB401A43022EC4F88821C1F80881E4D1FF
:103DF000D4F88C211343C4F88C31DEE703F5A674A4
:103E0000C3F84841D5E7DAF80000FFF7BFFF4FF0ED
:103E1000FF30DCE7CC3E000848040020F8B500BFC6
:103E2000F8BC08BC9E467047F8B500BFF8BC08BC9B
:043E30009E467047F3
:103E3400426C696E6B5461736B5F4200426C696ED5
:103E44006B5461736B5F4100403E0008000000004A
:103E5400000000000000000000000000000200005C
:103E6400180000000000000000000000343E0008BC
:103E7400000000000000000000000000000000003E
:103E84000002000018000000000000000000000014
:103E940000000000000000000102030406070809F6
:103EA40000000000010203040006101600061016AC
:103EB40049444C4500000000546D7251000000005C
:0C3EC400546D7220537663002000002033
:083ED00050C3FF7F0100000058
:083ED8003D3D0008D501000882
:043EE000B101000824
:103EE40000018000400020001000080004000200CF
:103EF4000024F4000100000010000000AAAAAAAAED
:103F0400000000000C03002074030020DC030020E8
:103F1400000000000000000000000000000000009D
:103F2400000000000000000000000000000000008D
:103F3400000000000000000000000000000000007D
:103F4400000000000000000000000000000000006D
:103F5400000000000000000000000000000000005D
:103F6400000000000000000000000000000000004D
:103F7400000000000000000000000000000000003D
:103F8400000000000000000000000000000000002D
:103F9400000000000000000000000000000000001D
:103FA400000000000000000001000000000000000C
:103FB4000E33CDAB34126DE6ECDE05000B000000D1
:103FC40000000000000000000000000000000000ED
:103FD40000000000000000000000000000000000DD
:103FE40000000000000000000000000000000000CD
:103FF40000000000000000000000000000000000BD
:0C4324000000000000000000144F00200A
:0400000508000D4D95
:00000001FF
